{
	"data": {
		"bytecode": {
			"linkReferences": {},
			"object": "60806040523480156200001157600080fd5b506040518060400160405280600e81526020017f454e5445522055524c204845524500000000000000000000000000000000000081525062000059816200008060201b60201c565b506200007a6200006e6200009560201b60201c565b6200009d60201b60201c565b620004c4565b8060029081620000919190620003dd565b5050565b600033905090565b6000600360009054906101000a900473ffffffffffffffffffffffffffffffffffffffff16905081600360006101000a81548173ffffffffffffffffffffffffffffffffffffffff021916908373ffffffffffffffffffffffffffffffffffffffff1602179055508173ffffffffffffffffffffffffffffffffffffffff168173ffffffffffffffffffffffffffffffffffffffff167f8be0079c531659141344cd1fd0a4f28419497f9722a3daafe3b4186f6b6457e060405160405180910390a35050565b600081519050919050565b7f4e487b7100000000000000000000000000000000000000000000000000000000600052604160045260246000fd5b7f4e487b7100000000000000000000000000000000000000000000000000000000600052602260045260246000fd5b60006002820490506001821680620001e557607f821691505b602082108103620001fb57620001fa6200019d565b5b50919050565b60008190508160005260206000209050919050565b60006020601f8301049050919050565b600082821b905092915050565b600060088302620002657fffffffffffffffffffffffffffffffffffffffffffffffffffffffffffffffff8262000226565b62000271868362000226565b95508019841693508086168417925050509392505050565b6000819050919050565b6000819050919050565b6000620002be620002b8620002b28462000289565b62000293565b62000289565b9050919050565b6000819050919050565b620002da836200029d565b620002f2620002e982620002c5565b84845462000233565b825550505050565b600090565b62000309620002fa565b62000316818484620002cf565b505050565b5b818110156200033e5762000332600082620002ff565b6001810190506200031c565b5050565b601f8211156200038d57620003578162000201565b620003628462000216565b8101602085101562000372578190505b6200038a620003818562000216565b8301826200031b565b50505b505050565b600082821c905092915050565b6000620003b26000198460080262000392565b1980831691505092915050565b6000620003cd83836200039f565b9150826002028217905092915050565b620003e88262000163565b67ffffffffffffffff8111156200040457620004036200016e565b5b620004108254620001cc565b6200041d82828562000342565b600060209050601f83116001811462000455576000841562000440578287015190505b6200044c8582620003bf565b865550620004bc565b601f198416620004658662000201565b60005b828110156200048f5784890151825560018201915060208501945060208101905062000468565b86831015620004af5784890151620004ab601f8916826200039f565b8355505b6001600288020188555050505b505050505050565b61448780620004d46000396000f3fe608060405234801561001057600080fd5b50600436106102475760003560e01c8063731133e91161013b578063d74552e3116100b8578063e985e9c51161007c578063e985e9c5146106ae578063f242432a146106de578063f2fde38b146106fa578063f5298aca14610716578063fc2897431461073257610247565b8063d74552e314610618578063dd17b57114610636578063de5f30ce14610654578063e251c98e14610672578063e82d4b0c1461069057610247565b8063a22cb465116100ff578063a22cb46514610574578063a550ac7d14610590578063a761112d146105ac578063b7d2cd80146105ca578063bd85b039146105e857610247565b8063731133e9146104e25780637efd0484146104fe57806383614c291461051c5780638da5cb5b1461053a57806396c2918b1461055857610247565b8063497e0708116101c95780635725c9a01161018d5780635725c9a0146104625780635e7e35f1146104805780636b20c4541461049e5780636b5c0f0a146104ba578063715018a6146104d857610247565b8063497e0708146103a85780634d6826c1146103c65780634e1273f4146103e45780634f558e791461041457806355e4907f1461044457610247565b806310d03cd11161021057806310d03cd1146103165780631f7fdffa146103345780632eb2c2d6146103505780633e4bee381461036c5780634048dde61461038a57610247565b8062fdd58e1461024c57806301ffc9a71461027c57806302fe5305146102ac578063086f273e146102c85780630e89341c146102e6575b600080fd5b61026660048036038101906102619190612940565b610750565b604051610273919061298f565b60405180910390f35b61029660048036038101906102919190612a02565b610818565b6040516102a39190612a4a565b60405180910390f35b6102c660048036038101906102c19190612bab565b6108fa565b005b6102d061090e565b6040516102dd919061298f565b60405180910390f35b61030060048036038101906102fb9190612bf4565b610913565b60405161030d9190612ca0565b60405180910390f35b61031e6109a7565b60405161032b919061298f565b60405180910390f35b61034e60048036038101906103499190612e2b565b6109ac565b005b61036a60048036038101906103659190612ee6565b6109c6565b005b610374610a67565b604051610381919061298f565b60405180910390f35b610392610a6c565b60405161039f919061298f565b60405180910390f35b6103b0610a71565b6040516103bd919061298f565b60405180910390f35b6103ce610a76565b6040516103db919061298f565b60405180910390f35b6103fe60048036038101906103f99190613078565b610a7b565b60405161040b91906131ae565b60405180910390f35b61042e60048036038101906104299190612bf4565b610b94565b60405161043b9190612a4a565b60405180910390f35b61044c610ba8565b604051610459919061298f565b60405180910390f35b61046a610bad565b604051610477919061298f565b60405180910390f35b610488610bb2565b604051610495919061298f565b60405180910390f35b6104b860048036038101906104b391906131d0565b610bb7565b005b6104c2610c54565b6040516104cf919061298f565b60405180910390f35b6104e0610c59565b005b6104fc60048036038101906104f7919061325b565b610c6d565b005b610506610c87565b604051610513919061298f565b60405180910390f35b610524610c8c565b604051610531919061298f565b60405180910390f35b610542610c91565b60405161054f91906132ed565b60405180910390f35b610572600480360381019061056d9190613308565b610cbb565b005b61058e60048036038101906105899190613374565b610d45565b005b6105aa60048036038101906105a59190613308565b610d5b565b005b6105b4610ddc565b6040516105c1919061298f565b60405180910390f35b6105d2610de1565b6040516105df919061298f565b60405180910390f35b61060260048036038101906105fd9190612bf4565b610de6565b60405161060f919061298f565b60405180910390f35b610620610e03565b60405161062d919061298f565b60405180910390f35b61063e610e08565b60405161064b919061298f565b60405180910390f35b61065c610e0d565b604051610669919061298f565b60405180910390f35b61067a610e12565b604051610687919061298f565b60405180910390f35b610698610e17565b6040516106a5919061298f565b60405180910390f35b6106c860048036038101906106c391906133b4565b610e1c565b6040516106d59190612a4a565b60405180910390f35b6106f860048036038101906106f391906133f4565b610eb0565b005b610714600480360381019061070f919061348b565b610f51565b005b610730600480360381019061072b91906134b8565b610fd4565b005b61073a611071565b604051610747919061298f565b60405180910390f35b60008073ffffffffffffffffffffffffffffffffffffffff168373ffffffffffffffffffffffffffffffffffffffff16036107c0576040517f08c379a00000000000000000000000000000000000000000000000000000000081526004016107b79061357d565b60405180910390fd5b60008083815260200190815260200160002060008473ffffffffffffffffffffffffffffffffffffffff1673ffffffffffffffffffffffffffffffffffffffff16815260200190815260200160002054905092915050565b60007fd9b67a26000000000000000000000000000000000000000000000000000000007bffffffffffffffffffffffffffffffffffffffffffffffffffffffff1916827bffffffffffffffffffffffffffffffffffffffffffffffffffffffff191614806108e357507f0e89341c000000000000000000000000000000000000000000000000000000007bffffffffffffffffffffffffffffffffffffffffffffffffffffffff1916827bffffffffffffffffffffffffffffffffffffffffffffffffffffffff1916145b806108f357506108f282611076565b5b9050919050565b6109026110e0565b61090b8161115e565b50565b600381565b606060028054610922906135cc565b80601f016020809104026020016040519081016040528092919081815260200182805461094e906135cc565b801561099b5780601f106109705761010080835404028352916020019161099b565b820191906000526020600020905b81548152906001019060200180831161097e57829003601f168201915b50505050509050919050565b600b81565b6109b46110e0565b6109c084848484611171565b50505050565b6109ce61139d565b73ffffffffffffffffffffffffffffffffffffffff168573ffffffffffffffffffffffffffffffffffffffff161480610a145750610a1385610a0e61139d565b610e1c565b5b610a53576040517f08c379a0000000000000000000000000000000000000000000000000000000008152600401610a4a9061366f565b60405180910390fd5b610a6085858585856113a5565b5050505050565b600e81565b600a81565b601181565b600681565b60608151835114610ac1576040517f08c379a0000000000000000000000000000000000000000000000000000000008152600401610ab890613701565b60405180910390fd5b6000835167ffffffffffffffff811115610ade57610add612a80565b5b604051908082528060200260200182016040528015610b0c5781602001602082028036833780820191505090505b50905060005b8451811015610b8957610b59858281518110610b3157610b30613721565b5b6020026020010151858381518110610b4c57610b4b613721565b5b6020026020010151610750565b828281518110610b6c57610b6b613721565b5b60200260200101818152505080610b829061377f565b9050610b12565b508091505092915050565b600080610ba083610de6565b119050919050565b600d81565b600f81565b600181565b610bbf61139d565b73ffffffffffffffffffffffffffffffffffffffff168373ffffffffffffffffffffffffffffffffffffffff161480610c055750610c0483610bff61139d565b610e1c565b5b610c44576040517f08c379a0000000000000000000000000000000000000000000000000000000008152600401610c3b9061366f565b60405180910390fd5b610c4f8383836116c6565b505050565b600481565b610c616110e0565b610c6b6000611994565b565b610c756110e0565b610c8184848484611a5a565b50505050565b600281565b600981565b6000600360009054906101000a900473ffffffffffffffffffffffffffffffffffffffff16905090565b60148203610d415780610ccf33600f610750565b118015610ce5575080610ce3336010610750565b115b610d24576040517f08c379a0000000000000000000000000000000000000000000000000000000008152600401610d1b90613813565b60405180910390fd5b610d403360148360405180602001604052806000815250610c6d565b5b5050565b610d57610d5061139d565b8383611c0a565b5050565b60088203610dd857806002610d709190613833565b610d7b336014610750565b11610dbb576040517f08c379a0000000000000000000000000000000000000000000000000000000008152600401610db290613813565b60405180910390fd5b610dd73360088360405180602001604052806000815250610c6d565b5b5050565b600881565b601081565b600060046000838152602001908152602001600020549050919050565b601381565b601281565b601481565b600781565b600c81565b6000600160008473ffffffffffffffffffffffffffffffffffffffff1673ffffffffffffffffffffffffffffffffffffffff16815260200190815260200160002060008373ffffffffffffffffffffffffffffffffffffffff1673ffffffffffffffffffffffffffffffffffffffff16815260200190815260200160002060009054906101000a900460ff16905092915050565b610eb861139d565b73ffffffffffffffffffffffffffffffffffffffff168573ffffffffffffffffffffffffffffffffffffffff161480610efe5750610efd85610ef861139d565b610e1c565b5b610f3d576040517f08c379a0000000000000000000000000000000000000000000000000000000008152600401610f349061366f565b60405180910390fd5b610f4a8585858585611d76565b5050505050565b610f596110e0565b600073ffffffffffffffffffffffffffffffffffffffff168173ffffffffffffffffffffffffffffffffffffffff1603610fc8576040517f08c379a0000000000000000000000000000000000000000000000000000000008152600401610fbf906138e7565b60405180910390fd5b610fd181611994565b50565b610fdc61139d565b73ffffffffffffffffffffffffffffffffffffffff168373ffffffffffffffffffffffffffffffffffffffff16148061102257506110218361101c61139d565b610e1c565b5b611061576040517f08c379a00000000000000000000000000000000000000000000000000000000081526004016110589061366f565b60405180910390fd5b61106c838383612011565b505050565b600581565b60007f01ffc9a7000000000000000000000000000000000000000000000000000000007bffffffffffffffffffffffffffffffffffffffffffffffffffffffff1916827bffffffffffffffffffffffffffffffffffffffffffffffffffffffff1916149050919050565b6110e861139d565b73ffffffffffffffffffffffffffffffffffffffff16611106610c91565b73ffffffffffffffffffffffffffffffffffffffff161461115c576040517f08c379a000000000000000000000000000000000000000000000000000000000815260040161115390613953565b60405180910390fd5b565b806002908161116d9190613b1f565b5050565b600073ffffffffffffffffffffffffffffffffffffffff168473ffffffffffffffffffffffffffffffffffffffff16036111e0576040517f08c379a00000000000000000000000000000000000000000000000000000000081526004016111d790613c63565b60405180910390fd5b8151835114611224576040517f08c379a000000000000000000000000000000000000000000000000000000000815260040161121b90613cf5565b60405180910390fd5b600061122e61139d565b905061123f81600087878787612257565b60005b84518110156112f85783818151811061125e5761125d613721565b5b602002602001015160008087848151811061127c5761127b613721565b5b6020026020010151815260200190815260200160002060008873ffffffffffffffffffffffffffffffffffffffff1673ffffffffffffffffffffffffffffffffffffffff16815260200190815260200160002060008282546112de9190613d15565b9250508190555080806112f09061377f565b915050611242565b508473ffffffffffffffffffffffffffffffffffffffff16600073ffffffffffffffffffffffffffffffffffffffff168273ffffffffffffffffffffffffffffffffffffffff167f4a39dc06d4c0dbc64b70af90fd698a233a518aa5d07e595d983b8c0526c8f7fb8787604051611370929190613d49565b60405180910390a46113878160008787878761226d565b61139681600087878787612275565b5050505050565b600033905090565b81518351146113e9576040517f08c379a00000000000000000000000000000000000000000000000000000000081526004016113e090613cf5565b60405180910390fd5b600073ffffffffffffffffffffffffffffffffffffffff168473ffffffffffffffffffffffffffffffffffffffff1603611458576040517f08c379a000000000000000000000000000000000000000000000000000000000815260040161144f90613df2565b60405180910390fd5b600061146261139d565b9050611472818787878787612257565b60005b845181101561162357600085828151811061149357611492613721565b5b6020026020010151905060008583815181106114b2576114b1613721565b5b60200260200101519050600080600084815260200190815260200160002060008b73ffffffffffffffffffffffffffffffffffffffff1673ffffffffffffffffffffffffffffffffffffffff16815260200190815260200160002054905081811015611553576040517f08c379a000000000000000000000000000000000000000000000000000000000815260040161154a90613e84565b60405180910390fd5b81810360008085815260200190815260200160002060008c73ffffffffffffffffffffffffffffffffffffffff1673ffffffffffffffffffffffffffffffffffffffff168152602001908152602001600020819055508160008085815260200190815260200160002060008b73ffffffffffffffffffffffffffffffffffffffff1673ffffffffffffffffffffffffffffffffffffffff16815260200190815260200160002060008282546116089190613d15565b925050819055505050508061161c9061377f565b9050611475565b508473ffffffffffffffffffffffffffffffffffffffff168673ffffffffffffffffffffffffffffffffffffffff168273ffffffffffffffffffffffffffffffffffffffff167f4a39dc06d4c0dbc64b70af90fd698a233a518aa5d07e595d983b8c0526c8f7fb878760405161169a929190613d49565b60405180910390a46116b081878787878761226d565b6116be818787878787612275565b505050505050565b600073ffffffffffffffffffffffffffffffffffffffff168373ffffffffffffffffffffffffffffffffffffffff1603611735576040517f08c379a000000000000000000000000000000000000000000000000000000000815260040161172c90613f16565b60405180910390fd5b8051825114611779576040517f08c379a000000000000000000000000000000000000000000000000000000000815260040161177090613cf5565b60405180910390fd5b600061178361139d565b90506117a381856000868660405180602001604052806000815250612257565b60005b83518110156118f05760008482815181106117c4576117c3613721565b5b6020026020010151905060008483815181106117e3576117e2613721565b5b60200260200101519050600080600084815260200190815260200160002060008973ffffffffffffffffffffffffffffffffffffffff1673ffffffffffffffffffffffffffffffffffffffff16815260200190815260200160002054905081811015611884576040517f08c379a000000000000000000000000000000000000000000000000000000000815260040161187b90613fa8565b60405180910390fd5b81810360008085815260200190815260200160002060008a73ffffffffffffffffffffffffffffffffffffffff1673ffffffffffffffffffffffffffffffffffffffff1681526020019081526020016000208190555050505080806118e89061377f565b9150506117a6565b50600073ffffffffffffffffffffffffffffffffffffffff168473ffffffffffffffffffffffffffffffffffffffff168273ffffffffffffffffffffffffffffffffffffffff167f4a39dc06d4c0dbc64b70af90fd698a233a518aa5d07e595d983b8c0526c8f7fb8686604051611968929190613d49565b60405180910390a461198e8185600086866040518060200160405280600081525061226d565b50505050565b6000600360009054906101000a900473ffffffffffffffffffffffffffffffffffffffff16905081600360006101000a81548173ffffffffffffffffffffffffffffffffffffffff021916908373ffffffffffffffffffffffffffffffffffffffff1602179055508173ffffffffffffffffffffffffffffffffffffffff168173ffffffffffffffffffffffffffffffffffffffff167f8be0079c531659141344cd1fd0a4f28419497f9722a3daafe3b4186f6b6457e060405160405180910390a35050565b600073ffffffffffffffffffffffffffffffffffffffff168473ffffffffffffffffffffffffffffffffffffffff1603611ac9576040517f08c379a0000000000000000000000000000000000000000000000000000000008152600401611ac090613c63565b60405180910390fd5b6000611ad361139d565b90506000611ae08561244c565b90506000611aed8561244c565b9050611afe83600089858589612257565b8460008088815260200190815260200160002060008973ffffffffffffffffffffffffffffffffffffffff1673ffffffffffffffffffffffffffffffffffffffff1681526020019081526020016000206000828254611b5d9190613d15565b925050819055508673ffffffffffffffffffffffffffffffffffffffff16600073ffffffffffffffffffffffffffffffffffffffff168473ffffffffffffffffffffffffffffffffffffffff167fc3d58168c5ae7397731d063d5bbf3d657854427343f4c083240f7aacaa2d0f628989604051611bdb929190613fc8565b60405180910390a4611bf28360008985858961226d565b611c01836000898989896124c6565b50505050505050565b8173ffffffffffffffffffffffffffffffffffffffff168373ffffffffffffffffffffffffffffffffffffffff1603611c78576040517f08c379a0000000000000000000000000000000000000000000000000000000008152600401611c6f90614063565b60405180910390fd5b80600160008573ffffffffffffffffffffffffffffffffffffffff1673ffffffffffffffffffffffffffffffffffffffff16815260200190815260200160002060008473ffffffffffffffffffffffffffffffffffffffff1673ffffffffffffffffffffffffffffffffffffffff16815260200190815260200160002060006101000a81548160ff0219169083151502179055508173ffffffffffffffffffffffffffffffffffffffff168373ffffffffffffffffffffffffffffffffffffffff167f17307eab39ab6107e8899845ad3d59bd9653f200f220920489ca2b5937696c3183604051611d699190612a4a565b60405180910390a3505050565b600073ffffffffffffffffffffffffffffffffffffffff168473ffffffffffffffffffffffffffffffffffffffff1603611de5576040517f08c379a0000000000000000000000000000000000000000000000000000000008152600401611ddc90613df2565b60405180910390fd5b6000611def61139d565b90506000611dfc8561244c565b90506000611e098561244c565b9050611e19838989858589612257565b600080600088815260200190815260200160002060008a73ffffffffffffffffffffffffffffffffffffffff1673ffffffffffffffffffffffffffffffffffffffff16815260200190815260200160002054905085811015611eb0576040517f08c379a0000000000000000000000000000000000000000000000000000000008152600401611ea790613e84565b60405180910390fd5b85810360008089815260200190815260200160002060008b73ffffffffffffffffffffffffffffffffffffffff1673ffffffffffffffffffffffffffffffffffffffff168152602001908152602001600020819055508560008089815260200190815260200160002060008a73ffffffffffffffffffffffffffffffffffffffff1673ffffffffffffffffffffffffffffffffffffffff1681526020019081526020016000206000828254611f659190613d15565b925050819055508773ffffffffffffffffffffffffffffffffffffffff168973ffffffffffffffffffffffffffffffffffffffff168573ffffffffffffffffffffffffffffffffffffffff167fc3d58168c5ae7397731d063d5bbf3d657854427343f4c083240f7aacaa2d0f628a8a604051611fe2929190613fc8565b60405180910390a4611ff8848a8a86868a61226d565b612006848a8a8a8a8a6124c6565b505050505050505050565b600073ffffffffffffffffffffffffffffffffffffffff168373ffffffffffffffffffffffffffffffffffffffff1603612080576040517f08c379a000000000000000000000000000000000000000000000000000000000815260040161207790613f16565b60405180910390fd5b600061208a61139d565b905060006120978461244c565b905060006120a48461244c565b90506120c483876000858560405180602001604052806000815250612257565b600080600087815260200190815260200160002060008873ffffffffffffffffffffffffffffffffffffffff1673ffffffffffffffffffffffffffffffffffffffff1681526020019081526020016000205490508481101561215b576040517f08c379a000000000000000000000000000000000000000000000000000000000815260040161215290613fa8565b60405180910390fd5b84810360008088815260200190815260200160002060008973ffffffffffffffffffffffffffffffffffffffff1673ffffffffffffffffffffffffffffffffffffffff16815260200190815260200160002081905550600073ffffffffffffffffffffffffffffffffffffffff168773ffffffffffffffffffffffffffffffffffffffff168573ffffffffffffffffffffffffffffffffffffffff167fc3d58168c5ae7397731d063d5bbf3d657854427343f4c083240f7aacaa2d0f628989604051612228929190613fc8565b60405180910390a461224e8488600086866040518060200160405280600081525061226d565b50505050505050565b61226586868686868661269d565b505050505050565b505050505050565b6122948473ffffffffffffffffffffffffffffffffffffffff1661286d565b15612444578373ffffffffffffffffffffffffffffffffffffffff1663bc197c8187878686866040518663ffffffff1660e01b81526004016122da9594939291906140d8565b6020604051808303816000875af192505050801561231657506040513d601f19601f820116820180604052508101906123139190614155565b60015b6123bb5761232261418f565b806308c379a00361237e57506123366141b1565b806123415750612380565b806040517f08c379a00000000000000000000000000000000000000000000000000000000081526004016123759190612ca0565b60405180910390fd5b505b6040517f08c379a00000000000000000000000000000000000000000000000000000000081526004016123b2906142b3565b60405180910390fd5b63bc197c8160e01b7bffffffffffffffffffffffffffffffffffffffffffffffffffffffff1916817bffffffffffffffffffffffffffffffffffffffffffffffffffffffff191614612442576040517f08c379a000000000000000000000000000000000000000000000000000000000815260040161243990614345565b60405180910390fd5b505b505050505050565b60606000600167ffffffffffffffff81111561246b5761246a612a80565b5b6040519080825280602002602001820160405280156124995781602001602082028036833780820191505090505b50905082816000815181106124b1576124b0613721565b5b60200260200101818152505080915050919050565b6124e58473ffffffffffffffffffffffffffffffffffffffff1661286d565b15612695578373ffffffffffffffffffffffffffffffffffffffff1663f23a6e6187878686866040518663ffffffff1660e01b815260040161252b959493929190614365565b6020604051808303816000875af192505050801561256757506040513d601f19601f820116820180604052508101906125649190614155565b60015b61260c5761257361418f565b806308c379a0036125cf57506125876141b1565b8061259257506125d1565b806040517f08c379a00000000000000000000000000000000000000000000000000000000081526004016125c69190612ca0565b60405180910390fd5b505b6040517f08c379a0000000000000000000000000000000000000000000000000000000008152600401612603906142b3565b60405180910390fd5b63f23a6e6160e01b7bffffffffffffffffffffffffffffffffffffffffffffffffffffffff1916817bffffffffffffffffffffffffffffffffffffffffffffffffffffffff191614612693576040517f08c379a000000000000000000000000000000000000000000000000000000000815260040161268a90614345565b60405180910390fd5b505b505050505050565b6126ab868686868686612890565b600073ffffffffffffffffffffffffffffffffffffffff168573ffffffffffffffffffffffffffffffffffffffff160361275c5760005b835181101561275a578281815181106126fe576126fd613721565b5b60200260200101516004600086848151811061271d5761271c613721565b5b6020026020010151815260200190815260200160002060008282546127429190613d15565b92505081905550806127539061377f565b90506126e2565b505b600073ffffffffffffffffffffffffffffffffffffffff168473ffffffffffffffffffffffffffffffffffffffff16036128655760005b83518110156128635760008482815181106127b1576127b0613721565b5b6020026020010151905060008483815181106127d0576127cf613721565b5b6020026020010151905060006004600084815260200190815260200160002054905081811015612835576040517f08c379a000000000000000000000000000000000000000000000000000000000815260040161282c90614431565b60405180910390fd5b81810360046000858152602001908152602001600020819055505050508061285c9061377f565b9050612793565b505b505050505050565b6000808273ffffffffffffffffffffffffffffffffffffffff163b119050919050565b505050505050565b6000604051905090565b600080fd5b600080fd5b600073ffffffffffffffffffffffffffffffffffffffff82169050919050565b60006128d7826128ac565b9050919050565b6128e7816128cc565b81146128f257600080fd5b50565b600081359050612904816128de565b92915050565b6000819050919050565b61291d8161290a565b811461292857600080fd5b50565b60008135905061293a81612914565b92915050565b60008060408385031215612957576129566128a2565b5b6000612965858286016128f5565b92505060206129768582860161292b565b9150509250929050565b6129898161290a565b82525050565b60006020820190506129a46000830184612980565b92915050565b60007fffffffff0000000000000000000000000000000000000000000000000000000082169050919050565b6129df816129aa565b81146129ea57600080fd5b50565b6000813590506129fc816129d6565b92915050565b600060208284031215612a1857612a176128a2565b5b6000612a26848285016129ed565b91505092915050565b60008115159050919050565b612a4481612a2f565b82525050565b6000602082019050612a5f6000830184612a3b565b92915050565b600080fd5b600080fd5b6000601f19601f8301169050919050565b7f4e487b7100000000000000000000000000000000000000000000000000000000600052604160045260246000fd5b612ab882612a6f565b810181811067ffffffffffffffff82111715612ad757612ad6612a80565b5b80604052505050565b6000612aea612898565b9050612af68282612aaf565b919050565b600067ffffffffffffffff821115612b1657612b15612a80565b5b612b1f82612a6f565b9050602081019050919050565b82818337600083830152505050565b6000612b4e612b4984612afb565b612ae0565b905082815260208101848484011115612b6a57612b69612a6a565b5b612b75848285612b2c565b509392505050565b600082601f830112612b9257612b91612a65565b5b8135612ba2848260208601612b3b565b91505092915050565b600060208284031215612bc157612bc06128a2565b5b600082013567ffffffffffffffff811115612bdf57612bde6128a7565b5b612beb84828501612b7d565b91505092915050565b600060208284031215612c0a57612c096128a2565b5b6000612c188482850161292b565b91505092915050565b600081519050919050565b600082825260208201905092915050565b60005b83811015612c5b578082015181840152602081019050612c40565b60008484015250505050565b6000612c7282612c21565b612c7c8185612c2c565b9350612c8c818560208601612c3d565b612c9581612a6f565b840191505092915050565b60006020820190508181036000830152612cba8184612c67565b905092915050565b600067ffffffffffffffff821115612cdd57612cdc612a80565b5b602082029050602081019050919050565b600080fd5b6000612d06612d0184612cc2565b612ae0565b90508083825260208201905060208402830185811115612d2957612d28612cee565b5b835b81811015612d525780612d3e888261292b565b845260208401935050602081019050612d2b565b5050509392505050565b600082601f830112612d7157612d70612a65565b5b8135612d81848260208601612cf3565b91505092915050565b600067ffffffffffffffff821115612da557612da4612a80565b5b612dae82612a6f565b9050602081019050919050565b6000612dce612dc984612d8a565b612ae0565b905082815260208101848484011115612dea57612de9612a6a565b5b612df5848285612b2c565b509392505050565b600082601f830112612e1257612e11612a65565b5b8135612e22848260208601612dbb565b91505092915050565b60008060008060808587031215612e4557612e446128a2565b5b6000612e53878288016128f5565b945050602085013567ffffffffffffffff811115612e7457612e736128a7565b5b612e8087828801612d5c565b935050604085013567ffffffffffffffff811115612ea157612ea06128a7565b5b612ead87828801612d5c565b925050606085013567ffffffffffffffff811115612ece57612ecd6128a7565b5b612eda87828801612dfd565b91505092959194509250565b600080600080600060a08688031215612f0257612f016128a2565b5b6000612f10888289016128f5565b9550506020612f21888289016128f5565b945050604086013567ffffffffffffffff811115612f4257612f416128a7565b5b612f4e88828901612d5c565b935050606086013567ffffffffffffffff811115612f6f57612f6e6128a7565b5b612f7b88828901612d5c565b925050608086013567ffffffffffffffff811115612f9c57612f9b6128a7565b5b612fa888828901612dfd565b9150509295509295909350565b600067ffffffffffffffff821115612fd057612fcf612a80565b5b602082029050602081019050919050565b6000612ff4612fef84612fb5565b612ae0565b9050808382526020820190506020840283018581111561301757613016612cee565b5b835b81811015613040578061302c88826128f5565b845260208401935050602081019050613019565b5050509392505050565b600082601f83011261305f5761305e612a65565b5b813561306f848260208601612fe1565b91505092915050565b6000806040838503121561308f5761308e6128a2565b5b600083013567ffffffffffffffff8111156130ad576130ac6128a7565b5b6130b98582860161304a565b925050602083013567ffffffffffffffff8111156130da576130d96128a7565b5b6130e685828601612d5c565b9150509250929050565b600081519050919050565b600082825260208201905092915050565b6000819050602082019050919050565b6131258161290a565b82525050565b6000613137838361311c565b60208301905092915050565b6000602082019050919050565b600061315b826130f0565b61316581856130fb565b93506131708361310c565b8060005b838110156131a1578151613188888261312b565b975061319383613143565b925050600181019050613174565b5085935050505092915050565b600060208201905081810360008301526131c88184613150565b905092915050565b6000806000606084860312156131e9576131e86128a2565b5b60006131f7868287016128f5565b935050602084013567ffffffffffffffff811115613218576132176128a7565b5b61322486828701612d5c565b925050604084013567ffffffffffffffff811115613245576132446128a7565b5b61325186828701612d5c565b9150509250925092565b60008060008060808587031215613275576132746128a2565b5b6000613283878288016128f5565b94505060206132948782880161292b565b93505060406132a58782880161292b565b925050606085013567ffffffffffffffff8111156132c6576132c56128a7565b5b6132d287828801612dfd565b91505092959194509250565b6132e7816128cc565b82525050565b600060208201905061330260008301846132de565b92915050565b6000806040838503121561331f5761331e6128a2565b5b600061332d8582860161292b565b925050602061333e8582860161292b565b9150509250929050565b61335181612a2f565b811461335c57600080fd5b50565b60008135905061336e81613348565b92915050565b6000806040838503121561338b5761338a6128a2565b5b6000613399858286016128f5565b92505060206133aa8582860161335f565b9150509250929050565b600080604083850312156133cb576133ca6128a2565b5b60006133d9858286016128f5565b92505060206133ea858286016128f5565b9150509250929050565b600080600080600060a086880312156134105761340f6128a2565b5b600061341e888289016128f5565b955050602061342f888289016128f5565b94505060406134408882890161292b565b93505060606134518882890161292b565b925050608086013567ffffffffffffffff811115613472576134716128a7565b5b61347e88828901612dfd565b9150509295509295909350565b6000602082840312156134a1576134a06128a2565b5b60006134af848285016128f5565b91505092915050565b6000806000606084860312156134d1576134d06128a2565b5b60006134df868287016128f5565b93505060206134f08682870161292b565b92505060406135018682870161292b565b9150509250925092565b7f455243313135353a2061646472657373207a65726f206973206e6f742061207660008201527f616c6964206f776e657200000000000000000000000000000000000000000000602082015250565b6000613567602a83612c2c565b91506135728261350b565b604082019050919050565b600060208201905081810360008301526135968161355a565b9050919050565b7f4e487b7100000000000000000000000000000000000000000000000000000000600052602260045260246000fd5b600060028204905060018216806135e457607f821691505b6020821081036135f7576135f661359d565b5b50919050565b7f455243313135353a2063616c6c6572206973206e6f7420746f6b656e206f776e60008201527f6572206f7220617070726f766564000000000000000000000000000000000000602082015250565b6000613659602e83612c2c565b9150613664826135fd565b604082019050919050565b600060208201905081810360008301526136888161364c565b9050919050565b7f455243313135353a206163636f756e747320616e6420696473206c656e67746860008201527f206d69736d617463680000000000000000000000000000000000000000000000602082015250565b60006136eb602983612c2c565b91506136f68261368f565b604082019050919050565b6000602082019050818103600083015261371a816136de565b9050919050565b7f4e487b7100000000000000000000000000000000000000000000000000000000600052603260045260246000fd5b7f4e487b7100000000000000000000000000000000000000000000000000000000600052601160045260246000fd5b600061378a8261290a565b91507fffffffffffffffffffffffffffffffffffffffffffffffffffffffffffffffff82036137bc576137bb613750565b5b600182019050919050565b7f4d697373696e67205265717569726564206d6174657269616c73000000000000600082015250565b60006137fd601a83612c2c565b9150613808826137c7565b602082019050919050565b6000602082019050818103600083015261382c816137f0565b9050919050565b600061383e8261290a565b91506138498361290a565b92508282026138578161290a565b9150828204841483151761386e5761386d613750565b5b5092915050565b7f4f776e61626c653a206e6577206f776e657220697320746865207a65726f206160008201527f6464726573730000000000000000000000000000000000000000000000000000602082015250565b60006138d1602683612c2c565b91506138dc82613875565b604082019050919050565b60006020820190508181036000830152613900816138c4565b9050919050565b7f4f776e61626c653a2063616c6c6572206973206e6f7420746865206f776e6572600082015250565b600061393d602083612c2c565b915061394882613907565b602082019050919050565b6000602082019050818103600083015261396c81613930565b9050919050565b60008190508160005260206000209050919050565b60006020601f8301049050919050565b600082821b905092915050565b6000600883026139d57fffffffffffffffffffffffffffffffffffffffffffffffffffffffffffffffff82613998565b6139df8683613998565b95508019841693508086168417925050509392505050565b6000819050919050565b6000613a1c613a17613a128461290a565b6139f7565b61290a565b9050919050565b6000819050919050565b613a3683613a01565b613a4a613a4282613a23565b8484546139a5565b825550505050565b600090565b613a5f613a52565b613a6a818484613a2d565b505050565b5b81811015613a8e57613a83600082613a57565b600181019050613a70565b5050565b601f821115613ad357613aa481613973565b613aad84613988565b81016020851015613abc578190505b613ad0613ac885613988565b830182613a6f565b50505b505050565b600082821c905092915050565b6000613af660001984600802613ad8565b1980831691505092915050565b6000613b0f8383613ae5565b9150826002028217905092915050565b613b2882612c21565b67ffffffffffffffff811115613b4157613b40612a80565b5b613b4b82546135cc565b613b56828285613a92565b600060209050601f831160018114613b895760008415613b77578287015190505b613b818582613b03565b865550613be9565b601f198416613b9786613973565b60005b82811015613bbf57848901518255600182019150602085019450602081019050613b9a565b86831015613bdc5784890151613bd8601f891682613ae5565b8355505b6001600288020188555050505b505050505050565b7f455243313135353a206d696e7420746f20746865207a65726f2061646472657360008201527f7300000000000000000000000000000000000000000000000000000000000000602082015250565b6000613c4d602183612c2c565b9150613c5882613bf1565b604082019050919050565b60006020820190508181036000830152613c7c81613c40565b9050919050565b7f455243313135353a2069647320616e6420616d6f756e7473206c656e6774682060008201527f6d69736d61746368000000000000000000000000000000000000000000000000602082015250565b6000613cdf602883612c2c565b9150613cea82613c83565b604082019050919050565b60006020820190508181036000830152613d0e81613cd2565b9050919050565b6000613d208261290a565b9150613d2b8361290a565b9250828201905080821115613d4357613d42613750565b5b92915050565b60006040820190508181036000830152613d638185613150565b90508181036020830152613d778184613150565b90509392505050565b7f455243313135353a207472616e7366657220746f20746865207a65726f20616460008201527f6472657373000000000000000000000000000000000000000000000000000000602082015250565b6000613ddc602583612c2c565b9150613de782613d80565b604082019050919050565b60006020820190508181036000830152613e0b81613dcf565b9050919050565b7f455243313135353a20696e73756666696369656e742062616c616e636520666f60008201527f72207472616e7366657200000000000000000000000000000000000000000000602082015250565b6000613e6e602a83612c2c565b9150613e7982613e12565b604082019050919050565b60006020820190508181036000830152613e9d81613e61565b9050919050565b7f455243313135353a206275726e2066726f6d20746865207a65726f206164647260008201527f6573730000000000000000000000000000000000000000000000000000000000602082015250565b6000613f00602383612c2c565b9150613f0b82613ea4565b604082019050919050565b60006020820190508181036000830152613f2f81613ef3565b9050919050565b7f455243313135353a206275726e20616d6f756e7420657863656564732062616c60008201527f616e636500000000000000000000000000000000000000000000000000000000602082015250565b6000613f92602483612c2c565b9150613f9d82613f36565b604082019050919050565b60006020820190508181036000830152613fc181613f85565b9050919050565b6000604082019050613fdd6000830185612980565b613fea6020830184612980565b9392505050565b7f455243313135353a2073657474696e6720617070726f76616c2073746174757360008201527f20666f722073656c660000000000000000000000000000000000000000000000602082015250565b600061404d602983612c2c565b915061405882613ff1565b604082019050919050565b6000602082019050818103600083015261407c81614040565b9050919050565b600081519050919050565b600082825260208201905092915050565b60006140aa82614083565b6140b4818561408e565b93506140c4818560208601612c3d565b6140cd81612a6f565b840191505092915050565b600060a0820190506140ed60008301886132de565b6140fa60208301876132de565b818103604083015261410c8186613150565b905081810360608301526141208185613150565b90508181036080830152614134818461409f565b90509695505050505050565b60008151905061414f816129d6565b92915050565b60006020828403121561416b5761416a6128a2565b5b600061417984828501614140565b91505092915050565b60008160e01c9050919050565b600060033d11156141ae5760046000803e6141ab600051614182565b90505b90565b600060443d1061423e576141c3612898565b60043d036004823e80513d602482011167ffffffffffffffff821117156141eb57505061423e565b808201805167ffffffffffffffff811115614209575050505061423e565b80602083010160043d03850181111561422657505050505061423e565b61423582602001850186612aaf565b82955050505050505b90565b7f455243313135353a207472616e7366657220746f206e6f6e2d4552433131353560008201527f526563656976657220696d706c656d656e746572000000000000000000000000602082015250565b600061429d603483612c2c565b91506142a882614241565b604082019050919050565b600060208201905081810360008301526142cc81614290565b9050919050565b7f455243313135353a204552433131353552656365697665722072656a6563746560008201527f6420746f6b656e73000000000000000000000000000000000000000000000000602082015250565b600061432f602883612c2c565b915061433a826142d3565b604082019050919050565b6000602082019050818103600083015261435e81614322565b9050919050565b600060a08201905061437a60008301886132de565b61438760208301876132de565b6143946040830186612980565b6143a16060830185612980565b81810360808301526143b3818461409f565b90509695505050505050565b7f455243313135353a206275726e20616d6f756e74206578636565647320746f7460008201527f616c537570706c79000000000000000000000000000000000000000000000000602082015250565b600061441b602883612c2c565b9150614426826143bf565b604082019050919050565b6000602082019050818103600083015261444a8161440e565b905091905056fea264697066735822122086e37b715762c7540f1074a9596f1a2c86d0bf8130a95aba15f98c71dbf89b6c64736f6c63430008120033",
			"opcodes": "PUSH1 0x80 PUSH1 0x40 MSTORE CALLVALUE DUP1 ISZERO PUSH3 0x11 JUMPI PUSH1 0x0 DUP1 REVERT JUMPDEST POP PUSH1 0x40 MLOAD DUP1 PUSH1 0x40 ADD PUSH1 0x40 MSTORE DUP1 PUSH1 0xE DUP2 MSTORE PUSH1 0x20 ADD PUSH32 0x454E5445522055524C2048455245000000000000000000000000000000000000 DUP2 MSTORE POP PUSH3 0x59 DUP2 PUSH3 0x80 PUSH1 0x20 SHL PUSH1 0x20 SHR JUMP JUMPDEST POP PUSH3 0x7A PUSH3 0x6E PUSH3 0x95 PUSH1 0x20 SHL PUSH1 0x20 SHR JUMP JUMPDEST PUSH3 0x9D PUSH1 0x20 SHL PUSH1 0x20 SHR JUMP JUMPDEST PUSH3 0x4C4 JUMP JUMPDEST DUP1 PUSH1 0x2 SWAP1 DUP2 PUSH3 0x91 SWAP2 SWAP1 PUSH3 0x3DD JUMP JUMPDEST POP POP JUMP JUMPDEST PUSH1 0x0 CALLER SWAP1 POP SWAP1 JUMP JUMPDEST PUSH1 0x0 PUSH1 0x3 PUSH1 0x0 SWAP1 SLOAD SWAP1 PUSH2 0x100 EXP SWAP1 DIV PUSH20 0xFFFFFFFFFFFFFFFFFFFFFFFFFFFFFFFFFFFFFFFF AND SWAP1 POP DUP2 PUSH1 0x3 PUSH1 0x0 PUSH2 0x100 EXP DUP2 SLOAD DUP2 PUSH20 0xFFFFFFFFFFFFFFFFFFFFFFFFFFFFFFFFFFFFFFFF MUL NOT AND SWAP1 DUP4 PUSH20 0xFFFFFFFFFFFFFFFFFFFFFFFFFFFFFFFFFFFFFFFF AND MUL OR SWAP1 SSTORE POP DUP2 PUSH20 0xFFFFFFFFFFFFFFFFFFFFFFFFFFFFFFFFFFFFFFFF AND DUP2 PUSH20 0xFFFFFFFFFFFFFFFFFFFFFFFFFFFFFFFFFFFFFFFF AND PUSH32 0x8BE0079C531659141344CD1FD0A4F28419497F9722A3DAAFE3B4186F6B6457E0 PUSH1 0x40 MLOAD PUSH1 0x40 MLOAD DUP1 SWAP2 SUB SWAP1 LOG3 POP POP JUMP JUMPDEST PUSH1 0x0 DUP2 MLOAD SWAP1 POP SWAP2 SWAP1 POP JUMP JUMPDEST PUSH32 0x4E487B7100000000000000000000000000000000000000000000000000000000 PUSH1 0x0 MSTORE PUSH1 0x41 PUSH1 0x4 MSTORE PUSH1 0x24 PUSH1 0x0 REVERT JUMPDEST PUSH32 0x4E487B7100000000000000000000000000000000000000000000000000000000 PUSH1 0x0 MSTORE PUSH1 0x22 PUSH1 0x4 MSTORE PUSH1 0x24 PUSH1 0x0 REVERT JUMPDEST PUSH1 0x0 PUSH1 0x2 DUP3 DIV SWAP1 POP PUSH1 0x1 DUP3 AND DUP1 PUSH3 0x1E5 JUMPI PUSH1 0x7F DUP3 AND SWAP2 POP JUMPDEST PUSH1 0x20 DUP3 LT DUP2 SUB PUSH3 0x1FB JUMPI PUSH3 0x1FA PUSH3 0x19D JUMP JUMPDEST JUMPDEST POP SWAP2 SWAP1 POP JUMP JUMPDEST PUSH1 0x0 DUP2 SWAP1 POP DUP2 PUSH1 0x0 MSTORE PUSH1 0x20 PUSH1 0x0 KECCAK256 SWAP1 POP SWAP2 SWAP1 POP JUMP JUMPDEST PUSH1 0x0 PUSH1 0x20 PUSH1 0x1F DUP4 ADD DIV SWAP1 POP SWAP2 SWAP1 POP JUMP JUMPDEST PUSH1 0x0 DUP3 DUP3 SHL SWAP1 POP SWAP3 SWAP2 POP POP JUMP JUMPDEST PUSH1 0x0 PUSH1 0x8 DUP4 MUL PUSH3 0x265 PUSH32 0xFFFFFFFFFFFFFFFFFFFFFFFFFFFFFFFFFFFFFFFFFFFFFFFFFFFFFFFFFFFFFFFF DUP3 PUSH3 0x226 JUMP JUMPDEST PUSH3 0x271 DUP7 DUP4 PUSH3 0x226 JUMP JUMPDEST SWAP6 POP DUP1 NOT DUP5 AND SWAP4 POP DUP1 DUP7 AND DUP5 OR SWAP3 POP POP POP SWAP4 SWAP3 POP POP POP JUMP JUMPDEST PUSH1 0x0 DUP2 SWAP1 POP SWAP2 SWAP1 POP JUMP JUMPDEST PUSH1 0x0 DUP2 SWAP1 POP SWAP2 SWAP1 POP JUMP JUMPDEST PUSH1 0x0 PUSH3 0x2BE PUSH3 0x2B8 PUSH3 0x2B2 DUP5 PUSH3 0x289 JUMP JUMPDEST PUSH3 0x293 JUMP JUMPDEST PUSH3 0x289 JUMP JUMPDEST SWAP1 POP SWAP2 SWAP1 POP JUMP JUMPDEST PUSH1 0x0 DUP2 SWAP1 POP SWAP2 SWAP1 POP JUMP JUMPDEST PUSH3 0x2DA DUP4 PUSH3 0x29D JUMP JUMPDEST PUSH3 0x2F2 PUSH3 0x2E9 DUP3 PUSH3 0x2C5 JUMP JUMPDEST DUP5 DUP5 SLOAD PUSH3 0x233 JUMP JUMPDEST DUP3 SSTORE POP POP POP POP JUMP JUMPDEST PUSH1 0x0 SWAP1 JUMP JUMPDEST PUSH3 0x309 PUSH3 0x2FA JUMP JUMPDEST PUSH3 0x316 DUP2 DUP5 DUP5 PUSH3 0x2CF JUMP JUMPDEST POP POP POP JUMP JUMPDEST JUMPDEST DUP2 DUP2 LT ISZERO PUSH3 0x33E JUMPI PUSH3 0x332 PUSH1 0x0 DUP3 PUSH3 0x2FF JUMP JUMPDEST PUSH1 0x1 DUP2 ADD SWAP1 POP PUSH3 0x31C JUMP JUMPDEST POP POP JUMP JUMPDEST PUSH1 0x1F DUP3 GT ISZERO PUSH3 0x38D JUMPI PUSH3 0x357 DUP2 PUSH3 0x201 JUMP JUMPDEST PUSH3 0x362 DUP5 PUSH3 0x216 JUMP JUMPDEST DUP2 ADD PUSH1 0x20 DUP6 LT ISZERO PUSH3 0x372 JUMPI DUP2 SWAP1 POP JUMPDEST PUSH3 0x38A PUSH3 0x381 DUP6 PUSH3 0x216 JUMP JUMPDEST DUP4 ADD DUP3 PUSH3 0x31B JUMP JUMPDEST POP POP JUMPDEST POP POP POP JUMP JUMPDEST PUSH1 0x0 DUP3 DUP3 SHR SWAP1 POP SWAP3 SWAP2 POP POP JUMP JUMPDEST PUSH1 0x0 PUSH3 0x3B2 PUSH1 0x0 NOT DUP5 PUSH1 0x8 MUL PUSH3 0x392 JUMP JUMPDEST NOT DUP1 DUP4 AND SWAP2 POP POP SWAP3 SWAP2 POP POP JUMP JUMPDEST PUSH1 0x0 PUSH3 0x3CD DUP4 DUP4 PUSH3 0x39F JUMP JUMPDEST SWAP2 POP DUP3 PUSH1 0x2 MUL DUP3 OR SWAP1 POP SWAP3 SWAP2 POP POP JUMP JUMPDEST PUSH3 0x3E8 DUP3 PUSH3 0x163 JUMP JUMPDEST PUSH8 0xFFFFFFFFFFFFFFFF DUP2 GT ISZERO PUSH3 0x404 JUMPI PUSH3 0x403 PUSH3 0x16E JUMP JUMPDEST JUMPDEST PUSH3 0x410 DUP3 SLOAD PUSH3 0x1CC JUMP JUMPDEST PUSH3 0x41D DUP3 DUP3 DUP6 PUSH3 0x342 JUMP JUMPDEST PUSH1 0x0 PUSH1 0x20 SWAP1 POP PUSH1 0x1F DUP4 GT PUSH1 0x1 DUP2 EQ PUSH3 0x455 JUMPI PUSH1 0x0 DUP5 ISZERO PUSH3 0x440 JUMPI DUP3 DUP8 ADD MLOAD SWAP1 POP JUMPDEST PUSH3 0x44C DUP6 DUP3 PUSH3 0x3BF JUMP JUMPDEST DUP7 SSTORE POP PUSH3 0x4BC JUMP JUMPDEST PUSH1 0x1F NOT DUP5 AND PUSH3 0x465 DUP7 PUSH3 0x201 JUMP JUMPDEST PUSH1 0x0 JUMPDEST DUP3 DUP2 LT ISZERO PUSH3 0x48F JUMPI DUP5 DUP10 ADD MLOAD DUP3 SSTORE PUSH1 0x1 DUP3 ADD SWAP2 POP PUSH1 0x20 DUP6 ADD SWAP5 POP PUSH1 0x20 DUP2 ADD SWAP1 POP PUSH3 0x468 JUMP JUMPDEST DUP7 DUP4 LT ISZERO PUSH3 0x4AF JUMPI DUP5 DUP10 ADD MLOAD PUSH3 0x4AB PUSH1 0x1F DUP10 AND DUP3 PUSH3 0x39F JUMP JUMPDEST DUP4 SSTORE POP JUMPDEST PUSH1 0x1 PUSH1 0x2 DUP9 MUL ADD DUP9 SSTORE POP POP POP JUMPDEST POP POP POP POP POP POP JUMP JUMPDEST PUSH2 0x4487 DUP1 PUSH3 0x4D4 PUSH1 0x0 CODECOPY PUSH1 0x0 RETURN INVALID PUSH1 0x80 PUSH1 0x40 MSTORE CALLVALUE DUP1 ISZERO PUSH2 0x10 JUMPI PUSH1 0x0 DUP1 REVERT JUMPDEST POP PUSH1 0x4 CALLDATASIZE LT PUSH2 0x247 JUMPI PUSH1 0x0 CALLDATALOAD PUSH1 0xE0 SHR DUP1 PUSH4 0x731133E9 GT PUSH2 0x13B JUMPI DUP1 PUSH4 0xD74552E3 GT PUSH2 0xB8 JUMPI DUP1 PUSH4 0xE985E9C5 GT PUSH2 0x7C JUMPI DUP1 PUSH4 0xE985E9C5 EQ PUSH2 0x6AE JUMPI DUP1 PUSH4 0xF242432A EQ PUSH2 0x6DE JUMPI DUP1 PUSH4 0xF2FDE38B EQ PUSH2 0x6FA JUMPI DUP1 PUSH4 0xF5298ACA EQ PUSH2 0x716 JUMPI DUP1 PUSH4 0xFC289743 EQ PUSH2 0x732 JUMPI PUSH2 0x247 JUMP JUMPDEST DUP1 PUSH4 0xD74552E3 EQ PUSH2 0x618 JUMPI DUP1 PUSH4 0xDD17B571 EQ PUSH2 0x636 JUMPI DUP1 PUSH4 0xDE5F30CE EQ PUSH2 0x654 JUMPI DUP1 PUSH4 0xE251C98E EQ PUSH2 0x672 JUMPI DUP1 PUSH4 0xE82D4B0C EQ PUSH2 0x690 JUMPI PUSH2 0x247 JUMP JUMPDEST DUP1 PUSH4 0xA22CB465 GT PUSH2 0xFF JUMPI DUP1 PUSH4 0xA22CB465 EQ PUSH2 0x574 JUMPI DUP1 PUSH4 0xA550AC7D EQ PUSH2 0x590 JUMPI DUP1 PUSH4 0xA761112D EQ PUSH2 0x5AC JUMPI DUP1 PUSH4 0xB7D2CD80 EQ PUSH2 0x5CA JUMPI DUP1 PUSH4 0xBD85B039 EQ PUSH2 0x5E8 JUMPI PUSH2 0x247 JUMP JUMPDEST DUP1 PUSH4 0x731133E9 EQ PUSH2 0x4E2 JUMPI DUP1 PUSH4 0x7EFD0484 EQ PUSH2 0x4FE JUMPI DUP1 PUSH4 0x83614C29 EQ PUSH2 0x51C JUMPI DUP1 PUSH4 0x8DA5CB5B EQ PUSH2 0x53A JUMPI DUP1 PUSH4 0x96C2918B EQ PUSH2 0x558 JUMPI PUSH2 0x247 JUMP JUMPDEST DUP1 PUSH4 0x497E0708 GT PUSH2 0x1C9 JUMPI DUP1 PUSH4 0x5725C9A0 GT PUSH2 0x18D JUMPI DUP1 PUSH4 0x5725C9A0 EQ PUSH2 0x462 JUMPI DUP1 PUSH4 0x5E7E35F1 EQ PUSH2 0x480 JUMPI DUP1 PUSH4 0x6B20C454 EQ PUSH2 0x49E JUMPI DUP1 PUSH4 0x6B5C0F0A EQ PUSH2 0x4BA JUMPI DUP1 PUSH4 0x715018A6 EQ PUSH2 0x4D8 JUMPI PUSH2 0x247 JUMP JUMPDEST DUP1 PUSH4 0x497E0708 EQ PUSH2 0x3A8 JUMPI DUP1 PUSH4 0x4D6826C1 EQ PUSH2 0x3C6 JUMPI DUP1 PUSH4 0x4E1273F4 EQ PUSH2 0x3E4 JUMPI DUP1 PUSH4 0x4F558E79 EQ PUSH2 0x414 JUMPI DUP1 PUSH4 0x55E4907F EQ PUSH2 0x444 JUMPI PUSH2 0x247 JUMP JUMPDEST DUP1 PUSH4 0x10D03CD1 GT PUSH2 0x210 JUMPI DUP1 PUSH4 0x10D03CD1 EQ PUSH2 0x316 JUMPI DUP1 PUSH4 0x1F7FDFFA EQ PUSH2 0x334 JUMPI DUP1 PUSH4 0x2EB2C2D6 EQ PUSH2 0x350 JUMPI DUP1 PUSH4 0x3E4BEE38 EQ PUSH2 0x36C JUMPI DUP1 PUSH4 0x4048DDE6 EQ PUSH2 0x38A JUMPI PUSH2 0x247 JUMP JUMPDEST DUP1 PUSH3 0xFDD58E EQ PUSH2 0x24C JUMPI DUP1 PUSH4 0x1FFC9A7 EQ PUSH2 0x27C JUMPI DUP1 PUSH4 0x2FE5305 EQ PUSH2 0x2AC JUMPI DUP1 PUSH4 0x86F273E EQ PUSH2 0x2C8 JUMPI DUP1 PUSH4 0xE89341C EQ PUSH2 0x2E6 JUMPI JUMPDEST PUSH1 0x0 DUP1 REVERT JUMPDEST PUSH2 0x266 PUSH1 0x4 DUP1 CALLDATASIZE SUB DUP2 ADD SWAP1 PUSH2 0x261 SWAP2 SWAP1 PUSH2 0x2940 JUMP JUMPDEST PUSH2 0x750 JUMP JUMPDEST PUSH1 0x40 MLOAD PUSH2 0x273 SWAP2 SWAP1 PUSH2 0x298F JUMP JUMPDEST PUSH1 0x40 MLOAD DUP1 SWAP2 SUB SWAP1 RETURN JUMPDEST PUSH2 0x296 PUSH1 0x4 DUP1 CALLDATASIZE SUB DUP2 ADD SWAP1 PUSH2 0x291 SWAP2 SWAP1 PUSH2 0x2A02 JUMP JUMPDEST PUSH2 0x818 JUMP JUMPDEST PUSH1 0x40 MLOAD PUSH2 0x2A3 SWAP2 SWAP1 PUSH2 0x2A4A JUMP JUMPDEST PUSH1 0x40 MLOAD DUP1 SWAP2 SUB SWAP1 RETURN JUMPDEST PUSH2 0x2C6 PUSH1 0x4 DUP1 CALLDATASIZE SUB DUP2 ADD SWAP1 PUSH2 0x2C1 SWAP2 SWAP1 PUSH2 0x2BAB JUMP JUMPDEST PUSH2 0x8FA JUMP JUMPDEST STOP JUMPDEST PUSH2 0x2D0 PUSH2 0x90E JUMP JUMPDEST PUSH1 0x40 MLOAD PUSH2 0x2DD SWAP2 SWAP1 PUSH2 0x298F JUMP JUMPDEST PUSH1 0x40 MLOAD DUP1 SWAP2 SUB SWAP1 RETURN JUMPDEST PUSH2 0x300 PUSH1 0x4 DUP1 CALLDATASIZE SUB DUP2 ADD SWAP1 PUSH2 0x2FB SWAP2 SWAP1 PUSH2 0x2BF4 JUMP JUMPDEST PUSH2 0x913 JUMP JUMPDEST PUSH1 0x40 MLOAD PUSH2 0x30D SWAP2 SWAP1 PUSH2 0x2CA0 JUMP JUMPDEST PUSH1 0x40 MLOAD DUP1 SWAP2 SUB SWAP1 RETURN JUMPDEST PUSH2 0x31E PUSH2 0x9A7 JUMP JUMPDEST PUSH1 0x40 MLOAD PUSH2 0x32B SWAP2 SWAP1 PUSH2 0x298F JUMP JUMPDEST PUSH1 0x40 MLOAD DUP1 SWAP2 SUB SWAP1 RETURN JUMPDEST PUSH2 0x34E PUSH1 0x4 DUP1 CALLDATASIZE SUB DUP2 ADD SWAP1 PUSH2 0x349 SWAP2 SWAP1 PUSH2 0x2E2B JUMP JUMPDEST PUSH2 0x9AC JUMP JUMPDEST STOP JUMPDEST PUSH2 0x36A PUSH1 0x4 DUP1 CALLDATASIZE SUB DUP2 ADD SWAP1 PUSH2 0x365 SWAP2 SWAP1 PUSH2 0x2EE6 JUMP JUMPDEST PUSH2 0x9C6 JUMP JUMPDEST STOP JUMPDEST PUSH2 0x374 PUSH2 0xA67 JUMP JUMPDEST PUSH1 0x40 MLOAD PUSH2 0x381 SWAP2 SWAP1 PUSH2 0x298F JUMP JUMPDEST PUSH1 0x40 MLOAD DUP1 SWAP2 SUB SWAP1 RETURN JUMPDEST PUSH2 0x392 PUSH2 0xA6C JUMP JUMPDEST PUSH1 0x40 MLOAD PUSH2 0x39F SWAP2 SWAP1 PUSH2 0x298F JUMP JUMPDEST PUSH1 0x40 MLOAD DUP1 SWAP2 SUB SWAP1 RETURN JUMPDEST PUSH2 0x3B0 PUSH2 0xA71 JUMP JUMPDEST PUSH1 0x40 MLOAD PUSH2 0x3BD SWAP2 SWAP1 PUSH2 0x298F JUMP JUMPDEST PUSH1 0x40 MLOAD DUP1 SWAP2 SUB SWAP1 RETURN JUMPDEST PUSH2 0x3CE PUSH2 0xA76 JUMP JUMPDEST PUSH1 0x40 MLOAD PUSH2 0x3DB SWAP2 SWAP1 PUSH2 0x298F JUMP JUMPDEST PUSH1 0x40 MLOAD DUP1 SWAP2 SUB SWAP1 RETURN JUMPDEST PUSH2 0x3FE PUSH1 0x4 DUP1 CALLDATASIZE SUB DUP2 ADD SWAP1 PUSH2 0x3F9 SWAP2 SWAP1 PUSH2 0x3078 JUMP JUMPDEST PUSH2 0xA7B JUMP JUMPDEST PUSH1 0x40 MLOAD PUSH2 0x40B SWAP2 SWAP1 PUSH2 0x31AE JUMP JUMPDEST PUSH1 0x40 MLOAD DUP1 SWAP2 SUB SWAP1 RETURN JUMPDEST PUSH2 0x42E PUSH1 0x4 DUP1 CALLDATASIZE SUB DUP2 ADD SWAP1 PUSH2 0x429 SWAP2 SWAP1 PUSH2 0x2BF4 JUMP JUMPDEST PUSH2 0xB94 JUMP JUMPDEST PUSH1 0x40 MLOAD PUSH2 0x43B SWAP2 SWAP1 PUSH2 0x2A4A JUMP JUMPDEST PUSH1 0x40 MLOAD DUP1 SWAP2 SUB SWAP1 RETURN JUMPDEST PUSH2 0x44C PUSH2 0xBA8 JUMP JUMPDEST PUSH1 0x40 MLOAD PUSH2 0x459 SWAP2 SWAP1 PUSH2 0x298F JUMP JUMPDEST PUSH1 0x40 MLOAD DUP1 SWAP2 SUB SWAP1 RETURN JUMPDEST PUSH2 0x46A PUSH2 0xBAD JUMP JUMPDEST PUSH1 0x40 MLOAD PUSH2 0x477 SWAP2 SWAP1 PUSH2 0x298F JUMP JUMPDEST PUSH1 0x40 MLOAD DUP1 SWAP2 SUB SWAP1 RETURN JUMPDEST PUSH2 0x488 PUSH2 0xBB2 JUMP JUMPDEST PUSH1 0x40 MLOAD PUSH2 0x495 SWAP2 SWAP1 PUSH2 0x298F JUMP JUMPDEST PUSH1 0x40 MLOAD DUP1 SWAP2 SUB SWAP1 RETURN JUMPDEST PUSH2 0x4B8 PUSH1 0x4 DUP1 CALLDATASIZE SUB DUP2 ADD SWAP1 PUSH2 0x4B3 SWAP2 SWAP1 PUSH2 0x31D0 JUMP JUMPDEST PUSH2 0xBB7 JUMP JUMPDEST STOP JUMPDEST PUSH2 0x4C2 PUSH2 0xC54 JUMP JUMPDEST PUSH1 0x40 MLOAD PUSH2 0x4CF SWAP2 SWAP1 PUSH2 0x298F JUMP JUMPDEST PUSH1 0x40 MLOAD DUP1 SWAP2 SUB SWAP1 RETURN JUMPDEST PUSH2 0x4E0 PUSH2 0xC59 JUMP JUMPDEST STOP JUMPDEST PUSH2 0x4FC PUSH1 0x4 DUP1 CALLDATASIZE SUB DUP2 ADD SWAP1 PUSH2 0x4F7 SWAP2 SWAP1 PUSH2 0x325B JUMP JUMPDEST PUSH2 0xC6D JUMP JUMPDEST STOP JUMPDEST PUSH2 0x506 PUSH2 0xC87 JUMP JUMPDEST PUSH1 0x40 MLOAD PUSH2 0x513 SWAP2 SWAP1 PUSH2 0x298F JUMP JUMPDEST PUSH1 0x40 MLOAD DUP1 SWAP2 SUB SWAP1 RETURN JUMPDEST PUSH2 0x524 PUSH2 0xC8C JUMP JUMPDEST PUSH1 0x40 MLOAD PUSH2 0x531 SWAP2 SWAP1 PUSH2 0x298F JUMP JUMPDEST PUSH1 0x40 MLOAD DUP1 SWAP2 SUB SWAP1 RETURN JUMPDEST PUSH2 0x542 PUSH2 0xC91 JUMP JUMPDEST PUSH1 0x40 MLOAD PUSH2 0x54F SWAP2 SWAP1 PUSH2 0x32ED JUMP JUMPDEST PUSH1 0x40 MLOAD DUP1 SWAP2 SUB SWAP1 RETURN JUMPDEST PUSH2 0x572 PUSH1 0x4 DUP1 CALLDATASIZE SUB DUP2 ADD SWAP1 PUSH2 0x56D SWAP2 SWAP1 PUSH2 0x3308 JUMP JUMPDEST PUSH2 0xCBB JUMP JUMPDEST STOP JUMPDEST PUSH2 0x58E PUSH1 0x4 DUP1 CALLDATASIZE SUB DUP2 ADD SWAP1 PUSH2 0x589 SWAP2 SWAP1 PUSH2 0x3374 JUMP JUMPDEST PUSH2 0xD45 JUMP JUMPDEST STOP JUMPDEST PUSH2 0x5AA PUSH1 0x4 DUP1 CALLDATASIZE SUB DUP2 ADD SWAP1 PUSH2 0x5A5 SWAP2 SWAP1 PUSH2 0x3308 JUMP JUMPDEST PUSH2 0xD5B JUMP JUMPDEST STOP JUMPDEST PUSH2 0x5B4 PUSH2 0xDDC JUMP JUMPDEST PUSH1 0x40 MLOAD PUSH2 0x5C1 SWAP2 SWAP1 PUSH2 0x298F JUMP JUMPDEST PUSH1 0x40 MLOAD DUP1 SWAP2 SUB SWAP1 RETURN JUMPDEST PUSH2 0x5D2 PUSH2 0xDE1 JUMP JUMPDEST PUSH1 0x40 MLOAD PUSH2 0x5DF SWAP2 SWAP1 PUSH2 0x298F JUMP JUMPDEST PUSH1 0x40 MLOAD DUP1 SWAP2 SUB SWAP1 RETURN JUMPDEST PUSH2 0x602 PUSH1 0x4 DUP1 CALLDATASIZE SUB DUP2 ADD SWAP1 PUSH2 0x5FD SWAP2 SWAP1 PUSH2 0x2BF4 JUMP JUMPDEST PUSH2 0xDE6 JUMP JUMPDEST PUSH1 0x40 MLOAD PUSH2 0x60F SWAP2 SWAP1 PUSH2 0x298F JUMP JUMPDEST PUSH1 0x40 MLOAD DUP1 SWAP2 SUB SWAP1 RETURN JUMPDEST PUSH2 0x620 PUSH2 0xE03 JUMP JUMPDEST PUSH1 0x40 MLOAD PUSH2 0x62D SWAP2 SWAP1 PUSH2 0x298F JUMP JUMPDEST PUSH1 0x40 MLOAD DUP1 SWAP2 SUB SWAP1 RETURN JUMPDEST PUSH2 0x63E PUSH2 0xE08 JUMP JUMPDEST PUSH1 0x40 MLOAD PUSH2 0x64B SWAP2 SWAP1 PUSH2 0x298F JUMP JUMPDEST PUSH1 0x40 MLOAD DUP1 SWAP2 SUB SWAP1 RETURN JUMPDEST PUSH2 0x65C PUSH2 0xE0D JUMP JUMPDEST PUSH1 0x40 MLOAD PUSH2 0x669 SWAP2 SWAP1 PUSH2 0x298F JUMP JUMPDEST PUSH1 0x40 MLOAD DUP1 SWAP2 SUB SWAP1 RETURN JUMPDEST PUSH2 0x67A PUSH2 0xE12 JUMP JUMPDEST PUSH1 0x40 MLOAD PUSH2 0x687 SWAP2 SWAP1 PUSH2 0x298F JUMP JUMPDEST PUSH1 0x40 MLOAD DUP1 SWAP2 SUB SWAP1 RETURN JUMPDEST PUSH2 0x698 PUSH2 0xE17 JUMP JUMPDEST PUSH1 0x40 MLOAD PUSH2 0x6A5 SWAP2 SWAP1 PUSH2 0x298F JUMP JUMPDEST PUSH1 0x40 MLOAD DUP1 SWAP2 SUB SWAP1 RETURN JUMPDEST PUSH2 0x6C8 PUSH1 0x4 DUP1 CALLDATASIZE SUB DUP2 ADD SWAP1 PUSH2 0x6C3 SWAP2 SWAP1 PUSH2 0x33B4 JUMP JUMPDEST PUSH2 0xE1C JUMP JUMPDEST PUSH1 0x40 MLOAD PUSH2 0x6D5 SWAP2 SWAP1 PUSH2 0x2A4A JUMP JUMPDEST PUSH1 0x40 MLOAD DUP1 SWAP2 SUB SWAP1 RETURN JUMPDEST PUSH2 0x6F8 PUSH1 0x4 DUP1 CALLDATASIZE SUB DUP2 ADD SWAP1 PUSH2 0x6F3 SWAP2 SWAP1 PUSH2 0x33F4 JUMP JUMPDEST PUSH2 0xEB0 JUMP JUMPDEST STOP JUMPDEST PUSH2 0x714 PUSH1 0x4 DUP1 CALLDATASIZE SUB DUP2 ADD SWAP1 PUSH2 0x70F SWAP2 SWAP1 PUSH2 0x348B JUMP JUMPDEST PUSH2 0xF51 JUMP JUMPDEST STOP JUMPDEST PUSH2 0x730 PUSH1 0x4 DUP1 CALLDATASIZE SUB DUP2 ADD SWAP1 PUSH2 0x72B SWAP2 SWAP1 PUSH2 0x34B8 JUMP JUMPDEST PUSH2 0xFD4 JUMP JUMPDEST STOP JUMPDEST PUSH2 0x73A PUSH2 0x1071 JUMP JUMPDEST PUSH1 0x40 MLOAD PUSH2 0x747 SWAP2 SWAP1 PUSH2 0x298F JUMP JUMPDEST PUSH1 0x40 MLOAD DUP1 SWAP2 SUB SWAP1 RETURN JUMPDEST PUSH1 0x0 DUP1 PUSH20 0xFFFFFFFFFFFFFFFFFFFFFFFFFFFFFFFFFFFFFFFF AND DUP4 PUSH20 0xFFFFFFFFFFFFFFFFFFFFFFFFFFFFFFFFFFFFFFFF AND SUB PUSH2 0x7C0 JUMPI PUSH1 0x40 MLOAD PUSH32 0x8C379A000000000000000000000000000000000000000000000000000000000 DUP2 MSTORE PUSH1 0x4 ADD PUSH2 0x7B7 SWAP1 PUSH2 0x357D JUMP JUMPDEST PUSH1 0x40 MLOAD DUP1 SWAP2 SUB SWAP1 REVERT JUMPDEST PUSH1 0x0 DUP1 DUP4 DUP2 MSTORE PUSH1 0x20 ADD SWAP1 DUP2 MSTORE PUSH1 0x20 ADD PUSH1 0x0 KECCAK256 PUSH1 0x0 DUP5 PUSH20 0xFFFFFFFFFFFFFFFFFFFFFFFFFFFFFFFFFFFFFFFF AND PUSH20 0xFFFFFFFFFFFFFFFFFFFFFFFFFFFFFFFFFFFFFFFF AND DUP2 MSTORE PUSH1 0x20 ADD SWAP1 DUP2 MSTORE PUSH1 0x20 ADD PUSH1 0x0 KECCAK256 SLOAD SWAP1 POP SWAP3 SWAP2 POP POP JUMP JUMPDEST PUSH1 0x0 PUSH32 0xD9B67A2600000000000000000000000000000000000000000000000000000000 PUSH28 0xFFFFFFFFFFFFFFFFFFFFFFFFFFFFFFFFFFFFFFFFFFFFFFFFFFFFFFFF NOT AND DUP3 PUSH28 0xFFFFFFFFFFFFFFFFFFFFFFFFFFFFFFFFFFFFFFFFFFFFFFFFFFFFFFFF NOT AND EQ DUP1 PUSH2 0x8E3 JUMPI POP PUSH32 0xE89341C00000000000000000000000000000000000000000000000000000000 PUSH28 0xFFFFFFFFFFFFFFFFFFFFFFFFFFFFFFFFFFFFFFFFFFFFFFFFFFFFFFFF NOT AND DUP3 PUSH28 0xFFFFFFFFFFFFFFFFFFFFFFFFFFFFFFFFFFFFFFFFFFFFFFFFFFFFFFFF NOT AND EQ JUMPDEST DUP1 PUSH2 0x8F3 JUMPI POP PUSH2 0x8F2 DUP3 PUSH2 0x1076 JUMP JUMPDEST JUMPDEST SWAP1 POP SWAP2 SWAP1 POP JUMP JUMPDEST PUSH2 0x902 PUSH2 0x10E0 JUMP JUMPDEST PUSH2 0x90B DUP2 PUSH2 0x115E JUMP JUMPDEST POP JUMP JUMPDEST PUSH1 0x3 DUP2 JUMP JUMPDEST PUSH1 0x60 PUSH1 0x2 DUP1 SLOAD PUSH2 0x922 SWAP1 PUSH2 0x35CC JUMP JUMPDEST DUP1 PUSH1 0x1F ADD PUSH1 0x20 DUP1 SWAP2 DIV MUL PUSH1 0x20 ADD PUSH1 0x40 MLOAD SWAP1 DUP2 ADD PUSH1 0x40 MSTORE DUP1 SWAP3 SWAP2 SWAP1 DUP2 DUP2 MSTORE PUSH1 0x20 ADD DUP3 DUP1 SLOAD PUSH2 0x94E SWAP1 PUSH2 0x35CC JUMP JUMPDEST DUP1 ISZERO PUSH2 0x99B JUMPI DUP1 PUSH1 0x1F LT PUSH2 0x970 JUMPI PUSH2 0x100 DUP1 DUP4 SLOAD DIV MUL DUP4 MSTORE SWAP2 PUSH1 0x20 ADD SWAP2 PUSH2 0x99B JUMP JUMPDEST DUP3 ADD SWAP2 SWAP1 PUSH1 0x0 MSTORE PUSH1 0x20 PUSH1 0x0 KECCAK256 SWAP1 JUMPDEST DUP2 SLOAD DUP2 MSTORE SWAP1 PUSH1 0x1 ADD SWAP1 PUSH1 0x20 ADD DUP1 DUP4 GT PUSH2 0x97E JUMPI DUP3 SWAP1 SUB PUSH1 0x1F AND DUP3 ADD SWAP2 JUMPDEST POP POP POP POP POP SWAP1 POP SWAP2 SWAP1 POP JUMP JUMPDEST PUSH1 0xB DUP2 JUMP JUMPDEST PUSH2 0x9B4 PUSH2 0x10E0 JUMP JUMPDEST PUSH2 0x9C0 DUP5 DUP5 DUP5 DUP5 PUSH2 0x1171 JUMP JUMPDEST POP POP POP POP JUMP JUMPDEST PUSH2 0x9CE PUSH2 0x139D JUMP JUMPDEST PUSH20 0xFFFFFFFFFFFFFFFFFFFFFFFFFFFFFFFFFFFFFFFF AND DUP6 PUSH20 0xFFFFFFFFFFFFFFFFFFFFFFFFFFFFFFFFFFFFFFFF AND EQ DUP1 PUSH2 0xA14 JUMPI POP PUSH2 0xA13 DUP6 PUSH2 0xA0E PUSH2 0x139D JUMP JUMPDEST PUSH2 0xE1C JUMP JUMPDEST JUMPDEST PUSH2 0xA53 JUMPI PUSH1 0x40 MLOAD PUSH32 0x8C379A000000000000000000000000000000000000000000000000000000000 DUP2 MSTORE PUSH1 0x4 ADD PUSH2 0xA4A SWAP1 PUSH2 0x366F JUMP JUMPDEST PUSH1 0x40 MLOAD DUP1 SWAP2 SUB SWAP1 REVERT JUMPDEST PUSH2 0xA60 DUP6 DUP6 DUP6 DUP6 DUP6 PUSH2 0x13A5 JUMP JUMPDEST POP POP POP POP POP JUMP JUMPDEST PUSH1 0xE DUP2 JUMP JUMPDEST PUSH1 0xA DUP2 JUMP JUMPDEST PUSH1 0x11 DUP2 JUMP JUMPDEST PUSH1 0x6 DUP2 JUMP JUMPDEST PUSH1 0x60 DUP2 MLOAD DUP4 MLOAD EQ PUSH2 0xAC1 JUMPI PUSH1 0x40 MLOAD PUSH32 0x8C379A000000000000000000000000000000000000000000000000000000000 DUP2 MSTORE PUSH1 0x4 ADD PUSH2 0xAB8 SWAP1 PUSH2 0x3701 JUMP JUMPDEST PUSH1 0x40 MLOAD DUP1 SWAP2 SUB SWAP1 REVERT JUMPDEST PUSH1 0x0 DUP4 MLOAD PUSH8 0xFFFFFFFFFFFFFFFF DUP2 GT ISZERO PUSH2 0xADE JUMPI PUSH2 0xADD PUSH2 0x2A80 JUMP JUMPDEST JUMPDEST PUSH1 0x40 MLOAD SWAP1 DUP1 DUP3 MSTORE DUP1 PUSH1 0x20 MUL PUSH1 0x20 ADD DUP3 ADD PUSH1 0x40 MSTORE DUP1 ISZERO PUSH2 0xB0C JUMPI DUP2 PUSH1 0x20 ADD PUSH1 0x20 DUP3 MUL DUP1 CALLDATASIZE DUP4 CALLDATACOPY DUP1 DUP3 ADD SWAP2 POP POP SWAP1 POP JUMPDEST POP SWAP1 POP PUSH1 0x0 JUMPDEST DUP5 MLOAD DUP2 LT ISZERO PUSH2 0xB89 JUMPI PUSH2 0xB59 DUP6 DUP3 DUP2 MLOAD DUP2 LT PUSH2 0xB31 JUMPI PUSH2 0xB30 PUSH2 0x3721 JUMP JUMPDEST JUMPDEST PUSH1 0x20 MUL PUSH1 0x20 ADD ADD MLOAD DUP6 DUP4 DUP2 MLOAD DUP2 LT PUSH2 0xB4C JUMPI PUSH2 0xB4B PUSH2 0x3721 JUMP JUMPDEST JUMPDEST PUSH1 0x20 MUL PUSH1 0x20 ADD ADD MLOAD PUSH2 0x750 JUMP JUMPDEST DUP3 DUP3 DUP2 MLOAD DUP2 LT PUSH2 0xB6C JUMPI PUSH2 0xB6B PUSH2 0x3721 JUMP JUMPDEST JUMPDEST PUSH1 0x20 MUL PUSH1 0x20 ADD ADD DUP2 DUP2 MSTORE POP POP DUP1 PUSH2 0xB82 SWAP1 PUSH2 0x377F JUMP JUMPDEST SWAP1 POP PUSH2 0xB12 JUMP JUMPDEST POP DUP1 SWAP2 POP POP SWAP3 SWAP2 POP POP JUMP JUMPDEST PUSH1 0x0 DUP1 PUSH2 0xBA0 DUP4 PUSH2 0xDE6 JUMP JUMPDEST GT SWAP1 POP SWAP2 SWAP1 POP JUMP JUMPDEST PUSH1 0xD DUP2 JUMP JUMPDEST PUSH1 0xF DUP2 JUMP JUMPDEST PUSH1 0x1 DUP2 JUMP JUMPDEST PUSH2 0xBBF PUSH2 0x139D JUMP JUMPDEST PUSH20 0xFFFFFFFFFFFFFFFFFFFFFFFFFFFFFFFFFFFFFFFF AND DUP4 PUSH20 0xFFFFFFFFFFFFFFFFFFFFFFFFFFFFFFFFFFFFFFFF AND EQ DUP1 PUSH2 0xC05 JUMPI POP PUSH2 0xC04 DUP4 PUSH2 0xBFF PUSH2 0x139D JUMP JUMPDEST PUSH2 0xE1C JUMP JUMPDEST JUMPDEST PUSH2 0xC44 JUMPI PUSH1 0x40 MLOAD PUSH32 0x8C379A000000000000000000000000000000000000000000000000000000000 DUP2 MSTORE PUSH1 0x4 ADD PUSH2 0xC3B SWAP1 PUSH2 0x366F JUMP JUMPDEST PUSH1 0x40 MLOAD DUP1 SWAP2 SUB SWAP1 REVERT JUMPDEST PUSH2 0xC4F DUP4 DUP4 DUP4 PUSH2 0x16C6 JUMP JUMPDEST POP POP POP JUMP JUMPDEST PUSH1 0x4 DUP2 JUMP JUMPDEST PUSH2 0xC61 PUSH2 0x10E0 JUMP JUMPDEST PUSH2 0xC6B PUSH1 0x0 PUSH2 0x1994 JUMP JUMPDEST JUMP JUMPDEST PUSH2 0xC75 PUSH2 0x10E0 JUMP JUMPDEST PUSH2 0xC81 DUP5 DUP5 DUP5 DUP5 PUSH2 0x1A5A JUMP JUMPDEST POP POP POP POP JUMP JUMPDEST PUSH1 0x2 DUP2 JUMP JUMPDEST PUSH1 0x9 DUP2 JUMP JUMPDEST PUSH1 0x0 PUSH1 0x3 PUSH1 0x0 SWAP1 SLOAD SWAP1 PUSH2 0x100 EXP SWAP1 DIV PUSH20 0xFFFFFFFFFFFFFFFFFFFFFFFFFFFFFFFFFFFFFFFF AND SWAP1 POP SWAP1 JUMP JUMPDEST PUSH1 0x14 DUP3 SUB PUSH2 0xD41 JUMPI DUP1 PUSH2 0xCCF CALLER PUSH1 0xF PUSH2 0x750 JUMP JUMPDEST GT DUP1 ISZERO PUSH2 0xCE5 JUMPI POP DUP1 PUSH2 0xCE3 CALLER PUSH1 0x10 PUSH2 0x750 JUMP JUMPDEST GT JUMPDEST PUSH2 0xD24 JUMPI PUSH1 0x40 MLOAD PUSH32 0x8C379A000000000000000000000000000000000000000000000000000000000 DUP2 MSTORE PUSH1 0x4 ADD PUSH2 0xD1B SWAP1 PUSH2 0x3813 JUMP JUMPDEST PUSH1 0x40 MLOAD DUP1 SWAP2 SUB SWAP1 REVERT JUMPDEST PUSH2 0xD40 CALLER PUSH1 0x14 DUP4 PUSH1 0x40 MLOAD DUP1 PUSH1 0x20 ADD PUSH1 0x40 MSTORE DUP1 PUSH1 0x0 DUP2 MSTORE POP PUSH2 0xC6D JUMP JUMPDEST JUMPDEST POP POP JUMP JUMPDEST PUSH2 0xD57 PUSH2 0xD50 PUSH2 0x139D JUMP JUMPDEST DUP4 DUP4 PUSH2 0x1C0A JUMP JUMPDEST POP POP JUMP JUMPDEST PUSH1 0x8 DUP3 SUB PUSH2 0xDD8 JUMPI DUP1 PUSH1 0x2 PUSH2 0xD70 SWAP2 SWAP1 PUSH2 0x3833 JUMP JUMPDEST PUSH2 0xD7B CALLER PUSH1 0x14 PUSH2 0x750 JUMP JUMPDEST GT PUSH2 0xDBB JUMPI PUSH1 0x40 MLOAD PUSH32 0x8C379A000000000000000000000000000000000000000000000000000000000 DUP2 MSTORE PUSH1 0x4 ADD PUSH2 0xDB2 SWAP1 PUSH2 0x3813 JUMP JUMPDEST PUSH1 0x40 MLOAD DUP1 SWAP2 SUB SWAP1 REVERT JUMPDEST PUSH2 0xDD7 CALLER PUSH1 0x8 DUP4 PUSH1 0x40 MLOAD DUP1 PUSH1 0x20 ADD PUSH1 0x40 MSTORE DUP1 PUSH1 0x0 DUP2 MSTORE POP PUSH2 0xC6D JUMP JUMPDEST JUMPDEST POP POP JUMP JUMPDEST PUSH1 0x8 DUP2 JUMP JUMPDEST PUSH1 0x10 DUP2 JUMP JUMPDEST PUSH1 0x0 PUSH1 0x4 PUSH1 0x0 DUP4 DUP2 MSTORE PUSH1 0x20 ADD SWAP1 DUP2 MSTORE PUSH1 0x20 ADD PUSH1 0x0 KECCAK256 SLOAD SWAP1 POP SWAP2 SWAP1 POP JUMP JUMPDEST PUSH1 0x13 DUP2 JUMP JUMPDEST PUSH1 0x12 DUP2 JUMP JUMPDEST PUSH1 0x14 DUP2 JUMP JUMPDEST PUSH1 0x7 DUP2 JUMP JUMPDEST PUSH1 0xC DUP2 JUMP JUMPDEST PUSH1 0x0 PUSH1 0x1 PUSH1 0x0 DUP5 PUSH20 0xFFFFFFFFFFFFFFFFFFFFFFFFFFFFFFFFFFFFFFFF AND PUSH20 0xFFFFFFFFFFFFFFFFFFFFFFFFFFFFFFFFFFFFFFFF AND DUP2 MSTORE PUSH1 0x20 ADD SWAP1 DUP2 MSTORE PUSH1 0x20 ADD PUSH1 0x0 KECCAK256 PUSH1 0x0 DUP4 PUSH20 0xFFFFFFFFFFFFFFFFFFFFFFFFFFFFFFFFFFFFFFFF AND PUSH20 0xFFFFFFFFFFFFFFFFFFFFFFFFFFFFFFFFFFFFFFFF AND DUP2 MSTORE PUSH1 0x20 ADD SWAP1 DUP2 MSTORE PUSH1 0x20 ADD PUSH1 0x0 KECCAK256 PUSH1 0x0 SWAP1 SLOAD SWAP1 PUSH2 0x100 EXP SWAP1 DIV PUSH1 0xFF AND SWAP1 POP SWAP3 SWAP2 POP POP JUMP JUMPDEST PUSH2 0xEB8 PUSH2 0x139D JUMP JUMPDEST PUSH20 0xFFFFFFFFFFFFFFFFFFFFFFFFFFFFFFFFFFFFFFFF AND DUP6 PUSH20 0xFFFFFFFFFFFFFFFFFFFFFFFFFFFFFFFFFFFFFFFF AND EQ DUP1 PUSH2 0xEFE JUMPI POP PUSH2 0xEFD DUP6 PUSH2 0xEF8 PUSH2 0x139D JUMP JUMPDEST PUSH2 0xE1C JUMP JUMPDEST JUMPDEST PUSH2 0xF3D JUMPI PUSH1 0x40 MLOAD PUSH32 0x8C379A000000000000000000000000000000000000000000000000000000000 DUP2 MSTORE PUSH1 0x4 ADD PUSH2 0xF34 SWAP1 PUSH2 0x366F JUMP JUMPDEST PUSH1 0x40 MLOAD DUP1 SWAP2 SUB SWAP1 REVERT JUMPDEST PUSH2 0xF4A DUP6 DUP6 DUP6 DUP6 DUP6 PUSH2 0x1D76 JUMP JUMPDEST POP POP POP POP POP JUMP JUMPDEST PUSH2 0xF59 PUSH2 0x10E0 JUMP JUMPDEST PUSH1 0x0 PUSH20 0xFFFFFFFFFFFFFFFFFFFFFFFFFFFFFFFFFFFFFFFF AND DUP2 PUSH20 0xFFFFFFFFFFFFFFFFFFFFFFFFFFFFFFFFFFFFFFFF AND SUB PUSH2 0xFC8 JUMPI PUSH1 0x40 MLOAD PUSH32 0x8C379A000000000000000000000000000000000000000000000000000000000 DUP2 MSTORE PUSH1 0x4 ADD PUSH2 0xFBF SWAP1 PUSH2 0x38E7 JUMP JUMPDEST PUSH1 0x40 MLOAD DUP1 SWAP2 SUB SWAP1 REVERT JUMPDEST PUSH2 0xFD1 DUP2 PUSH2 0x1994 JUMP JUMPDEST POP JUMP JUMPDEST PUSH2 0xFDC PUSH2 0x139D JUMP JUMPDEST PUSH20 0xFFFFFFFFFFFFFFFFFFFFFFFFFFFFFFFFFFFFFFFF AND DUP4 PUSH20 0xFFFFFFFFFFFFFFFFFFFFFFFFFFFFFFFFFFFFFFFF AND EQ DUP1 PUSH2 0x1022 JUMPI POP PUSH2 0x1021 DUP4 PUSH2 0x101C PUSH2 0x139D JUMP JUMPDEST PUSH2 0xE1C JUMP JUMPDEST JUMPDEST PUSH2 0x1061 JUMPI PUSH1 0x40 MLOAD PUSH32 0x8C379A000000000000000000000000000000000000000000000000000000000 DUP2 MSTORE PUSH1 0x4 ADD PUSH2 0x1058 SWAP1 PUSH2 0x366F JUMP JUMPDEST PUSH1 0x40 MLOAD DUP1 SWAP2 SUB SWAP1 REVERT JUMPDEST PUSH2 0x106C DUP4 DUP4 DUP4 PUSH2 0x2011 JUMP JUMPDEST POP POP POP JUMP JUMPDEST PUSH1 0x5 DUP2 JUMP JUMPDEST PUSH1 0x0 PUSH32 0x1FFC9A700000000000000000000000000000000000000000000000000000000 PUSH28 0xFFFFFFFFFFFFFFFFFFFFFFFFFFFFFFFFFFFFFFFFFFFFFFFFFFFFFFFF NOT AND DUP3 PUSH28 0xFFFFFFFFFFFFFFFFFFFFFFFFFFFFFFFFFFFFFFFFFFFFFFFFFFFFFFFF NOT AND EQ SWAP1 POP SWAP2 SWAP1 POP JUMP JUMPDEST PUSH2 0x10E8 PUSH2 0x139D JUMP JUMPDEST PUSH20 0xFFFFFFFFFFFFFFFFFFFFFFFFFFFFFFFFFFFFFFFF AND PUSH2 0x1106 PUSH2 0xC91 JUMP JUMPDEST PUSH20 0xFFFFFFFFFFFFFFFFFFFFFFFFFFFFFFFFFFFFFFFF AND EQ PUSH2 0x115C JUMPI PUSH1 0x40 MLOAD PUSH32 0x8C379A000000000000000000000000000000000000000000000000000000000 DUP2 MSTORE PUSH1 0x4 ADD PUSH2 0x1153 SWAP1 PUSH2 0x3953 JUMP JUMPDEST PUSH1 0x40 MLOAD DUP1 SWAP2 SUB SWAP1 REVERT JUMPDEST JUMP JUMPDEST DUP1 PUSH1 0x2 SWAP1 DUP2 PUSH2 0x116D SWAP2 SWAP1 PUSH2 0x3B1F JUMP JUMPDEST POP POP JUMP JUMPDEST PUSH1 0x0 PUSH20 0xFFFFFFFFFFFFFFFFFFFFFFFFFFFFFFFFFFFFFFFF AND DUP5 PUSH20 0xFFFFFFFFFFFFFFFFFFFFFFFFFFFFFFFFFFFFFFFF AND SUB PUSH2 0x11E0 JUMPI PUSH1 0x40 MLOAD PUSH32 0x8C379A000000000000000000000000000000000000000000000000000000000 DUP2 MSTORE PUSH1 0x4 ADD PUSH2 0x11D7 SWAP1 PUSH2 0x3C63 JUMP JUMPDEST PUSH1 0x40 MLOAD DUP1 SWAP2 SUB SWAP1 REVERT JUMPDEST DUP2 MLOAD DUP4 MLOAD EQ PUSH2 0x1224 JUMPI PUSH1 0x40 MLOAD PUSH32 0x8C379A000000000000000000000000000000000000000000000000000000000 DUP2 MSTORE PUSH1 0x4 ADD PUSH2 0x121B SWAP1 PUSH2 0x3CF5 JUMP JUMPDEST PUSH1 0x40 MLOAD DUP1 SWAP2 SUB SWAP1 REVERT JUMPDEST PUSH1 0x0 PUSH2 0x122E PUSH2 0x139D JUMP JUMPDEST SWAP1 POP PUSH2 0x123F DUP2 PUSH1 0x0 DUP8 DUP8 DUP8 DUP8 PUSH2 0x2257 JUMP JUMPDEST PUSH1 0x0 JUMPDEST DUP5 MLOAD DUP2 LT ISZERO PUSH2 0x12F8 JUMPI DUP4 DUP2 DUP2 MLOAD DUP2 LT PUSH2 0x125E JUMPI PUSH2 0x125D PUSH2 0x3721 JUMP JUMPDEST JUMPDEST PUSH1 0x20 MUL PUSH1 0x20 ADD ADD MLOAD PUSH1 0x0 DUP1 DUP8 DUP5 DUP2 MLOAD DUP2 LT PUSH2 0x127C JUMPI PUSH2 0x127B PUSH2 0x3721 JUMP JUMPDEST JUMPDEST PUSH1 0x20 MUL PUSH1 0x20 ADD ADD MLOAD DUP2 MSTORE PUSH1 0x20 ADD SWAP1 DUP2 MSTORE PUSH1 0x20 ADD PUSH1 0x0 KECCAK256 PUSH1 0x0 DUP9 PUSH20 0xFFFFFFFFFFFFFFFFFFFFFFFFFFFFFFFFFFFFFFFF AND PUSH20 0xFFFFFFFFFFFFFFFFFFFFFFFFFFFFFFFFFFFFFFFF AND DUP2 MSTORE PUSH1 0x20 ADD SWAP1 DUP2 MSTORE PUSH1 0x20 ADD PUSH1 0x0 KECCAK256 PUSH1 0x0 DUP3 DUP3 SLOAD PUSH2 0x12DE SWAP2 SWAP1 PUSH2 0x3D15 JUMP JUMPDEST SWAP3 POP POP DUP2 SWAP1 SSTORE POP DUP1 DUP1 PUSH2 0x12F0 SWAP1 PUSH2 0x377F JUMP JUMPDEST SWAP2 POP POP PUSH2 0x1242 JUMP JUMPDEST POP DUP5 PUSH20 0xFFFFFFFFFFFFFFFFFFFFFFFFFFFFFFFFFFFFFFFF AND PUSH1 0x0 PUSH20 0xFFFFFFFFFFFFFFFFFFFFFFFFFFFFFFFFFFFFFFFF AND DUP3 PUSH20 0xFFFFFFFFFFFFFFFFFFFFFFFFFFFFFFFFFFFFFFFF AND PUSH32 0x4A39DC06D4C0DBC64B70AF90FD698A233A518AA5D07E595D983B8C0526C8F7FB DUP8 DUP8 PUSH1 0x40 MLOAD PUSH2 0x1370 SWAP3 SWAP2 SWAP1 PUSH2 0x3D49 JUMP JUMPDEST PUSH1 0x40 MLOAD DUP1 SWAP2 SUB SWAP1 LOG4 PUSH2 0x1387 DUP2 PUSH1 0x0 DUP8 DUP8 DUP8 DUP8 PUSH2 0x226D JUMP JUMPDEST PUSH2 0x1396 DUP2 PUSH1 0x0 DUP8 DUP8 DUP8 DUP8 PUSH2 0x2275 JUMP JUMPDEST POP POP POP POP POP JUMP JUMPDEST PUSH1 0x0 CALLER SWAP1 POP SWAP1 JUMP JUMPDEST DUP2 MLOAD DUP4 MLOAD EQ PUSH2 0x13E9 JUMPI PUSH1 0x40 MLOAD PUSH32 0x8C379A000000000000000000000000000000000000000000000000000000000 DUP2 MSTORE PUSH1 0x4 ADD PUSH2 0x13E0 SWAP1 PUSH2 0x3CF5 JUMP JUMPDEST PUSH1 0x40 MLOAD DUP1 SWAP2 SUB SWAP1 REVERT JUMPDEST PUSH1 0x0 PUSH20 0xFFFFFFFFFFFFFFFFFFFFFFFFFFFFFFFFFFFFFFFF AND DUP5 PUSH20 0xFFFFFFFFFFFFFFFFFFFFFFFFFFFFFFFFFFFFFFFF AND SUB PUSH2 0x1458 JUMPI PUSH1 0x40 MLOAD PUSH32 0x8C379A000000000000000000000000000000000000000000000000000000000 DUP2 MSTORE PUSH1 0x4 ADD PUSH2 0x144F SWAP1 PUSH2 0x3DF2 JUMP JUMPDEST PUSH1 0x40 MLOAD DUP1 SWAP2 SUB SWAP1 REVERT JUMPDEST PUSH1 0x0 PUSH2 0x1462 PUSH2 0x139D JUMP JUMPDEST SWAP1 POP PUSH2 0x1472 DUP2 DUP8 DUP8 DUP8 DUP8 DUP8 PUSH2 0x2257 JUMP JUMPDEST PUSH1 0x0 JUMPDEST DUP5 MLOAD DUP2 LT ISZERO PUSH2 0x1623 JUMPI PUSH1 0x0 DUP6 DUP3 DUP2 MLOAD DUP2 LT PUSH2 0x1493 JUMPI PUSH2 0x1492 PUSH2 0x3721 JUMP JUMPDEST JUMPDEST PUSH1 0x20 MUL PUSH1 0x20 ADD ADD MLOAD SWAP1 POP PUSH1 0x0 DUP6 DUP4 DUP2 MLOAD DUP2 LT PUSH2 0x14B2 JUMPI PUSH2 0x14B1 PUSH2 0x3721 JUMP JUMPDEST JUMPDEST PUSH1 0x20 MUL PUSH1 0x20 ADD ADD MLOAD SWAP1 POP PUSH1 0x0 DUP1 PUSH1 0x0 DUP5 DUP2 MSTORE PUSH1 0x20 ADD SWAP1 DUP2 MSTORE PUSH1 0x20 ADD PUSH1 0x0 KECCAK256 PUSH1 0x0 DUP12 PUSH20 0xFFFFFFFFFFFFFFFFFFFFFFFFFFFFFFFFFFFFFFFF AND PUSH20 0xFFFFFFFFFFFFFFFFFFFFFFFFFFFFFFFFFFFFFFFF AND DUP2 MSTORE PUSH1 0x20 ADD SWAP1 DUP2 MSTORE PUSH1 0x20 ADD PUSH1 0x0 KECCAK256 SLOAD SWAP1 POP DUP2 DUP2 LT ISZERO PUSH2 0x1553 JUMPI PUSH1 0x40 MLOAD PUSH32 0x8C379A000000000000000000000000000000000000000000000000000000000 DUP2 MSTORE PUSH1 0x4 ADD PUSH2 0x154A SWAP1 PUSH2 0x3E84 JUMP JUMPDEST PUSH1 0x40 MLOAD DUP1 SWAP2 SUB SWAP1 REVERT JUMPDEST DUP2 DUP2 SUB PUSH1 0x0 DUP1 DUP6 DUP2 MSTORE PUSH1 0x20 ADD SWAP1 DUP2 MSTORE PUSH1 0x20 ADD PUSH1 0x0 KECCAK256 PUSH1 0x0 DUP13 PUSH20 0xFFFFFFFFFFFFFFFFFFFFFFFFFFFFFFFFFFFFFFFF AND PUSH20 0xFFFFFFFFFFFFFFFFFFFFFFFFFFFFFFFFFFFFFFFF AND DUP2 MSTORE PUSH1 0x20 ADD SWAP1 DUP2 MSTORE PUSH1 0x20 ADD PUSH1 0x0 KECCAK256 DUP2 SWAP1 SSTORE POP DUP2 PUSH1 0x0 DUP1 DUP6 DUP2 MSTORE PUSH1 0x20 ADD SWAP1 DUP2 MSTORE PUSH1 0x20 ADD PUSH1 0x0 KECCAK256 PUSH1 0x0 DUP12 PUSH20 0xFFFFFFFFFFFFFFFFFFFFFFFFFFFFFFFFFFFFFFFF AND PUSH20 0xFFFFFFFFFFFFFFFFFFFFFFFFFFFFFFFFFFFFFFFF AND DUP2 MSTORE PUSH1 0x20 ADD SWAP1 DUP2 MSTORE PUSH1 0x20 ADD PUSH1 0x0 KECCAK256 PUSH1 0x0 DUP3 DUP3 SLOAD PUSH2 0x1608 SWAP2 SWAP1 PUSH2 0x3D15 JUMP JUMPDEST SWAP3 POP POP DUP2 SWAP1 SSTORE POP POP POP POP DUP1 PUSH2 0x161C SWAP1 PUSH2 0x377F JUMP JUMPDEST SWAP1 POP PUSH2 0x1475 JUMP JUMPDEST POP DUP5 PUSH20 0xFFFFFFFFFFFFFFFFFFFFFFFFFFFFFFFFFFFFFFFF AND DUP7 PUSH20 0xFFFFFFFFFFFFFFFFFFFFFFFFFFFFFFFFFFFFFFFF AND DUP3 PUSH20 0xFFFFFFFFFFFFFFFFFFFFFFFFFFFFFFFFFFFFFFFF AND PUSH32 0x4A39DC06D4C0DBC64B70AF90FD698A233A518AA5D07E595D983B8C0526C8F7FB DUP8 DUP8 PUSH1 0x40 MLOAD PUSH2 0x169A SWAP3 SWAP2 SWAP1 PUSH2 0x3D49 JUMP JUMPDEST PUSH1 0x40 MLOAD DUP1 SWAP2 SUB SWAP1 LOG4 PUSH2 0x16B0 DUP2 DUP8 DUP8 DUP8 DUP8 DUP8 PUSH2 0x226D JUMP JUMPDEST PUSH2 0x16BE DUP2 DUP8 DUP8 DUP8 DUP8 DUP8 PUSH2 0x2275 JUMP JUMPDEST POP POP POP POP POP POP JUMP JUMPDEST PUSH1 0x0 PUSH20 0xFFFFFFFFFFFFFFFFFFFFFFFFFFFFFFFFFFFFFFFF AND DUP4 PUSH20 0xFFFFFFFFFFFFFFFFFFFFFFFFFFFFFFFFFFFFFFFF AND SUB PUSH2 0x1735 JUMPI PUSH1 0x40 MLOAD PUSH32 0x8C379A000000000000000000000000000000000000000000000000000000000 DUP2 MSTORE PUSH1 0x4 ADD PUSH2 0x172C SWAP1 PUSH2 0x3F16 JUMP JUMPDEST PUSH1 0x40 MLOAD DUP1 SWAP2 SUB SWAP1 REVERT JUMPDEST DUP1 MLOAD DUP3 MLOAD EQ PUSH2 0x1779 JUMPI PUSH1 0x40 MLOAD PUSH32 0x8C379A000000000000000000000000000000000000000000000000000000000 DUP2 MSTORE PUSH1 0x4 ADD PUSH2 0x1770 SWAP1 PUSH2 0x3CF5 JUMP JUMPDEST PUSH1 0x40 MLOAD DUP1 SWAP2 SUB SWAP1 REVERT JUMPDEST PUSH1 0x0 PUSH2 0x1783 PUSH2 0x139D JUMP JUMPDEST SWAP1 POP PUSH2 0x17A3 DUP2 DUP6 PUSH1 0x0 DUP7 DUP7 PUSH1 0x40 MLOAD DUP1 PUSH1 0x20 ADD PUSH1 0x40 MSTORE DUP1 PUSH1 0x0 DUP2 MSTORE POP PUSH2 0x2257 JUMP JUMPDEST PUSH1 0x0 JUMPDEST DUP4 MLOAD DUP2 LT ISZERO PUSH2 0x18F0 JUMPI PUSH1 0x0 DUP5 DUP3 DUP2 MLOAD DUP2 LT PUSH2 0x17C4 JUMPI PUSH2 0x17C3 PUSH2 0x3721 JUMP JUMPDEST JUMPDEST PUSH1 0x20 MUL PUSH1 0x20 ADD ADD MLOAD SWAP1 POP PUSH1 0x0 DUP5 DUP4 DUP2 MLOAD DUP2 LT PUSH2 0x17E3 JUMPI PUSH2 0x17E2 PUSH2 0x3721 JUMP JUMPDEST JUMPDEST PUSH1 0x20 MUL PUSH1 0x20 ADD ADD MLOAD SWAP1 POP PUSH1 0x0 DUP1 PUSH1 0x0 DUP5 DUP2 MSTORE PUSH1 0x20 ADD SWAP1 DUP2 MSTORE PUSH1 0x20 ADD PUSH1 0x0 KECCAK256 PUSH1 0x0 DUP10 PUSH20 0xFFFFFFFFFFFFFFFFFFFFFFFFFFFFFFFFFFFFFFFF AND PUSH20 0xFFFFFFFFFFFFFFFFFFFFFFFFFFFFFFFFFFFFFFFF AND DUP2 MSTORE PUSH1 0x20 ADD SWAP1 DUP2 MSTORE PUSH1 0x20 ADD PUSH1 0x0 KECCAK256 SLOAD SWAP1 POP DUP2 DUP2 LT ISZERO PUSH2 0x1884 JUMPI PUSH1 0x40 MLOAD PUSH32 0x8C379A000000000000000000000000000000000000000000000000000000000 DUP2 MSTORE PUSH1 0x4 ADD PUSH2 0x187B SWAP1 PUSH2 0x3FA8 JUMP JUMPDEST PUSH1 0x40 MLOAD DUP1 SWAP2 SUB SWAP1 REVERT JUMPDEST DUP2 DUP2 SUB PUSH1 0x0 DUP1 DUP6 DUP2 MSTORE PUSH1 0x20 ADD SWAP1 DUP2 MSTORE PUSH1 0x20 ADD PUSH1 0x0 KECCAK256 PUSH1 0x0 DUP11 PUSH20 0xFFFFFFFFFFFFFFFFFFFFFFFFFFFFFFFFFFFFFFFF AND PUSH20 0xFFFFFFFFFFFFFFFFFFFFFFFFFFFFFFFFFFFFFFFF AND DUP2 MSTORE PUSH1 0x20 ADD SWAP1 DUP2 MSTORE PUSH1 0x20 ADD PUSH1 0x0 KECCAK256 DUP2 SWAP1 SSTORE POP POP POP POP DUP1 DUP1 PUSH2 0x18E8 SWAP1 PUSH2 0x377F JUMP JUMPDEST SWAP2 POP POP PUSH2 0x17A6 JUMP JUMPDEST POP PUSH1 0x0 PUSH20 0xFFFFFFFFFFFFFFFFFFFFFFFFFFFFFFFFFFFFFFFF AND DUP5 PUSH20 0xFFFFFFFFFFFFFFFFFFFFFFFFFFFFFFFFFFFFFFFF AND DUP3 PUSH20 0xFFFFFFFFFFFFFFFFFFFFFFFFFFFFFFFFFFFFFFFF AND PUSH32 0x4A39DC06D4C0DBC64B70AF90FD698A233A518AA5D07E595D983B8C0526C8F7FB DUP7 DUP7 PUSH1 0x40 MLOAD PUSH2 0x1968 SWAP3 SWAP2 SWAP1 PUSH2 0x3D49 JUMP JUMPDEST PUSH1 0x40 MLOAD DUP1 SWAP2 SUB SWAP1 LOG4 PUSH2 0x198E DUP2 DUP6 PUSH1 0x0 DUP7 DUP7 PUSH1 0x40 MLOAD DUP1 PUSH1 0x20 ADD PUSH1 0x40 MSTORE DUP1 PUSH1 0x0 DUP2 MSTORE POP PUSH2 0x226D JUMP JUMPDEST POP POP POP POP JUMP JUMPDEST PUSH1 0x0 PUSH1 0x3 PUSH1 0x0 SWAP1 SLOAD SWAP1 PUSH2 0x100 EXP SWAP1 DIV PUSH20 0xFFFFFFFFFFFFFFFFFFFFFFFFFFFFFFFFFFFFFFFF AND SWAP1 POP DUP2 PUSH1 0x3 PUSH1 0x0 PUSH2 0x100 EXP DUP2 SLOAD DUP2 PUSH20 0xFFFFFFFFFFFFFFFFFFFFFFFFFFFFFFFFFFFFFFFF MUL NOT AND SWAP1 DUP4 PUSH20 0xFFFFFFFFFFFFFFFFFFFFFFFFFFFFFFFFFFFFFFFF AND MUL OR SWAP1 SSTORE POP DUP2 PUSH20 0xFFFFFFFFFFFFFFFFFFFFFFFFFFFFFFFFFFFFFFFF AND DUP2 PUSH20 0xFFFFFFFFFFFFFFFFFFFFFFFFFFFFFFFFFFFFFFFF AND PUSH32 0x8BE0079C531659141344CD1FD0A4F28419497F9722A3DAAFE3B4186F6B6457E0 PUSH1 0x40 MLOAD PUSH1 0x40 MLOAD DUP1 SWAP2 SUB SWAP1 LOG3 POP POP JUMP JUMPDEST PUSH1 0x0 PUSH20 0xFFFFFFFFFFFFFFFFFFFFFFFFFFFFFFFFFFFFFFFF AND DUP5 PUSH20 0xFFFFFFFFFFFFFFFFFFFFFFFFFFFFFFFFFFFFFFFF AND SUB PUSH2 0x1AC9 JUMPI PUSH1 0x40 MLOAD PUSH32 0x8C379A000000000000000000000000000000000000000000000000000000000 DUP2 MSTORE PUSH1 0x4 ADD PUSH2 0x1AC0 SWAP1 PUSH2 0x3C63 JUMP JUMPDEST PUSH1 0x40 MLOAD DUP1 SWAP2 SUB SWAP1 REVERT JUMPDEST PUSH1 0x0 PUSH2 0x1AD3 PUSH2 0x139D JUMP JUMPDEST SWAP1 POP PUSH1 0x0 PUSH2 0x1AE0 DUP6 PUSH2 0x244C JUMP JUMPDEST SWAP1 POP PUSH1 0x0 PUSH2 0x1AED DUP6 PUSH2 0x244C JUMP JUMPDEST SWAP1 POP PUSH2 0x1AFE DUP4 PUSH1 0x0 DUP10 DUP6 DUP6 DUP10 PUSH2 0x2257 JUMP JUMPDEST DUP5 PUSH1 0x0 DUP1 DUP9 DUP2 MSTORE PUSH1 0x20 ADD SWAP1 DUP2 MSTORE PUSH1 0x20 ADD PUSH1 0x0 KECCAK256 PUSH1 0x0 DUP10 PUSH20 0xFFFFFFFFFFFFFFFFFFFFFFFFFFFFFFFFFFFFFFFF AND PUSH20 0xFFFFFFFFFFFFFFFFFFFFFFFFFFFFFFFFFFFFFFFF AND DUP2 MSTORE PUSH1 0x20 ADD SWAP1 DUP2 MSTORE PUSH1 0x20 ADD PUSH1 0x0 KECCAK256 PUSH1 0x0 DUP3 DUP3 SLOAD PUSH2 0x1B5D SWAP2 SWAP1 PUSH2 0x3D15 JUMP JUMPDEST SWAP3 POP POP DUP2 SWAP1 SSTORE POP DUP7 PUSH20 0xFFFFFFFFFFFFFFFFFFFFFFFFFFFFFFFFFFFFFFFF AND PUSH1 0x0 PUSH20 0xFFFFFFFFFFFFFFFFFFFFFFFFFFFFFFFFFFFFFFFF AND DUP5 PUSH20 0xFFFFFFFFFFFFFFFFFFFFFFFFFFFFFFFFFFFFFFFF AND PUSH32 0xC3D58168C5AE7397731D063D5BBF3D657854427343F4C083240F7AACAA2D0F62 DUP10 DUP10 PUSH1 0x40 MLOAD PUSH2 0x1BDB SWAP3 SWAP2 SWAP1 PUSH2 0x3FC8 JUMP JUMPDEST PUSH1 0x40 MLOAD DUP1 SWAP2 SUB SWAP1 LOG4 PUSH2 0x1BF2 DUP4 PUSH1 0x0 DUP10 DUP6 DUP6 DUP10 PUSH2 0x226D JUMP JUMPDEST PUSH2 0x1C01 DUP4 PUSH1 0x0 DUP10 DUP10 DUP10 DUP10 PUSH2 0x24C6 JUMP JUMPDEST POP POP POP POP POP POP POP JUMP JUMPDEST DUP2 PUSH20 0xFFFFFFFFFFFFFFFFFFFFFFFFFFFFFFFFFFFFFFFF AND DUP4 PUSH20 0xFFFFFFFFFFFFFFFFFFFFFFFFFFFFFFFFFFFFFFFF AND SUB PUSH2 0x1C78 JUMPI PUSH1 0x40 MLOAD PUSH32 0x8C379A000000000000000000000000000000000000000000000000000000000 DUP2 MSTORE PUSH1 0x4 ADD PUSH2 0x1C6F SWAP1 PUSH2 0x4063 JUMP JUMPDEST PUSH1 0x40 MLOAD DUP1 SWAP2 SUB SWAP1 REVERT JUMPDEST DUP1 PUSH1 0x1 PUSH1 0x0 DUP6 PUSH20 0xFFFFFFFFFFFFFFFFFFFFFFFFFFFFFFFFFFFFFFFF AND PUSH20 0xFFFFFFFFFFFFFFFFFFFFFFFFFFFFFFFFFFFFFFFF AND DUP2 MSTORE PUSH1 0x20 ADD SWAP1 DUP2 MSTORE PUSH1 0x20 ADD PUSH1 0x0 KECCAK256 PUSH1 0x0 DUP5 PUSH20 0xFFFFFFFFFFFFFFFFFFFFFFFFFFFFFFFFFFFFFFFF AND PUSH20 0xFFFFFFFFFFFFFFFFFFFFFFFFFFFFFFFFFFFFFFFF AND DUP2 MSTORE PUSH1 0x20 ADD SWAP1 DUP2 MSTORE PUSH1 0x20 ADD PUSH1 0x0 KECCAK256 PUSH1 0x0 PUSH2 0x100 EXP DUP2 SLOAD DUP2 PUSH1 0xFF MUL NOT AND SWAP1 DUP4 ISZERO ISZERO MUL OR SWAP1 SSTORE POP DUP2 PUSH20 0xFFFFFFFFFFFFFFFFFFFFFFFFFFFFFFFFFFFFFFFF AND DUP4 PUSH20 0xFFFFFFFFFFFFFFFFFFFFFFFFFFFFFFFFFFFFFFFF AND PUSH32 0x17307EAB39AB6107E8899845AD3D59BD9653F200F220920489CA2B5937696C31 DUP4 PUSH1 0x40 MLOAD PUSH2 0x1D69 SWAP2 SWAP1 PUSH2 0x2A4A JUMP JUMPDEST PUSH1 0x40 MLOAD DUP1 SWAP2 SUB SWAP1 LOG3 POP POP POP JUMP JUMPDEST PUSH1 0x0 PUSH20 0xFFFFFFFFFFFFFFFFFFFFFFFFFFFFFFFFFFFFFFFF AND DUP5 PUSH20 0xFFFFFFFFFFFFFFFFFFFFFFFFFFFFFFFFFFFFFFFF AND SUB PUSH2 0x1DE5 JUMPI PUSH1 0x40 MLOAD PUSH32 0x8C379A000000000000000000000000000000000000000000000000000000000 DUP2 MSTORE PUSH1 0x4 ADD PUSH2 0x1DDC SWAP1 PUSH2 0x3DF2 JUMP JUMPDEST PUSH1 0x40 MLOAD DUP1 SWAP2 SUB SWAP1 REVERT JUMPDEST PUSH1 0x0 PUSH2 0x1DEF PUSH2 0x139D JUMP JUMPDEST SWAP1 POP PUSH1 0x0 PUSH2 0x1DFC DUP6 PUSH2 0x244C JUMP JUMPDEST SWAP1 POP PUSH1 0x0 PUSH2 0x1E09 DUP6 PUSH2 0x244C JUMP JUMPDEST SWAP1 POP PUSH2 0x1E19 DUP4 DUP10 DUP10 DUP6 DUP6 DUP10 PUSH2 0x2257 JUMP JUMPDEST PUSH1 0x0 DUP1 PUSH1 0x0 DUP9 DUP2 MSTORE PUSH1 0x20 ADD SWAP1 DUP2 MSTORE PUSH1 0x20 ADD PUSH1 0x0 KECCAK256 PUSH1 0x0 DUP11 PUSH20 0xFFFFFFFFFFFFFFFFFFFFFFFFFFFFFFFFFFFFFFFF AND PUSH20 0xFFFFFFFFFFFFFFFFFFFFFFFFFFFFFFFFFFFFFFFF AND DUP2 MSTORE PUSH1 0x20 ADD SWAP1 DUP2 MSTORE PUSH1 0x20 ADD PUSH1 0x0 KECCAK256 SLOAD SWAP1 POP DUP6 DUP2 LT ISZERO PUSH2 0x1EB0 JUMPI PUSH1 0x40 MLOAD PUSH32 0x8C379A000000000000000000000000000000000000000000000000000000000 DUP2 MSTORE PUSH1 0x4 ADD PUSH2 0x1EA7 SWAP1 PUSH2 0x3E84 JUMP JUMPDEST PUSH1 0x40 MLOAD DUP1 SWAP2 SUB SWAP1 REVERT JUMPDEST DUP6 DUP2 SUB PUSH1 0x0 DUP1 DUP10 DUP2 MSTORE PUSH1 0x20 ADD SWAP1 DUP2 MSTORE PUSH1 0x20 ADD PUSH1 0x0 KECCAK256 PUSH1 0x0 DUP12 PUSH20 0xFFFFFFFFFFFFFFFFFFFFFFFFFFFFFFFFFFFFFFFF AND PUSH20 0xFFFFFFFFFFFFFFFFFFFFFFFFFFFFFFFFFFFFFFFF AND DUP2 MSTORE PUSH1 0x20 ADD SWAP1 DUP2 MSTORE PUSH1 0x20 ADD PUSH1 0x0 KECCAK256 DUP2 SWAP1 SSTORE POP DUP6 PUSH1 0x0 DUP1 DUP10 DUP2 MSTORE PUSH1 0x20 ADD SWAP1 DUP2 MSTORE PUSH1 0x20 ADD PUSH1 0x0 KECCAK256 PUSH1 0x0 DUP11 PUSH20 0xFFFFFFFFFFFFFFFFFFFFFFFFFFFFFFFFFFFFFFFF AND PUSH20 0xFFFFFFFFFFFFFFFFFFFFFFFFFFFFFFFFFFFFFFFF AND DUP2 MSTORE PUSH1 0x20 ADD SWAP1 DUP2 MSTORE PUSH1 0x20 ADD PUSH1 0x0 KECCAK256 PUSH1 0x0 DUP3 DUP3 SLOAD PUSH2 0x1F65 SWAP2 SWAP1 PUSH2 0x3D15 JUMP JUMPDEST SWAP3 POP POP DUP2 SWAP1 SSTORE POP DUP8 PUSH20 0xFFFFFFFFFFFFFFFFFFFFFFFFFFFFFFFFFFFFFFFF AND DUP10 PUSH20 0xFFFFFFFFFFFFFFFFFFFFFFFFFFFFFFFFFFFFFFFF AND DUP6 PUSH20 0xFFFFFFFFFFFFFFFFFFFFFFFFFFFFFFFFFFFFFFFF AND PUSH32 0xC3D58168C5AE7397731D063D5BBF3D657854427343F4C083240F7AACAA2D0F62 DUP11 DUP11 PUSH1 0x40 MLOAD PUSH2 0x1FE2 SWAP3 SWAP2 SWAP1 PUSH2 0x3FC8 JUMP JUMPDEST PUSH1 0x40 MLOAD DUP1 SWAP2 SUB SWAP1 LOG4 PUSH2 0x1FF8 DUP5 DUP11 DUP11 DUP7 DUP7 DUP11 PUSH2 0x226D JUMP JUMPDEST PUSH2 0x2006 DUP5 DUP11 DUP11 DUP11 DUP11 DUP11 PUSH2 0x24C6 JUMP JUMPDEST POP POP POP POP POP POP POP POP POP JUMP JUMPDEST PUSH1 0x0 PUSH20 0xFFFFFFFFFFFFFFFFFFFFFFFFFFFFFFFFFFFFFFFF AND DUP4 PUSH20 0xFFFFFFFFFFFFFFFFFFFFFFFFFFFFFFFFFFFFFFFF AND SUB PUSH2 0x2080 JUMPI PUSH1 0x40 MLOAD PUSH32 0x8C379A000000000000000000000000000000000000000000000000000000000 DUP2 MSTORE PUSH1 0x4 ADD PUSH2 0x2077 SWAP1 PUSH2 0x3F16 JUMP JUMPDEST PUSH1 0x40 MLOAD DUP1 SWAP2 SUB SWAP1 REVERT JUMPDEST PUSH1 0x0 PUSH2 0x208A PUSH2 0x139D JUMP JUMPDEST SWAP1 POP PUSH1 0x0 PUSH2 0x2097 DUP5 PUSH2 0x244C JUMP JUMPDEST SWAP1 POP PUSH1 0x0 PUSH2 0x20A4 DUP5 PUSH2 0x244C JUMP JUMPDEST SWAP1 POP PUSH2 0x20C4 DUP4 DUP8 PUSH1 0x0 DUP6 DUP6 PUSH1 0x40 MLOAD DUP1 PUSH1 0x20 ADD PUSH1 0x40 MSTORE DUP1 PUSH1 0x0 DUP2 MSTORE POP PUSH2 0x2257 JUMP JUMPDEST PUSH1 0x0 DUP1 PUSH1 0x0 DUP8 DUP2 MSTORE PUSH1 0x20 ADD SWAP1 DUP2 MSTORE PUSH1 0x20 ADD PUSH1 0x0 KECCAK256 PUSH1 0x0 DUP9 PUSH20 0xFFFFFFFFFFFFFFFFFFFFFFFFFFFFFFFFFFFFFFFF AND PUSH20 0xFFFFFFFFFFFFFFFFFFFFFFFFFFFFFFFFFFFFFFFF AND DUP2 MSTORE PUSH1 0x20 ADD SWAP1 DUP2 MSTORE PUSH1 0x20 ADD PUSH1 0x0 KECCAK256 SLOAD SWAP1 POP DUP5 DUP2 LT ISZERO PUSH2 0x215B JUMPI PUSH1 0x40 MLOAD PUSH32 0x8C379A000000000000000000000000000000000000000000000000000000000 DUP2 MSTORE PUSH1 0x4 ADD PUSH2 0x2152 SWAP1 PUSH2 0x3FA8 JUMP JUMPDEST PUSH1 0x40 MLOAD DUP1 SWAP2 SUB SWAP1 REVERT JUMPDEST DUP5 DUP2 SUB PUSH1 0x0 DUP1 DUP9 DUP2 MSTORE PUSH1 0x20 ADD SWAP1 DUP2 MSTORE PUSH1 0x20 ADD PUSH1 0x0 KECCAK256 PUSH1 0x0 DUP10 PUSH20 0xFFFFFFFFFFFFFFFFFFFFFFFFFFFFFFFFFFFFFFFF AND PUSH20 0xFFFFFFFFFFFFFFFFFFFFFFFFFFFFFFFFFFFFFFFF AND DUP2 MSTORE PUSH1 0x20 ADD SWAP1 DUP2 MSTORE PUSH1 0x20 ADD PUSH1 0x0 KECCAK256 DUP2 SWAP1 SSTORE POP PUSH1 0x0 PUSH20 0xFFFFFFFFFFFFFFFFFFFFFFFFFFFFFFFFFFFFFFFF AND DUP8 PUSH20 0xFFFFFFFFFFFFFFFFFFFFFFFFFFFFFFFFFFFFFFFF AND DUP6 PUSH20 0xFFFFFFFFFFFFFFFFFFFFFFFFFFFFFFFFFFFFFFFF AND PUSH32 0xC3D58168C5AE7397731D063D5BBF3D657854427343F4C083240F7AACAA2D0F62 DUP10 DUP10 PUSH1 0x40 MLOAD PUSH2 0x2228 SWAP3 SWAP2 SWAP1 PUSH2 0x3FC8 JUMP JUMPDEST PUSH1 0x40 MLOAD DUP1 SWAP2 SUB SWAP1 LOG4 PUSH2 0x224E DUP5 DUP9 PUSH1 0x0 DUP7 DUP7 PUSH1 0x40 MLOAD DUP1 PUSH1 0x20 ADD PUSH1 0x40 MSTORE DUP1 PUSH1 0x0 DUP2 MSTORE POP PUSH2 0x226D JUMP JUMPDEST POP POP POP POP POP POP POP JUMP JUMPDEST PUSH2 0x2265 DUP7 DUP7 DUP7 DUP7 DUP7 DUP7 PUSH2 0x269D JUMP JUMPDEST POP POP POP POP POP POP JUMP JUMPDEST POP POP POP POP POP POP JUMP JUMPDEST PUSH2 0x2294 DUP5 PUSH20 0xFFFFFFFFFFFFFFFFFFFFFFFFFFFFFFFFFFFFFFFF AND PUSH2 0x286D JUMP JUMPDEST ISZERO PUSH2 0x2444 JUMPI DUP4 PUSH20 0xFFFFFFFFFFFFFFFFFFFFFFFFFFFFFFFFFFFFFFFF AND PUSH4 0xBC197C81 DUP8 DUP8 DUP7 DUP7 DUP7 PUSH1 0x40 MLOAD DUP7 PUSH4 0xFFFFFFFF AND PUSH1 0xE0 SHL DUP2 MSTORE PUSH1 0x4 ADD PUSH2 0x22DA SWAP6 SWAP5 SWAP4 SWAP3 SWAP2 SWAP1 PUSH2 0x40D8 JUMP JUMPDEST PUSH1 0x20 PUSH1 0x40 MLOAD DUP1 DUP4 SUB DUP2 PUSH1 0x0 DUP8 GAS CALL SWAP3 POP POP POP DUP1 ISZERO PUSH2 0x2316 JUMPI POP PUSH1 0x40 MLOAD RETURNDATASIZE PUSH1 0x1F NOT PUSH1 0x1F DUP3 ADD AND DUP3 ADD DUP1 PUSH1 0x40 MSTORE POP DUP2 ADD SWAP1 PUSH2 0x2313 SWAP2 SWAP1 PUSH2 0x4155 JUMP JUMPDEST PUSH1 0x1 JUMPDEST PUSH2 0x23BB JUMPI PUSH2 0x2322 PUSH2 0x418F JUMP JUMPDEST DUP1 PUSH4 0x8C379A0 SUB PUSH2 0x237E JUMPI POP PUSH2 0x2336 PUSH2 0x41B1 JUMP JUMPDEST DUP1 PUSH2 0x2341 JUMPI POP PUSH2 0x2380 JUMP JUMPDEST DUP1 PUSH1 0x40 MLOAD PUSH32 0x8C379A000000000000000000000000000000000000000000000000000000000 DUP2 MSTORE PUSH1 0x4 ADD PUSH2 0x2375 SWAP2 SWAP1 PUSH2 0x2CA0 JUMP JUMPDEST PUSH1 0x40 MLOAD DUP1 SWAP2 SUB SWAP1 REVERT JUMPDEST POP JUMPDEST PUSH1 0x40 MLOAD PUSH32 0x8C379A000000000000000000000000000000000000000000000000000000000 DUP2 MSTORE PUSH1 0x4 ADD PUSH2 0x23B2 SWAP1 PUSH2 0x42B3 JUMP JUMPDEST PUSH1 0x40 MLOAD DUP1 SWAP2 SUB SWAP1 REVERT JUMPDEST PUSH4 0xBC197C81 PUSH1 0xE0 SHL PUSH28 0xFFFFFFFFFFFFFFFFFFFFFFFFFFFFFFFFFFFFFFFFFFFFFFFFFFFFFFFF NOT AND DUP2 PUSH28 0xFFFFFFFFFFFFFFFFFFFFFFFFFFFFFFFFFFFFFFFFFFFFFFFFFFFFFFFF NOT AND EQ PUSH2 0x2442 JUMPI PUSH1 0x40 MLOAD PUSH32 0x8C379A000000000000000000000000000000000000000000000000000000000 DUP2 MSTORE PUSH1 0x4 ADD PUSH2 0x2439 SWAP1 PUSH2 0x4345 JUMP JUMPDEST PUSH1 0x40 MLOAD DUP1 SWAP2 SUB SWAP1 REVERT JUMPDEST POP JUMPDEST POP POP POP POP POP POP JUMP JUMPDEST PUSH1 0x60 PUSH1 0x0 PUSH1 0x1 PUSH8 0xFFFFFFFFFFFFFFFF DUP2 GT ISZERO PUSH2 0x246B JUMPI PUSH2 0x246A PUSH2 0x2A80 JUMP JUMPDEST JUMPDEST PUSH1 0x40 MLOAD SWAP1 DUP1 DUP3 MSTORE DUP1 PUSH1 0x20 MUL PUSH1 0x20 ADD DUP3 ADD PUSH1 0x40 MSTORE DUP1 ISZERO PUSH2 0x2499 JUMPI DUP2 PUSH1 0x20 ADD PUSH1 0x20 DUP3 MUL DUP1 CALLDATASIZE DUP4 CALLDATACOPY DUP1 DUP3 ADD SWAP2 POP POP SWAP1 POP JUMPDEST POP SWAP1 POP DUP3 DUP2 PUSH1 0x0 DUP2 MLOAD DUP2 LT PUSH2 0x24B1 JUMPI PUSH2 0x24B0 PUSH2 0x3721 JUMP JUMPDEST JUMPDEST PUSH1 0x20 MUL PUSH1 0x20 ADD ADD DUP2 DUP2 MSTORE POP POP DUP1 SWAP2 POP POP SWAP2 SWAP1 POP JUMP JUMPDEST PUSH2 0x24E5 DUP5 PUSH20 0xFFFFFFFFFFFFFFFFFFFFFFFFFFFFFFFFFFFFFFFF AND PUSH2 0x286D JUMP JUMPDEST ISZERO PUSH2 0x2695 JUMPI DUP4 PUSH20 0xFFFFFFFFFFFFFFFFFFFFFFFFFFFFFFFFFFFFFFFF AND PUSH4 0xF23A6E61 DUP8 DUP8 DUP7 DUP7 DUP7 PUSH1 0x40 MLOAD DUP7 PUSH4 0xFFFFFFFF AND PUSH1 0xE0 SHL DUP2 MSTORE PUSH1 0x4 ADD PUSH2 0x252B SWAP6 SWAP5 SWAP4 SWAP3 SWAP2 SWAP1 PUSH2 0x4365 JUMP JUMPDEST PUSH1 0x20 PUSH1 0x40 MLOAD DUP1 DUP4 SUB DUP2 PUSH1 0x0 DUP8 GAS CALL SWAP3 POP POP POP DUP1 ISZERO PUSH2 0x2567 JUMPI POP PUSH1 0x40 MLOAD RETURNDATASIZE PUSH1 0x1F NOT PUSH1 0x1F DUP3 ADD AND DUP3 ADD DUP1 PUSH1 0x40 MSTORE POP DUP2 ADD SWAP1 PUSH2 0x2564 SWAP2 SWAP1 PUSH2 0x4155 JUMP JUMPDEST PUSH1 0x1 JUMPDEST PUSH2 0x260C JUMPI PUSH2 0x2573 PUSH2 0x418F JUMP JUMPDEST DUP1 PUSH4 0x8C379A0 SUB PUSH2 0x25CF JUMPI POP PUSH2 0x2587 PUSH2 0x41B1 JUMP JUMPDEST DUP1 PUSH2 0x2592 JUMPI POP PUSH2 0x25D1 JUMP JUMPDEST DUP1 PUSH1 0x40 MLOAD PUSH32 0x8C379A000000000000000000000000000000000000000000000000000000000 DUP2 MSTORE PUSH1 0x4 ADD PUSH2 0x25C6 SWAP2 SWAP1 PUSH2 0x2CA0 JUMP JUMPDEST PUSH1 0x40 MLOAD DUP1 SWAP2 SUB SWAP1 REVERT JUMPDEST POP JUMPDEST PUSH1 0x40 MLOAD PUSH32 0x8C379A000000000000000000000000000000000000000000000000000000000 DUP2 MSTORE PUSH1 0x4 ADD PUSH2 0x2603 SWAP1 PUSH2 0x42B3 JUMP JUMPDEST PUSH1 0x40 MLOAD DUP1 SWAP2 SUB SWAP1 REVERT JUMPDEST PUSH4 0xF23A6E61 PUSH1 0xE0 SHL PUSH28 0xFFFFFFFFFFFFFFFFFFFFFFFFFFFFFFFFFFFFFFFFFFFFFFFFFFFFFFFF NOT AND DUP2 PUSH28 0xFFFFFFFFFFFFFFFFFFFFFFFFFFFFFFFFFFFFFFFFFFFFFFFFFFFFFFFF NOT AND EQ PUSH2 0x2693 JUMPI PUSH1 0x40 MLOAD PUSH32 0x8C379A000000000000000000000000000000000000000000000000000000000 DUP2 MSTORE PUSH1 0x4 ADD PUSH2 0x268A SWAP1 PUSH2 0x4345 JUMP JUMPDEST PUSH1 0x40 MLOAD DUP1 SWAP2 SUB SWAP1 REVERT JUMPDEST POP JUMPDEST POP POP POP POP POP POP JUMP JUMPDEST PUSH2 0x26AB DUP7 DUP7 DUP7 DUP7 DUP7 DUP7 PUSH2 0x2890 JUMP JUMPDEST PUSH1 0x0 PUSH20 0xFFFFFFFFFFFFFFFFFFFFFFFFFFFFFFFFFFFFFFFF AND DUP6 PUSH20 0xFFFFFFFFFFFFFFFFFFFFFFFFFFFFFFFFFFFFFFFF AND SUB PUSH2 0x275C JUMPI PUSH1 0x0 JUMPDEST DUP4 MLOAD DUP2 LT ISZERO PUSH2 0x275A JUMPI DUP3 DUP2 DUP2 MLOAD DUP2 LT PUSH2 0x26FE JUMPI PUSH2 0x26FD PUSH2 0x3721 JUMP JUMPDEST JUMPDEST PUSH1 0x20 MUL PUSH1 0x20 ADD ADD MLOAD PUSH1 0x4 PUSH1 0x0 DUP7 DUP5 DUP2 MLOAD DUP2 LT PUSH2 0x271D JUMPI PUSH2 0x271C PUSH2 0x3721 JUMP JUMPDEST JUMPDEST PUSH1 0x20 MUL PUSH1 0x20 ADD ADD MLOAD DUP2 MSTORE PUSH1 0x20 ADD SWAP1 DUP2 MSTORE PUSH1 0x20 ADD PUSH1 0x0 KECCAK256 PUSH1 0x0 DUP3 DUP3 SLOAD PUSH2 0x2742 SWAP2 SWAP1 PUSH2 0x3D15 JUMP JUMPDEST SWAP3 POP POP DUP2 SWAP1 SSTORE POP DUP1 PUSH2 0x2753 SWAP1 PUSH2 0x377F JUMP JUMPDEST SWAP1 POP PUSH2 0x26E2 JUMP JUMPDEST POP JUMPDEST PUSH1 0x0 PUSH20 0xFFFFFFFFFFFFFFFFFFFFFFFFFFFFFFFFFFFFFFFF AND DUP5 PUSH20 0xFFFFFFFFFFFFFFFFFFFFFFFFFFFFFFFFFFFFFFFF AND SUB PUSH2 0x2865 JUMPI PUSH1 0x0 JUMPDEST DUP4 MLOAD DUP2 LT ISZERO PUSH2 0x2863 JUMPI PUSH1 0x0 DUP5 DUP3 DUP2 MLOAD DUP2 LT PUSH2 0x27B1 JUMPI PUSH2 0x27B0 PUSH2 0x3721 JUMP JUMPDEST JUMPDEST PUSH1 0x20 MUL PUSH1 0x20 ADD ADD MLOAD SWAP1 POP PUSH1 0x0 DUP5 DUP4 DUP2 MLOAD DUP2 LT PUSH2 0x27D0 JUMPI PUSH2 0x27CF PUSH2 0x3721 JUMP JUMPDEST JUMPDEST PUSH1 0x20 MUL PUSH1 0x20 ADD ADD MLOAD SWAP1 POP PUSH1 0x0 PUSH1 0x4 PUSH1 0x0 DUP5 DUP2 MSTORE PUSH1 0x20 ADD SWAP1 DUP2 MSTORE PUSH1 0x20 ADD PUSH1 0x0 KECCAK256 SLOAD SWAP1 POP DUP2 DUP2 LT ISZERO PUSH2 0x2835 JUMPI PUSH1 0x40 MLOAD PUSH32 0x8C379A000000000000000000000000000000000000000000000000000000000 DUP2 MSTORE PUSH1 0x4 ADD PUSH2 0x282C SWAP1 PUSH2 0x4431 JUMP JUMPDEST PUSH1 0x40 MLOAD DUP1 SWAP2 SUB SWAP1 REVERT JUMPDEST DUP2 DUP2 SUB PUSH1 0x4 PUSH1 0x0 DUP6 DUP2 MSTORE PUSH1 0x20 ADD SWAP1 DUP2 MSTORE PUSH1 0x20 ADD PUSH1 0x0 KECCAK256 DUP2 SWAP1 SSTORE POP POP POP POP DUP1 PUSH2 0x285C SWAP1 PUSH2 0x377F JUMP JUMPDEST SWAP1 POP PUSH2 0x2793 JUMP JUMPDEST POP JUMPDEST POP POP POP POP POP POP JUMP JUMPDEST PUSH1 0x0 DUP1 DUP3 PUSH20 0xFFFFFFFFFFFFFFFFFFFFFFFFFFFFFFFFFFFFFFFF AND EXTCODESIZE GT SWAP1 POP SWAP2 SWAP1 POP JUMP JUMPDEST POP POP POP POP POP POP JUMP JUMPDEST PUSH1 0x0 PUSH1 0x40 MLOAD SWAP1 POP SWAP1 JUMP JUMPDEST PUSH1 0x0 DUP1 REVERT JUMPDEST PUSH1 0x0 DUP1 REVERT JUMPDEST PUSH1 0x0 PUSH20 0xFFFFFFFFFFFFFFFFFFFFFFFFFFFFFFFFFFFFFFFF DUP3 AND SWAP1 POP SWAP2 SWAP1 POP JUMP JUMPDEST PUSH1 0x0 PUSH2 0x28D7 DUP3 PUSH2 0x28AC JUMP JUMPDEST SWAP1 POP SWAP2 SWAP1 POP JUMP JUMPDEST PUSH2 0x28E7 DUP2 PUSH2 0x28CC JUMP JUMPDEST DUP2 EQ PUSH2 0x28F2 JUMPI PUSH1 0x0 DUP1 REVERT JUMPDEST POP JUMP JUMPDEST PUSH1 0x0 DUP2 CALLDATALOAD SWAP1 POP PUSH2 0x2904 DUP2 PUSH2 0x28DE JUMP JUMPDEST SWAP3 SWAP2 POP POP JUMP JUMPDEST PUSH1 0x0 DUP2 SWAP1 POP SWAP2 SWAP1 POP JUMP JUMPDEST PUSH2 0x291D DUP2 PUSH2 0x290A JUMP JUMPDEST DUP2 EQ PUSH2 0x2928 JUMPI PUSH1 0x0 DUP1 REVERT JUMPDEST POP JUMP JUMPDEST PUSH1 0x0 DUP2 CALLDATALOAD SWAP1 POP PUSH2 0x293A DUP2 PUSH2 0x2914 JUMP JUMPDEST SWAP3 SWAP2 POP POP JUMP JUMPDEST PUSH1 0x0 DUP1 PUSH1 0x40 DUP4 DUP6 SUB SLT ISZERO PUSH2 0x2957 JUMPI PUSH2 0x2956 PUSH2 0x28A2 JUMP JUMPDEST JUMPDEST PUSH1 0x0 PUSH2 0x2965 DUP6 DUP3 DUP7 ADD PUSH2 0x28F5 JUMP JUMPDEST SWAP3 POP POP PUSH1 0x20 PUSH2 0x2976 DUP6 DUP3 DUP7 ADD PUSH2 0x292B JUMP JUMPDEST SWAP2 POP POP SWAP3 POP SWAP3 SWAP1 POP JUMP JUMPDEST PUSH2 0x2989 DUP2 PUSH2 0x290A JUMP JUMPDEST DUP3 MSTORE POP POP JUMP JUMPDEST PUSH1 0x0 PUSH1 0x20 DUP3 ADD SWAP1 POP PUSH2 0x29A4 PUSH1 0x0 DUP4 ADD DUP5 PUSH2 0x2980 JUMP JUMPDEST SWAP3 SWAP2 POP POP JUMP JUMPDEST PUSH1 0x0 PUSH32 0xFFFFFFFF00000000000000000000000000000000000000000000000000000000 DUP3 AND SWAP1 POP SWAP2 SWAP1 POP JUMP JUMPDEST PUSH2 0x29DF DUP2 PUSH2 0x29AA JUMP JUMPDEST DUP2 EQ PUSH2 0x29EA JUMPI PUSH1 0x0 DUP1 REVERT JUMPDEST POP JUMP JUMPDEST PUSH1 0x0 DUP2 CALLDATALOAD SWAP1 POP PUSH2 0x29FC DUP2 PUSH2 0x29D6 JUMP JUMPDEST SWAP3 SWAP2 POP POP JUMP JUMPDEST PUSH1 0x0 PUSH1 0x20 DUP3 DUP5 SUB SLT ISZERO PUSH2 0x2A18 JUMPI PUSH2 0x2A17 PUSH2 0x28A2 JUMP JUMPDEST JUMPDEST PUSH1 0x0 PUSH2 0x2A26 DUP5 DUP3 DUP6 ADD PUSH2 0x29ED JUMP JUMPDEST SWAP2 POP POP SWAP3 SWAP2 POP POP JUMP JUMPDEST PUSH1 0x0 DUP2 ISZERO ISZERO SWAP1 POP SWAP2 SWAP1 POP JUMP JUMPDEST PUSH2 0x2A44 DUP2 PUSH2 0x2A2F JUMP JUMPDEST DUP3 MSTORE POP POP JUMP JUMPDEST PUSH1 0x0 PUSH1 0x20 DUP3 ADD SWAP1 POP PUSH2 0x2A5F PUSH1 0x0 DUP4 ADD DUP5 PUSH2 0x2A3B JUMP JUMPDEST SWAP3 SWAP2 POP POP JUMP JUMPDEST PUSH1 0x0 DUP1 REVERT JUMPDEST PUSH1 0x0 DUP1 REVERT JUMPDEST PUSH1 0x0 PUSH1 0x1F NOT PUSH1 0x1F DUP4 ADD AND SWAP1 POP SWAP2 SWAP1 POP JUMP JUMPDEST PUSH32 0x4E487B7100000000000000000000000000000000000000000000000000000000 PUSH1 0x0 MSTORE PUSH1 0x41 PUSH1 0x4 MSTORE PUSH1 0x24 PUSH1 0x0 REVERT JUMPDEST PUSH2 0x2AB8 DUP3 PUSH2 0x2A6F JUMP JUMPDEST DUP2 ADD DUP2 DUP2 LT PUSH8 0xFFFFFFFFFFFFFFFF DUP3 GT OR ISZERO PUSH2 0x2AD7 JUMPI PUSH2 0x2AD6 PUSH2 0x2A80 JUMP JUMPDEST JUMPDEST DUP1 PUSH1 0x40 MSTORE POP POP POP JUMP JUMPDEST PUSH1 0x0 PUSH2 0x2AEA PUSH2 0x2898 JUMP JUMPDEST SWAP1 POP PUSH2 0x2AF6 DUP3 DUP3 PUSH2 0x2AAF JUMP JUMPDEST SWAP2 SWAP1 POP JUMP JUMPDEST PUSH1 0x0 PUSH8 0xFFFFFFFFFFFFFFFF DUP3 GT ISZERO PUSH2 0x2B16 JUMPI PUSH2 0x2B15 PUSH2 0x2A80 JUMP JUMPDEST JUMPDEST PUSH2 0x2B1F DUP3 PUSH2 0x2A6F JUMP JUMPDEST SWAP1 POP PUSH1 0x20 DUP2 ADD SWAP1 POP SWAP2 SWAP1 POP JUMP JUMPDEST DUP3 DUP2 DUP4 CALLDATACOPY PUSH1 0x0 DUP4 DUP4 ADD MSTORE POP POP POP JUMP JUMPDEST PUSH1 0x0 PUSH2 0x2B4E PUSH2 0x2B49 DUP5 PUSH2 0x2AFB JUMP JUMPDEST PUSH2 0x2AE0 JUMP JUMPDEST SWAP1 POP DUP3 DUP2 MSTORE PUSH1 0x20 DUP2 ADD DUP5 DUP5 DUP5 ADD GT ISZERO PUSH2 0x2B6A JUMPI PUSH2 0x2B69 PUSH2 0x2A6A JUMP JUMPDEST JUMPDEST PUSH2 0x2B75 DUP5 DUP3 DUP6 PUSH2 0x2B2C JUMP JUMPDEST POP SWAP4 SWAP3 POP POP POP JUMP JUMPDEST PUSH1 0x0 DUP3 PUSH1 0x1F DUP4 ADD SLT PUSH2 0x2B92 JUMPI PUSH2 0x2B91 PUSH2 0x2A65 JUMP JUMPDEST JUMPDEST DUP2 CALLDATALOAD PUSH2 0x2BA2 DUP5 DUP3 PUSH1 0x20 DUP7 ADD PUSH2 0x2B3B JUMP JUMPDEST SWAP2 POP POP SWAP3 SWAP2 POP POP JUMP JUMPDEST PUSH1 0x0 PUSH1 0x20 DUP3 DUP5 SUB SLT ISZERO PUSH2 0x2BC1 JUMPI PUSH2 0x2BC0 PUSH2 0x28A2 JUMP JUMPDEST JUMPDEST PUSH1 0x0 DUP3 ADD CALLDATALOAD PUSH8 0xFFFFFFFFFFFFFFFF DUP2 GT ISZERO PUSH2 0x2BDF JUMPI PUSH2 0x2BDE PUSH2 0x28A7 JUMP JUMPDEST JUMPDEST PUSH2 0x2BEB DUP5 DUP3 DUP6 ADD PUSH2 0x2B7D JUMP JUMPDEST SWAP2 POP POP SWAP3 SWAP2 POP POP JUMP JUMPDEST PUSH1 0x0 PUSH1 0x20 DUP3 DUP5 SUB SLT ISZERO PUSH2 0x2C0A JUMPI PUSH2 0x2C09 PUSH2 0x28A2 JUMP JUMPDEST JUMPDEST PUSH1 0x0 PUSH2 0x2C18 DUP5 DUP3 DUP6 ADD PUSH2 0x292B JUMP JUMPDEST SWAP2 POP POP SWAP3 SWAP2 POP POP JUMP JUMPDEST PUSH1 0x0 DUP2 MLOAD SWAP1 POP SWAP2 SWAP1 POP JUMP JUMPDEST PUSH1 0x0 DUP3 DUP3 MSTORE PUSH1 0x20 DUP3 ADD SWAP1 POP SWAP3 SWAP2 POP POP JUMP JUMPDEST PUSH1 0x0 JUMPDEST DUP4 DUP2 LT ISZERO PUSH2 0x2C5B JUMPI DUP1 DUP3 ADD MLOAD DUP2 DUP5 ADD MSTORE PUSH1 0x20 DUP2 ADD SWAP1 POP PUSH2 0x2C40 JUMP JUMPDEST PUSH1 0x0 DUP5 DUP5 ADD MSTORE POP POP POP POP JUMP JUMPDEST PUSH1 0x0 PUSH2 0x2C72 DUP3 PUSH2 0x2C21 JUMP JUMPDEST PUSH2 0x2C7C DUP2 DUP6 PUSH2 0x2C2C JUMP JUMPDEST SWAP4 POP PUSH2 0x2C8C DUP2 DUP6 PUSH1 0x20 DUP7 ADD PUSH2 0x2C3D JUMP JUMPDEST PUSH2 0x2C95 DUP2 PUSH2 0x2A6F JUMP JUMPDEST DUP5 ADD SWAP2 POP POP SWAP3 SWAP2 POP POP JUMP JUMPDEST PUSH1 0x0 PUSH1 0x20 DUP3 ADD SWAP1 POP DUP2 DUP2 SUB PUSH1 0x0 DUP4 ADD MSTORE PUSH2 0x2CBA DUP2 DUP5 PUSH2 0x2C67 JUMP JUMPDEST SWAP1 POP SWAP3 SWAP2 POP POP JUMP JUMPDEST PUSH1 0x0 PUSH8 0xFFFFFFFFFFFFFFFF DUP3 GT ISZERO PUSH2 0x2CDD JUMPI PUSH2 0x2CDC PUSH2 0x2A80 JUMP JUMPDEST JUMPDEST PUSH1 0x20 DUP3 MUL SWAP1 POP PUSH1 0x20 DUP2 ADD SWAP1 POP SWAP2 SWAP1 POP JUMP JUMPDEST PUSH1 0x0 DUP1 REVERT JUMPDEST PUSH1 0x0 PUSH2 0x2D06 PUSH2 0x2D01 DUP5 PUSH2 0x2CC2 JUMP JUMPDEST PUSH2 0x2AE0 JUMP JUMPDEST SWAP1 POP DUP1 DUP4 DUP3 MSTORE PUSH1 0x20 DUP3 ADD SWAP1 POP PUSH1 0x20 DUP5 MUL DUP4 ADD DUP6 DUP2 GT ISZERO PUSH2 0x2D29 JUMPI PUSH2 0x2D28 PUSH2 0x2CEE JUMP JUMPDEST JUMPDEST DUP4 JUMPDEST DUP2 DUP2 LT ISZERO PUSH2 0x2D52 JUMPI DUP1 PUSH2 0x2D3E DUP9 DUP3 PUSH2 0x292B JUMP JUMPDEST DUP5 MSTORE PUSH1 0x20 DUP5 ADD SWAP4 POP POP PUSH1 0x20 DUP2 ADD SWAP1 POP PUSH2 0x2D2B JUMP JUMPDEST POP POP POP SWAP4 SWAP3 POP POP POP JUMP JUMPDEST PUSH1 0x0 DUP3 PUSH1 0x1F DUP4 ADD SLT PUSH2 0x2D71 JUMPI PUSH2 0x2D70 PUSH2 0x2A65 JUMP JUMPDEST JUMPDEST DUP2 CALLDATALOAD PUSH2 0x2D81 DUP5 DUP3 PUSH1 0x20 DUP7 ADD PUSH2 0x2CF3 JUMP JUMPDEST SWAP2 POP POP SWAP3 SWAP2 POP POP JUMP JUMPDEST PUSH1 0x0 PUSH8 0xFFFFFFFFFFFFFFFF DUP3 GT ISZERO PUSH2 0x2DA5 JUMPI PUSH2 0x2DA4 PUSH2 0x2A80 JUMP JUMPDEST JUMPDEST PUSH2 0x2DAE DUP3 PUSH2 0x2A6F JUMP JUMPDEST SWAP1 POP PUSH1 0x20 DUP2 ADD SWAP1 POP SWAP2 SWAP1 POP JUMP JUMPDEST PUSH1 0x0 PUSH2 0x2DCE PUSH2 0x2DC9 DUP5 PUSH2 0x2D8A JUMP JUMPDEST PUSH2 0x2AE0 JUMP JUMPDEST SWAP1 POP DUP3 DUP2 MSTORE PUSH1 0x20 DUP2 ADD DUP5 DUP5 DUP5 ADD GT ISZERO PUSH2 0x2DEA JUMPI PUSH2 0x2DE9 PUSH2 0x2A6A JUMP JUMPDEST JUMPDEST PUSH2 0x2DF5 DUP5 DUP3 DUP6 PUSH2 0x2B2C JUMP JUMPDEST POP SWAP4 SWAP3 POP POP POP JUMP JUMPDEST PUSH1 0x0 DUP3 PUSH1 0x1F DUP4 ADD SLT PUSH2 0x2E12 JUMPI PUSH2 0x2E11 PUSH2 0x2A65 JUMP JUMPDEST JUMPDEST DUP2 CALLDATALOAD PUSH2 0x2E22 DUP5 DUP3 PUSH1 0x20 DUP7 ADD PUSH2 0x2DBB JUMP JUMPDEST SWAP2 POP POP SWAP3 SWAP2 POP POP JUMP JUMPDEST PUSH1 0x0 DUP1 PUSH1 0x0 DUP1 PUSH1 0x80 DUP6 DUP8 SUB SLT ISZERO PUSH2 0x2E45 JUMPI PUSH2 0x2E44 PUSH2 0x28A2 JUMP JUMPDEST JUMPDEST PUSH1 0x0 PUSH2 0x2E53 DUP8 DUP3 DUP9 ADD PUSH2 0x28F5 JUMP JUMPDEST SWAP5 POP POP PUSH1 0x20 DUP6 ADD CALLDATALOAD PUSH8 0xFFFFFFFFFFFFFFFF DUP2 GT ISZERO PUSH2 0x2E74 JUMPI PUSH2 0x2E73 PUSH2 0x28A7 JUMP JUMPDEST JUMPDEST PUSH2 0x2E80 DUP8 DUP3 DUP9 ADD PUSH2 0x2D5C JUMP JUMPDEST SWAP4 POP POP PUSH1 0x40 DUP6 ADD CALLDATALOAD PUSH8 0xFFFFFFFFFFFFFFFF DUP2 GT ISZERO PUSH2 0x2EA1 JUMPI PUSH2 0x2EA0 PUSH2 0x28A7 JUMP JUMPDEST JUMPDEST PUSH2 0x2EAD DUP8 DUP3 DUP9 ADD PUSH2 0x2D5C JUMP JUMPDEST SWAP3 POP POP PUSH1 0x60 DUP6 ADD CALLDATALOAD PUSH8 0xFFFFFFFFFFFFFFFF DUP2 GT ISZERO PUSH2 0x2ECE JUMPI PUSH2 0x2ECD PUSH2 0x28A7 JUMP JUMPDEST JUMPDEST PUSH2 0x2EDA DUP8 DUP3 DUP9 ADD PUSH2 0x2DFD JUMP JUMPDEST SWAP2 POP POP SWAP3 SWAP6 SWAP2 SWAP5 POP SWAP3 POP JUMP JUMPDEST PUSH1 0x0 DUP1 PUSH1 0x0 DUP1 PUSH1 0x0 PUSH1 0xA0 DUP7 DUP9 SUB SLT ISZERO PUSH2 0x2F02 JUMPI PUSH2 0x2F01 PUSH2 0x28A2 JUMP JUMPDEST JUMPDEST PUSH1 0x0 PUSH2 0x2F10 DUP9 DUP3 DUP10 ADD PUSH2 0x28F5 JUMP JUMPDEST SWAP6 POP POP PUSH1 0x20 PUSH2 0x2F21 DUP9 DUP3 DUP10 ADD PUSH2 0x28F5 JUMP JUMPDEST SWAP5 POP POP PUSH1 0x40 DUP7 ADD CALLDATALOAD PUSH8 0xFFFFFFFFFFFFFFFF DUP2 GT ISZERO PUSH2 0x2F42 JUMPI PUSH2 0x2F41 PUSH2 0x28A7 JUMP JUMPDEST JUMPDEST PUSH2 0x2F4E DUP9 DUP3 DUP10 ADD PUSH2 0x2D5C JUMP JUMPDEST SWAP4 POP POP PUSH1 0x60 DUP7 ADD CALLDATALOAD PUSH8 0xFFFFFFFFFFFFFFFF DUP2 GT ISZERO PUSH2 0x2F6F JUMPI PUSH2 0x2F6E PUSH2 0x28A7 JUMP JUMPDEST JUMPDEST PUSH2 0x2F7B DUP9 DUP3 DUP10 ADD PUSH2 0x2D5C JUMP JUMPDEST SWAP3 POP POP PUSH1 0x80 DUP7 ADD CALLDATALOAD PUSH8 0xFFFFFFFFFFFFFFFF DUP2 GT ISZERO PUSH2 0x2F9C JUMPI PUSH2 0x2F9B PUSH2 0x28A7 JUMP JUMPDEST JUMPDEST PUSH2 0x2FA8 DUP9 DUP3 DUP10 ADD PUSH2 0x2DFD JUMP JUMPDEST SWAP2 POP POP SWAP3 SWAP6 POP SWAP3 SWAP6 SWAP1 SWAP4 POP JUMP JUMPDEST PUSH1 0x0 PUSH8 0xFFFFFFFFFFFFFFFF DUP3 GT ISZERO PUSH2 0x2FD0 JUMPI PUSH2 0x2FCF PUSH2 0x2A80 JUMP JUMPDEST JUMPDEST PUSH1 0x20 DUP3 MUL SWAP1 POP PUSH1 0x20 DUP2 ADD SWAP1 POP SWAP2 SWAP1 POP JUMP JUMPDEST PUSH1 0x0 PUSH2 0x2FF4 PUSH2 0x2FEF DUP5 PUSH2 0x2FB5 JUMP JUMPDEST PUSH2 0x2AE0 JUMP JUMPDEST SWAP1 POP DUP1 DUP4 DUP3 MSTORE PUSH1 0x20 DUP3 ADD SWAP1 POP PUSH1 0x20 DUP5 MUL DUP4 ADD DUP6 DUP2 GT ISZERO PUSH2 0x3017 JUMPI PUSH2 0x3016 PUSH2 0x2CEE JUMP JUMPDEST JUMPDEST DUP4 JUMPDEST DUP2 DUP2 LT ISZERO PUSH2 0x3040 JUMPI DUP1 PUSH2 0x302C DUP9 DUP3 PUSH2 0x28F5 JUMP JUMPDEST DUP5 MSTORE PUSH1 0x20 DUP5 ADD SWAP4 POP POP PUSH1 0x20 DUP2 ADD SWAP1 POP PUSH2 0x3019 JUMP JUMPDEST POP POP POP SWAP4 SWAP3 POP POP POP JUMP JUMPDEST PUSH1 0x0 DUP3 PUSH1 0x1F DUP4 ADD SLT PUSH2 0x305F JUMPI PUSH2 0x305E PUSH2 0x2A65 JUMP JUMPDEST JUMPDEST DUP2 CALLDATALOAD PUSH2 0x306F DUP5 DUP3 PUSH1 0x20 DUP7 ADD PUSH2 0x2FE1 JUMP JUMPDEST SWAP2 POP POP SWAP3 SWAP2 POP POP JUMP JUMPDEST PUSH1 0x0 DUP1 PUSH1 0x40 DUP4 DUP6 SUB SLT ISZERO PUSH2 0x308F JUMPI PUSH2 0x308E PUSH2 0x28A2 JUMP JUMPDEST JUMPDEST PUSH1 0x0 DUP4 ADD CALLDATALOAD PUSH8 0xFFFFFFFFFFFFFFFF DUP2 GT ISZERO PUSH2 0x30AD JUMPI PUSH2 0x30AC PUSH2 0x28A7 JUMP JUMPDEST JUMPDEST PUSH2 0x30B9 DUP6 DUP3 DUP7 ADD PUSH2 0x304A JUMP JUMPDEST SWAP3 POP POP PUSH1 0x20 DUP4 ADD CALLDATALOAD PUSH8 0xFFFFFFFFFFFFFFFF DUP2 GT ISZERO PUSH2 0x30DA JUMPI PUSH2 0x30D9 PUSH2 0x28A7 JUMP JUMPDEST JUMPDEST PUSH2 0x30E6 DUP6 DUP3 DUP7 ADD PUSH2 0x2D5C JUMP JUMPDEST SWAP2 POP POP SWAP3 POP SWAP3 SWAP1 POP JUMP JUMPDEST PUSH1 0x0 DUP2 MLOAD SWAP1 POP SWAP2 SWAP1 POP JUMP JUMPDEST PUSH1 0x0 DUP3 DUP3 MSTORE PUSH1 0x20 DUP3 ADD SWAP1 POP SWAP3 SWAP2 POP POP JUMP JUMPDEST PUSH1 0x0 DUP2 SWAP1 POP PUSH1 0x20 DUP3 ADD SWAP1 POP SWAP2 SWAP1 POP JUMP JUMPDEST PUSH2 0x3125 DUP2 PUSH2 0x290A JUMP JUMPDEST DUP3 MSTORE POP POP JUMP JUMPDEST PUSH1 0x0 PUSH2 0x3137 DUP4 DUP4 PUSH2 0x311C JUMP JUMPDEST PUSH1 0x20 DUP4 ADD SWAP1 POP SWAP3 SWAP2 POP POP JUMP JUMPDEST PUSH1 0x0 PUSH1 0x20 DUP3 ADD SWAP1 POP SWAP2 SWAP1 POP JUMP JUMPDEST PUSH1 0x0 PUSH2 0x315B DUP3 PUSH2 0x30F0 JUMP JUMPDEST PUSH2 0x3165 DUP2 DUP6 PUSH2 0x30FB JUMP JUMPDEST SWAP4 POP PUSH2 0x3170 DUP4 PUSH2 0x310C JUMP JUMPDEST DUP1 PUSH1 0x0 JUMPDEST DUP4 DUP2 LT ISZERO PUSH2 0x31A1 JUMPI DUP2 MLOAD PUSH2 0x3188 DUP9 DUP3 PUSH2 0x312B JUMP JUMPDEST SWAP8 POP PUSH2 0x3193 DUP4 PUSH2 0x3143 JUMP JUMPDEST SWAP3 POP POP PUSH1 0x1 DUP2 ADD SWAP1 POP PUSH2 0x3174 JUMP JUMPDEST POP DUP6 SWAP4 POP POP POP POP SWAP3 SWAP2 POP POP JUMP JUMPDEST PUSH1 0x0 PUSH1 0x20 DUP3 ADD SWAP1 POP DUP2 DUP2 SUB PUSH1 0x0 DUP4 ADD MSTORE PUSH2 0x31C8 DUP2 DUP5 PUSH2 0x3150 JUMP JUMPDEST SWAP1 POP SWAP3 SWAP2 POP POP JUMP JUMPDEST PUSH1 0x0 DUP1 PUSH1 0x0 PUSH1 0x60 DUP5 DUP7 SUB SLT ISZERO PUSH2 0x31E9 JUMPI PUSH2 0x31E8 PUSH2 0x28A2 JUMP JUMPDEST JUMPDEST PUSH1 0x0 PUSH2 0x31F7 DUP7 DUP3 DUP8 ADD PUSH2 0x28F5 JUMP JUMPDEST SWAP4 POP POP PUSH1 0x20 DUP5 ADD CALLDATALOAD PUSH8 0xFFFFFFFFFFFFFFFF DUP2 GT ISZERO PUSH2 0x3218 JUMPI PUSH2 0x3217 PUSH2 0x28A7 JUMP JUMPDEST JUMPDEST PUSH2 0x3224 DUP7 DUP3 DUP8 ADD PUSH2 0x2D5C JUMP JUMPDEST SWAP3 POP POP PUSH1 0x40 DUP5 ADD CALLDATALOAD PUSH8 0xFFFFFFFFFFFFFFFF DUP2 GT ISZERO PUSH2 0x3245 JUMPI PUSH2 0x3244 PUSH2 0x28A7 JUMP JUMPDEST JUMPDEST PUSH2 0x3251 DUP7 DUP3 DUP8 ADD PUSH2 0x2D5C JUMP JUMPDEST SWAP2 POP POP SWAP3 POP SWAP3 POP SWAP3 JUMP JUMPDEST PUSH1 0x0 DUP1 PUSH1 0x0 DUP1 PUSH1 0x80 DUP6 DUP8 SUB SLT ISZERO PUSH2 0x3275 JUMPI PUSH2 0x3274 PUSH2 0x28A2 JUMP JUMPDEST JUMPDEST PUSH1 0x0 PUSH2 0x3283 DUP8 DUP3 DUP9 ADD PUSH2 0x28F5 JUMP JUMPDEST SWAP5 POP POP PUSH1 0x20 PUSH2 0x3294 DUP8 DUP3 DUP9 ADD PUSH2 0x292B JUMP JUMPDEST SWAP4 POP POP PUSH1 0x40 PUSH2 0x32A5 DUP8 DUP3 DUP9 ADD PUSH2 0x292B JUMP JUMPDEST SWAP3 POP POP PUSH1 0x60 DUP6 ADD CALLDATALOAD PUSH8 0xFFFFFFFFFFFFFFFF DUP2 GT ISZERO PUSH2 0x32C6 JUMPI PUSH2 0x32C5 PUSH2 0x28A7 JUMP JUMPDEST JUMPDEST PUSH2 0x32D2 DUP8 DUP3 DUP9 ADD PUSH2 0x2DFD JUMP JUMPDEST SWAP2 POP POP SWAP3 SWAP6 SWAP2 SWAP5 POP SWAP3 POP JUMP JUMPDEST PUSH2 0x32E7 DUP2 PUSH2 0x28CC JUMP JUMPDEST DUP3 MSTORE POP POP JUMP JUMPDEST PUSH1 0x0 PUSH1 0x20 DUP3 ADD SWAP1 POP PUSH2 0x3302 PUSH1 0x0 DUP4 ADD DUP5 PUSH2 0x32DE JUMP JUMPDEST SWAP3 SWAP2 POP POP JUMP JUMPDEST PUSH1 0x0 DUP1 PUSH1 0x40 DUP4 DUP6 SUB SLT ISZERO PUSH2 0x331F JUMPI PUSH2 0x331E PUSH2 0x28A2 JUMP JUMPDEST JUMPDEST PUSH1 0x0 PUSH2 0x332D DUP6 DUP3 DUP7 ADD PUSH2 0x292B JUMP JUMPDEST SWAP3 POP POP PUSH1 0x20 PUSH2 0x333E DUP6 DUP3 DUP7 ADD PUSH2 0x292B JUMP JUMPDEST SWAP2 POP POP SWAP3 POP SWAP3 SWAP1 POP JUMP JUMPDEST PUSH2 0x3351 DUP2 PUSH2 0x2A2F JUMP JUMPDEST DUP2 EQ PUSH2 0x335C JUMPI PUSH1 0x0 DUP1 REVERT JUMPDEST POP JUMP JUMPDEST PUSH1 0x0 DUP2 CALLDATALOAD SWAP1 POP PUSH2 0x336E DUP2 PUSH2 0x3348 JUMP JUMPDEST SWAP3 SWAP2 POP POP JUMP JUMPDEST PUSH1 0x0 DUP1 PUSH1 0x40 DUP4 DUP6 SUB SLT ISZERO PUSH2 0x338B JUMPI PUSH2 0x338A PUSH2 0x28A2 JUMP JUMPDEST JUMPDEST PUSH1 0x0 PUSH2 0x3399 DUP6 DUP3 DUP7 ADD PUSH2 0x28F5 JUMP JUMPDEST SWAP3 POP POP PUSH1 0x20 PUSH2 0x33AA DUP6 DUP3 DUP7 ADD PUSH2 0x335F JUMP JUMPDEST SWAP2 POP POP SWAP3 POP SWAP3 SWAP1 POP JUMP JUMPDEST PUSH1 0x0 DUP1 PUSH1 0x40 DUP4 DUP6 SUB SLT ISZERO PUSH2 0x33CB JUMPI PUSH2 0x33CA PUSH2 0x28A2 JUMP JUMPDEST JUMPDEST PUSH1 0x0 PUSH2 0x33D9 DUP6 DUP3 DUP7 ADD PUSH2 0x28F5 JUMP JUMPDEST SWAP3 POP POP PUSH1 0x20 PUSH2 0x33EA DUP6 DUP3 DUP7 ADD PUSH2 0x28F5 JUMP JUMPDEST SWAP2 POP POP SWAP3 POP SWAP3 SWAP1 POP JUMP JUMPDEST PUSH1 0x0 DUP1 PUSH1 0x0 DUP1 PUSH1 0x0 PUSH1 0xA0 DUP7 DUP9 SUB SLT ISZERO PUSH2 0x3410 JUMPI PUSH2 0x340F PUSH2 0x28A2 JUMP JUMPDEST JUMPDEST PUSH1 0x0 PUSH2 0x341E DUP9 DUP3 DUP10 ADD PUSH2 0x28F5 JUMP JUMPDEST SWAP6 POP POP PUSH1 0x20 PUSH2 0x342F DUP9 DUP3 DUP10 ADD PUSH2 0x28F5 JUMP JUMPDEST SWAP5 POP POP PUSH1 0x40 PUSH2 0x3440 DUP9 DUP3 DUP10 ADD PUSH2 0x292B JUMP JUMPDEST SWAP4 POP POP PUSH1 0x60 PUSH2 0x3451 DUP9 DUP3 DUP10 ADD PUSH2 0x292B JUMP JUMPDEST SWAP3 POP POP PUSH1 0x80 DUP7 ADD CALLDATALOAD PUSH8 0xFFFFFFFFFFFFFFFF DUP2 GT ISZERO PUSH2 0x3472 JUMPI PUSH2 0x3471 PUSH2 0x28A7 JUMP JUMPDEST JUMPDEST PUSH2 0x347E DUP9 DUP3 DUP10 ADD PUSH2 0x2DFD JUMP JUMPDEST SWAP2 POP POP SWAP3 SWAP6 POP SWAP3 SWAP6 SWAP1 SWAP4 POP JUMP JUMPDEST PUSH1 0x0 PUSH1 0x20 DUP3 DUP5 SUB SLT ISZERO PUSH2 0x34A1 JUMPI PUSH2 0x34A0 PUSH2 0x28A2 JUMP JUMPDEST JUMPDEST PUSH1 0x0 PUSH2 0x34AF DUP5 DUP3 DUP6 ADD PUSH2 0x28F5 JUMP JUMPDEST SWAP2 POP POP SWAP3 SWAP2 POP POP JUMP JUMPDEST PUSH1 0x0 DUP1 PUSH1 0x0 PUSH1 0x60 DUP5 DUP7 SUB SLT ISZERO PUSH2 0x34D1 JUMPI PUSH2 0x34D0 PUSH2 0x28A2 JUMP JUMPDEST JUMPDEST PUSH1 0x0 PUSH2 0x34DF DUP7 DUP3 DUP8 ADD PUSH2 0x28F5 JUMP JUMPDEST SWAP4 POP POP PUSH1 0x20 PUSH2 0x34F0 DUP7 DUP3 DUP8 ADD PUSH2 0x292B JUMP JUMPDEST SWAP3 POP POP PUSH1 0x40 PUSH2 0x3501 DUP7 DUP3 DUP8 ADD PUSH2 0x292B JUMP JUMPDEST SWAP2 POP POP SWAP3 POP SWAP3 POP SWAP3 JUMP JUMPDEST PUSH32 0x455243313135353A2061646472657373207A65726F206973206E6F7420612076 PUSH1 0x0 DUP3 ADD MSTORE PUSH32 0x616C6964206F776E657200000000000000000000000000000000000000000000 PUSH1 0x20 DUP3 ADD MSTORE POP JUMP JUMPDEST PUSH1 0x0 PUSH2 0x3567 PUSH1 0x2A DUP4 PUSH2 0x2C2C JUMP JUMPDEST SWAP2 POP PUSH2 0x3572 DUP3 PUSH2 0x350B JUMP JUMPDEST PUSH1 0x40 DUP3 ADD SWAP1 POP SWAP2 SWAP1 POP JUMP JUMPDEST PUSH1 0x0 PUSH1 0x20 DUP3 ADD SWAP1 POP DUP2 DUP2 SUB PUSH1 0x0 DUP4 ADD MSTORE PUSH2 0x3596 DUP2 PUSH2 0x355A JUMP JUMPDEST SWAP1 POP SWAP2 SWAP1 POP JUMP JUMPDEST PUSH32 0x4E487B7100000000000000000000000000000000000000000000000000000000 PUSH1 0x0 MSTORE PUSH1 0x22 PUSH1 0x4 MSTORE PUSH1 0x24 PUSH1 0x0 REVERT JUMPDEST PUSH1 0x0 PUSH1 0x2 DUP3 DIV SWAP1 POP PUSH1 0x1 DUP3 AND DUP1 PUSH2 0x35E4 JUMPI PUSH1 0x7F DUP3 AND SWAP2 POP JUMPDEST PUSH1 0x20 DUP3 LT DUP2 SUB PUSH2 0x35F7 JUMPI PUSH2 0x35F6 PUSH2 0x359D JUMP JUMPDEST JUMPDEST POP SWAP2 SWAP1 POP JUMP JUMPDEST PUSH32 0x455243313135353A2063616C6C6572206973206E6F7420746F6B656E206F776E PUSH1 0x0 DUP3 ADD MSTORE PUSH32 0x6572206F7220617070726F766564000000000000000000000000000000000000 PUSH1 0x20 DUP3 ADD MSTORE POP JUMP JUMPDEST PUSH1 0x0 PUSH2 0x3659 PUSH1 0x2E DUP4 PUSH2 0x2C2C JUMP JUMPDEST SWAP2 POP PUSH2 0x3664 DUP3 PUSH2 0x35FD JUMP JUMPDEST PUSH1 0x40 DUP3 ADD SWAP1 POP SWAP2 SWAP1 POP JUMP JUMPDEST PUSH1 0x0 PUSH1 0x20 DUP3 ADD SWAP1 POP DUP2 DUP2 SUB PUSH1 0x0 DUP4 ADD MSTORE PUSH2 0x3688 DUP2 PUSH2 0x364C JUMP JUMPDEST SWAP1 POP SWAP2 SWAP1 POP JUMP JUMPDEST PUSH32 0x455243313135353A206163636F756E747320616E6420696473206C656E677468 PUSH1 0x0 DUP3 ADD MSTORE PUSH32 0x206D69736D617463680000000000000000000000000000000000000000000000 PUSH1 0x20 DUP3 ADD MSTORE POP JUMP JUMPDEST PUSH1 0x0 PUSH2 0x36EB PUSH1 0x29 DUP4 PUSH2 0x2C2C JUMP JUMPDEST SWAP2 POP PUSH2 0x36F6 DUP3 PUSH2 0x368F JUMP JUMPDEST PUSH1 0x40 DUP3 ADD SWAP1 POP SWAP2 SWAP1 POP JUMP JUMPDEST PUSH1 0x0 PUSH1 0x20 DUP3 ADD SWAP1 POP DUP2 DUP2 SUB PUSH1 0x0 DUP4 ADD MSTORE PUSH2 0x371A DUP2 PUSH2 0x36DE JUMP JUMPDEST SWAP1 POP SWAP2 SWAP1 POP JUMP JUMPDEST PUSH32 0x4E487B7100000000000000000000000000000000000000000000000000000000 PUSH1 0x0 MSTORE PUSH1 0x32 PUSH1 0x4 MSTORE PUSH1 0x24 PUSH1 0x0 REVERT JUMPDEST PUSH32 0x4E487B7100000000000000000000000000000000000000000000000000000000 PUSH1 0x0 MSTORE PUSH1 0x11 PUSH1 0x4 MSTORE PUSH1 0x24 PUSH1 0x0 REVERT JUMPDEST PUSH1 0x0 PUSH2 0x378A DUP3 PUSH2 0x290A JUMP JUMPDEST SWAP2 POP PUSH32 0xFFFFFFFFFFFFFFFFFFFFFFFFFFFFFFFFFFFFFFFFFFFFFFFFFFFFFFFFFFFFFFFF DUP3 SUB PUSH2 0x37BC JUMPI PUSH2 0x37BB PUSH2 0x3750 JUMP JUMPDEST JUMPDEST PUSH1 0x1 DUP3 ADD SWAP1 POP SWAP2 SWAP1 POP JUMP JUMPDEST PUSH32 0x4D697373696E67205265717569726564206D6174657269616C73000000000000 PUSH1 0x0 DUP3 ADD MSTORE POP JUMP JUMPDEST PUSH1 0x0 PUSH2 0x37FD PUSH1 0x1A DUP4 PUSH2 0x2C2C JUMP JUMPDEST SWAP2 POP PUSH2 0x3808 DUP3 PUSH2 0x37C7 JUMP JUMPDEST PUSH1 0x20 DUP3 ADD SWAP1 POP SWAP2 SWAP1 POP JUMP JUMPDEST PUSH1 0x0 PUSH1 0x20 DUP3 ADD SWAP1 POP DUP2 DUP2 SUB PUSH1 0x0 DUP4 ADD MSTORE PUSH2 0x382C DUP2 PUSH2 0x37F0 JUMP JUMPDEST SWAP1 POP SWAP2 SWAP1 POP JUMP JUMPDEST PUSH1 0x0 PUSH2 0x383E DUP3 PUSH2 0x290A JUMP JUMPDEST SWAP2 POP PUSH2 0x3849 DUP4 PUSH2 0x290A JUMP JUMPDEST SWAP3 POP DUP3 DUP3 MUL PUSH2 0x3857 DUP2 PUSH2 0x290A JUMP JUMPDEST SWAP2 POP DUP3 DUP3 DIV DUP5 EQ DUP4 ISZERO OR PUSH2 0x386E JUMPI PUSH2 0x386D PUSH2 0x3750 JUMP JUMPDEST JUMPDEST POP SWAP3 SWAP2 POP POP JUMP JUMPDEST PUSH32 0x4F776E61626C653A206E6577206F776E657220697320746865207A65726F2061 PUSH1 0x0 DUP3 ADD MSTORE PUSH32 0x6464726573730000000000000000000000000000000000000000000000000000 PUSH1 0x20 DUP3 ADD MSTORE POP JUMP JUMPDEST PUSH1 0x0 PUSH2 0x38D1 PUSH1 0x26 DUP4 PUSH2 0x2C2C JUMP JUMPDEST SWAP2 POP PUSH2 0x38DC DUP3 PUSH2 0x3875 JUMP JUMPDEST PUSH1 0x40 DUP3 ADD SWAP1 POP SWAP2 SWAP1 POP JUMP JUMPDEST PUSH1 0x0 PUSH1 0x20 DUP3 ADD SWAP1 POP DUP2 DUP2 SUB PUSH1 0x0 DUP4 ADD MSTORE PUSH2 0x3900 DUP2 PUSH2 0x38C4 JUMP JUMPDEST SWAP1 POP SWAP2 SWAP1 POP JUMP JUMPDEST PUSH32 0x4F776E61626C653A2063616C6C6572206973206E6F7420746865206F776E6572 PUSH1 0x0 DUP3 ADD MSTORE POP JUMP JUMPDEST PUSH1 0x0 PUSH2 0x393D PUSH1 0x20 DUP4 PUSH2 0x2C2C JUMP JUMPDEST SWAP2 POP PUSH2 0x3948 DUP3 PUSH2 0x3907 JUMP JUMPDEST PUSH1 0x20 DUP3 ADD SWAP1 POP SWAP2 SWAP1 POP JUMP JUMPDEST PUSH1 0x0 PUSH1 0x20 DUP3 ADD SWAP1 POP DUP2 DUP2 SUB PUSH1 0x0 DUP4 ADD MSTORE PUSH2 0x396C DUP2 PUSH2 0x3930 JUMP JUMPDEST SWAP1 POP SWAP2 SWAP1 POP JUMP JUMPDEST PUSH1 0x0 DUP2 SWAP1 POP DUP2 PUSH1 0x0 MSTORE PUSH1 0x20 PUSH1 0x0 KECCAK256 SWAP1 POP SWAP2 SWAP1 POP JUMP JUMPDEST PUSH1 0x0 PUSH1 0x20 PUSH1 0x1F DUP4 ADD DIV SWAP1 POP SWAP2 SWAP1 POP JUMP JUMPDEST PUSH1 0x0 DUP3 DUP3 SHL SWAP1 POP SWAP3 SWAP2 POP POP JUMP JUMPDEST PUSH1 0x0 PUSH1 0x8 DUP4 MUL PUSH2 0x39D5 PUSH32 0xFFFFFFFFFFFFFFFFFFFFFFFFFFFFFFFFFFFFFFFFFFFFFFFFFFFFFFFFFFFFFFFF DUP3 PUSH2 0x3998 JUMP JUMPDEST PUSH2 0x39DF DUP7 DUP4 PUSH2 0x3998 JUMP JUMPDEST SWAP6 POP DUP1 NOT DUP5 AND SWAP4 POP DUP1 DUP7 AND DUP5 OR SWAP3 POP POP POP SWAP4 SWAP3 POP POP POP JUMP JUMPDEST PUSH1 0x0 DUP2 SWAP1 POP SWAP2 SWAP1 POP JUMP JUMPDEST PUSH1 0x0 PUSH2 0x3A1C PUSH2 0x3A17 PUSH2 0x3A12 DUP5 PUSH2 0x290A JUMP JUMPDEST PUSH2 0x39F7 JUMP JUMPDEST PUSH2 0x290A JUMP JUMPDEST SWAP1 POP SWAP2 SWAP1 POP JUMP JUMPDEST PUSH1 0x0 DUP2 SWAP1 POP SWAP2 SWAP1 POP JUMP JUMPDEST PUSH2 0x3A36 DUP4 PUSH2 0x3A01 JUMP JUMPDEST PUSH2 0x3A4A PUSH2 0x3A42 DUP3 PUSH2 0x3A23 JUMP JUMPDEST DUP5 DUP5 SLOAD PUSH2 0x39A5 JUMP JUMPDEST DUP3 SSTORE POP POP POP POP JUMP JUMPDEST PUSH1 0x0 SWAP1 JUMP JUMPDEST PUSH2 0x3A5F PUSH2 0x3A52 JUMP JUMPDEST PUSH2 0x3A6A DUP2 DUP5 DUP5 PUSH2 0x3A2D JUMP JUMPDEST POP POP POP JUMP JUMPDEST JUMPDEST DUP2 DUP2 LT ISZERO PUSH2 0x3A8E JUMPI PUSH2 0x3A83 PUSH1 0x0 DUP3 PUSH2 0x3A57 JUMP JUMPDEST PUSH1 0x1 DUP2 ADD SWAP1 POP PUSH2 0x3A70 JUMP JUMPDEST POP POP JUMP JUMPDEST PUSH1 0x1F DUP3 GT ISZERO PUSH2 0x3AD3 JUMPI PUSH2 0x3AA4 DUP2 PUSH2 0x3973 JUMP JUMPDEST PUSH2 0x3AAD DUP5 PUSH2 0x3988 JUMP JUMPDEST DUP2 ADD PUSH1 0x20 DUP6 LT ISZERO PUSH2 0x3ABC JUMPI DUP2 SWAP1 POP JUMPDEST PUSH2 0x3AD0 PUSH2 0x3AC8 DUP6 PUSH2 0x3988 JUMP JUMPDEST DUP4 ADD DUP3 PUSH2 0x3A6F JUMP JUMPDEST POP POP JUMPDEST POP POP POP JUMP JUMPDEST PUSH1 0x0 DUP3 DUP3 SHR SWAP1 POP SWAP3 SWAP2 POP POP JUMP JUMPDEST PUSH1 0x0 PUSH2 0x3AF6 PUSH1 0x0 NOT DUP5 PUSH1 0x8 MUL PUSH2 0x3AD8 JUMP JUMPDEST NOT DUP1 DUP4 AND SWAP2 POP POP SWAP3 SWAP2 POP POP JUMP JUMPDEST PUSH1 0x0 PUSH2 0x3B0F DUP4 DUP4 PUSH2 0x3AE5 JUMP JUMPDEST SWAP2 POP DUP3 PUSH1 0x2 MUL DUP3 OR SWAP1 POP SWAP3 SWAP2 POP POP JUMP JUMPDEST PUSH2 0x3B28 DUP3 PUSH2 0x2C21 JUMP JUMPDEST PUSH8 0xFFFFFFFFFFFFFFFF DUP2 GT ISZERO PUSH2 0x3B41 JUMPI PUSH2 0x3B40 PUSH2 0x2A80 JUMP JUMPDEST JUMPDEST PUSH2 0x3B4B DUP3 SLOAD PUSH2 0x35CC JUMP JUMPDEST PUSH2 0x3B56 DUP3 DUP3 DUP6 PUSH2 0x3A92 JUMP JUMPDEST PUSH1 0x0 PUSH1 0x20 SWAP1 POP PUSH1 0x1F DUP4 GT PUSH1 0x1 DUP2 EQ PUSH2 0x3B89 JUMPI PUSH1 0x0 DUP5 ISZERO PUSH2 0x3B77 JUMPI DUP3 DUP8 ADD MLOAD SWAP1 POP JUMPDEST PUSH2 0x3B81 DUP6 DUP3 PUSH2 0x3B03 JUMP JUMPDEST DUP7 SSTORE POP PUSH2 0x3BE9 JUMP JUMPDEST PUSH1 0x1F NOT DUP5 AND PUSH2 0x3B97 DUP7 PUSH2 0x3973 JUMP JUMPDEST PUSH1 0x0 JUMPDEST DUP3 DUP2 LT ISZERO PUSH2 0x3BBF JUMPI DUP5 DUP10 ADD MLOAD DUP3 SSTORE PUSH1 0x1 DUP3 ADD SWAP2 POP PUSH1 0x20 DUP6 ADD SWAP5 POP PUSH1 0x20 DUP2 ADD SWAP1 POP PUSH2 0x3B9A JUMP JUMPDEST DUP7 DUP4 LT ISZERO PUSH2 0x3BDC JUMPI DUP5 DUP10 ADD MLOAD PUSH2 0x3BD8 PUSH1 0x1F DUP10 AND DUP3 PUSH2 0x3AE5 JUMP JUMPDEST DUP4 SSTORE POP JUMPDEST PUSH1 0x1 PUSH1 0x2 DUP9 MUL ADD DUP9 SSTORE POP POP POP JUMPDEST POP POP POP POP POP POP JUMP JUMPDEST PUSH32 0x455243313135353A206D696E7420746F20746865207A65726F20616464726573 PUSH1 0x0 DUP3 ADD MSTORE PUSH32 0x7300000000000000000000000000000000000000000000000000000000000000 PUSH1 0x20 DUP3 ADD MSTORE POP JUMP JUMPDEST PUSH1 0x0 PUSH2 0x3C4D PUSH1 0x21 DUP4 PUSH2 0x2C2C JUMP JUMPDEST SWAP2 POP PUSH2 0x3C58 DUP3 PUSH2 0x3BF1 JUMP JUMPDEST PUSH1 0x40 DUP3 ADD SWAP1 POP SWAP2 SWAP1 POP JUMP JUMPDEST PUSH1 0x0 PUSH1 0x20 DUP3 ADD SWAP1 POP DUP2 DUP2 SUB PUSH1 0x0 DUP4 ADD MSTORE PUSH2 0x3C7C DUP2 PUSH2 0x3C40 JUMP JUMPDEST SWAP1 POP SWAP2 SWAP1 POP JUMP JUMPDEST PUSH32 0x455243313135353A2069647320616E6420616D6F756E7473206C656E67746820 PUSH1 0x0 DUP3 ADD MSTORE PUSH32 0x6D69736D61746368000000000000000000000000000000000000000000000000 PUSH1 0x20 DUP3 ADD MSTORE POP JUMP JUMPDEST PUSH1 0x0 PUSH2 0x3CDF PUSH1 0x28 DUP4 PUSH2 0x2C2C JUMP JUMPDEST SWAP2 POP PUSH2 0x3CEA DUP3 PUSH2 0x3C83 JUMP JUMPDEST PUSH1 0x40 DUP3 ADD SWAP1 POP SWAP2 SWAP1 POP JUMP JUMPDEST PUSH1 0x0 PUSH1 0x20 DUP3 ADD SWAP1 POP DUP2 DUP2 SUB PUSH1 0x0 DUP4 ADD MSTORE PUSH2 0x3D0E DUP2 PUSH2 0x3CD2 JUMP JUMPDEST SWAP1 POP SWAP2 SWAP1 POP JUMP JUMPDEST PUSH1 0x0 PUSH2 0x3D20 DUP3 PUSH2 0x290A JUMP JUMPDEST SWAP2 POP PUSH2 0x3D2B DUP4 PUSH2 0x290A JUMP JUMPDEST SWAP3 POP DUP3 DUP3 ADD SWAP1 POP DUP1 DUP3 GT ISZERO PUSH2 0x3D43 JUMPI PUSH2 0x3D42 PUSH2 0x3750 JUMP JUMPDEST JUMPDEST SWAP3 SWAP2 POP POP JUMP JUMPDEST PUSH1 0x0 PUSH1 0x40 DUP3 ADD SWAP1 POP DUP2 DUP2 SUB PUSH1 0x0 DUP4 ADD MSTORE PUSH2 0x3D63 DUP2 DUP6 PUSH2 0x3150 JUMP JUMPDEST SWAP1 POP DUP2 DUP2 SUB PUSH1 0x20 DUP4 ADD MSTORE PUSH2 0x3D77 DUP2 DUP5 PUSH2 0x3150 JUMP JUMPDEST SWAP1 POP SWAP4 SWAP3 POP POP POP JUMP JUMPDEST PUSH32 0x455243313135353A207472616E7366657220746F20746865207A65726F206164 PUSH1 0x0 DUP3 ADD MSTORE PUSH32 0x6472657373000000000000000000000000000000000000000000000000000000 PUSH1 0x20 DUP3 ADD MSTORE POP JUMP JUMPDEST PUSH1 0x0 PUSH2 0x3DDC PUSH1 0x25 DUP4 PUSH2 0x2C2C JUMP JUMPDEST SWAP2 POP PUSH2 0x3DE7 DUP3 PUSH2 0x3D80 JUMP JUMPDEST PUSH1 0x40 DUP3 ADD SWAP1 POP SWAP2 SWAP1 POP JUMP JUMPDEST PUSH1 0x0 PUSH1 0x20 DUP3 ADD SWAP1 POP DUP2 DUP2 SUB PUSH1 0x0 DUP4 ADD MSTORE PUSH2 0x3E0B DUP2 PUSH2 0x3DCF JUMP JUMPDEST SWAP1 POP SWAP2 SWAP1 POP JUMP JUMPDEST PUSH32 0x455243313135353A20696E73756666696369656E742062616C616E636520666F PUSH1 0x0 DUP3 ADD MSTORE PUSH32 0x72207472616E7366657200000000000000000000000000000000000000000000 PUSH1 0x20 DUP3 ADD MSTORE POP JUMP JUMPDEST PUSH1 0x0 PUSH2 0x3E6E PUSH1 0x2A DUP4 PUSH2 0x2C2C JUMP JUMPDEST SWAP2 POP PUSH2 0x3E79 DUP3 PUSH2 0x3E12 JUMP JUMPDEST PUSH1 0x40 DUP3 ADD SWAP1 POP SWAP2 SWAP1 POP JUMP JUMPDEST PUSH1 0x0 PUSH1 0x20 DUP3 ADD SWAP1 POP DUP2 DUP2 SUB PUSH1 0x0 DUP4 ADD MSTORE PUSH2 0x3E9D DUP2 PUSH2 0x3E61 JUMP JUMPDEST SWAP1 POP SWAP2 SWAP1 POP JUMP JUMPDEST PUSH32 0x455243313135353A206275726E2066726F6D20746865207A65726F2061646472 PUSH1 0x0 DUP3 ADD MSTORE PUSH32 0x6573730000000000000000000000000000000000000000000000000000000000 PUSH1 0x20 DUP3 ADD MSTORE POP JUMP JUMPDEST PUSH1 0x0 PUSH2 0x3F00 PUSH1 0x23 DUP4 PUSH2 0x2C2C JUMP JUMPDEST SWAP2 POP PUSH2 0x3F0B DUP3 PUSH2 0x3EA4 JUMP JUMPDEST PUSH1 0x40 DUP3 ADD SWAP1 POP SWAP2 SWAP1 POP JUMP JUMPDEST PUSH1 0x0 PUSH1 0x20 DUP3 ADD SWAP1 POP DUP2 DUP2 SUB PUSH1 0x0 DUP4 ADD MSTORE PUSH2 0x3F2F DUP2 PUSH2 0x3EF3 JUMP JUMPDEST SWAP1 POP SWAP2 SWAP1 POP JUMP JUMPDEST PUSH32 0x455243313135353A206275726E20616D6F756E7420657863656564732062616C PUSH1 0x0 DUP3 ADD MSTORE PUSH32 0x616E636500000000000000000000000000000000000000000000000000000000 PUSH1 0x20 DUP3 ADD MSTORE POP JUMP JUMPDEST PUSH1 0x0 PUSH2 0x3F92 PUSH1 0x24 DUP4 PUSH2 0x2C2C JUMP JUMPDEST SWAP2 POP PUSH2 0x3F9D DUP3 PUSH2 0x3F36 JUMP JUMPDEST PUSH1 0x40 DUP3 ADD SWAP1 POP SWAP2 SWAP1 POP JUMP JUMPDEST PUSH1 0x0 PUSH1 0x20 DUP3 ADD SWAP1 POP DUP2 DUP2 SUB PUSH1 0x0 DUP4 ADD MSTORE PUSH2 0x3FC1 DUP2 PUSH2 0x3F85 JUMP JUMPDEST SWAP1 POP SWAP2 SWAP1 POP JUMP JUMPDEST PUSH1 0x0 PUSH1 0x40 DUP3 ADD SWAP1 POP PUSH2 0x3FDD PUSH1 0x0 DUP4 ADD DUP6 PUSH2 0x2980 JUMP JUMPDEST PUSH2 0x3FEA PUSH1 0x20 DUP4 ADD DUP5 PUSH2 0x2980 JUMP JUMPDEST SWAP4 SWAP3 POP POP POP JUMP JUMPDEST PUSH32 0x455243313135353A2073657474696E6720617070726F76616C20737461747573 PUSH1 0x0 DUP3 ADD MSTORE PUSH32 0x20666F722073656C660000000000000000000000000000000000000000000000 PUSH1 0x20 DUP3 ADD MSTORE POP JUMP JUMPDEST PUSH1 0x0 PUSH2 0x404D PUSH1 0x29 DUP4 PUSH2 0x2C2C JUMP JUMPDEST SWAP2 POP PUSH2 0x4058 DUP3 PUSH2 0x3FF1 JUMP JUMPDEST PUSH1 0x40 DUP3 ADD SWAP1 POP SWAP2 SWAP1 POP JUMP JUMPDEST PUSH1 0x0 PUSH1 0x20 DUP3 ADD SWAP1 POP DUP2 DUP2 SUB PUSH1 0x0 DUP4 ADD MSTORE PUSH2 0x407C DUP2 PUSH2 0x4040 JUMP JUMPDEST SWAP1 POP SWAP2 SWAP1 POP JUMP JUMPDEST PUSH1 0x0 DUP2 MLOAD SWAP1 POP SWAP2 SWAP1 POP JUMP JUMPDEST PUSH1 0x0 DUP3 DUP3 MSTORE PUSH1 0x20 DUP3 ADD SWAP1 POP SWAP3 SWAP2 POP POP JUMP JUMPDEST PUSH1 0x0 PUSH2 0x40AA DUP3 PUSH2 0x4083 JUMP JUMPDEST PUSH2 0x40B4 DUP2 DUP6 PUSH2 0x408E JUMP JUMPDEST SWAP4 POP PUSH2 0x40C4 DUP2 DUP6 PUSH1 0x20 DUP7 ADD PUSH2 0x2C3D JUMP JUMPDEST PUSH2 0x40CD DUP2 PUSH2 0x2A6F JUMP JUMPDEST DUP5 ADD SWAP2 POP POP SWAP3 SWAP2 POP POP JUMP JUMPDEST PUSH1 0x0 PUSH1 0xA0 DUP3 ADD SWAP1 POP PUSH2 0x40ED PUSH1 0x0 DUP4 ADD DUP9 PUSH2 0x32DE JUMP JUMPDEST PUSH2 0x40FA PUSH1 0x20 DUP4 ADD DUP8 PUSH2 0x32DE JUMP JUMPDEST DUP2 DUP2 SUB PUSH1 0x40 DUP4 ADD MSTORE PUSH2 0x410C DUP2 DUP7 PUSH2 0x3150 JUMP JUMPDEST SWAP1 POP DUP2 DUP2 SUB PUSH1 0x60 DUP4 ADD MSTORE PUSH2 0x4120 DUP2 DUP6 PUSH2 0x3150 JUMP JUMPDEST SWAP1 POP DUP2 DUP2 SUB PUSH1 0x80 DUP4 ADD MSTORE PUSH2 0x4134 DUP2 DUP5 PUSH2 0x409F JUMP JUMPDEST SWAP1 POP SWAP7 SWAP6 POP POP POP POP POP POP JUMP JUMPDEST PUSH1 0x0 DUP2 MLOAD SWAP1 POP PUSH2 0x414F DUP2 PUSH2 0x29D6 JUMP JUMPDEST SWAP3 SWAP2 POP POP JUMP JUMPDEST PUSH1 0x0 PUSH1 0x20 DUP3 DUP5 SUB SLT ISZERO PUSH2 0x416B JUMPI PUSH2 0x416A PUSH2 0x28A2 JUMP JUMPDEST JUMPDEST PUSH1 0x0 PUSH2 0x4179 DUP5 DUP3 DUP6 ADD PUSH2 0x4140 JUMP JUMPDEST SWAP2 POP POP SWAP3 SWAP2 POP POP JUMP JUMPDEST PUSH1 0x0 DUP2 PUSH1 0xE0 SHR SWAP1 POP SWAP2 SWAP1 POP JUMP JUMPDEST PUSH1 0x0 PUSH1 0x3 RETURNDATASIZE GT ISZERO PUSH2 0x41AE JUMPI PUSH1 0x4 PUSH1 0x0 DUP1 RETURNDATACOPY PUSH2 0x41AB PUSH1 0x0 MLOAD PUSH2 0x4182 JUMP JUMPDEST SWAP1 POP JUMPDEST SWAP1 JUMP JUMPDEST PUSH1 0x0 PUSH1 0x44 RETURNDATASIZE LT PUSH2 0x423E JUMPI PUSH2 0x41C3 PUSH2 0x2898 JUMP JUMPDEST PUSH1 0x4 RETURNDATASIZE SUB PUSH1 0x4 DUP3 RETURNDATACOPY DUP1 MLOAD RETURNDATASIZE PUSH1 0x24 DUP3 ADD GT PUSH8 0xFFFFFFFFFFFFFFFF DUP3 GT OR ISZERO PUSH2 0x41EB JUMPI POP POP PUSH2 0x423E JUMP JUMPDEST DUP1 DUP3 ADD DUP1 MLOAD PUSH8 0xFFFFFFFFFFFFFFFF DUP2 GT ISZERO PUSH2 0x4209 JUMPI POP POP POP POP PUSH2 0x423E JUMP JUMPDEST DUP1 PUSH1 0x20 DUP4 ADD ADD PUSH1 0x4 RETURNDATASIZE SUB DUP6 ADD DUP2 GT ISZERO PUSH2 0x4226 JUMPI POP POP POP POP POP PUSH2 0x423E JUMP JUMPDEST PUSH2 0x4235 DUP3 PUSH1 0x20 ADD DUP6 ADD DUP7 PUSH2 0x2AAF JUMP JUMPDEST DUP3 SWAP6 POP POP POP POP POP POP JUMPDEST SWAP1 JUMP JUMPDEST PUSH32 0x455243313135353A207472616E7366657220746F206E6F6E2D45524331313535 PUSH1 0x0 DUP3 ADD MSTORE PUSH32 0x526563656976657220696D706C656D656E746572000000000000000000000000 PUSH1 0x20 DUP3 ADD MSTORE POP JUMP JUMPDEST PUSH1 0x0 PUSH2 0x429D PUSH1 0x34 DUP4 PUSH2 0x2C2C JUMP JUMPDEST SWAP2 POP PUSH2 0x42A8 DUP3 PUSH2 0x4241 JUMP JUMPDEST PUSH1 0x40 DUP3 ADD SWAP1 POP SWAP2 SWAP1 POP JUMP JUMPDEST PUSH1 0x0 PUSH1 0x20 DUP3 ADD SWAP1 POP DUP2 DUP2 SUB PUSH1 0x0 DUP4 ADD MSTORE PUSH2 0x42CC DUP2 PUSH2 0x4290 JUMP JUMPDEST SWAP1 POP SWAP2 SWAP1 POP JUMP JUMPDEST PUSH32 0x455243313135353A204552433131353552656365697665722072656A65637465 PUSH1 0x0 DUP3 ADD MSTORE PUSH32 0x6420746F6B656E73000000000000000000000000000000000000000000000000 PUSH1 0x20 DUP3 ADD MSTORE POP JUMP JUMPDEST PUSH1 0x0 PUSH2 0x432F PUSH1 0x28 DUP4 PUSH2 0x2C2C JUMP JUMPDEST SWAP2 POP PUSH2 0x433A DUP3 PUSH2 0x42D3 JUMP JUMPDEST PUSH1 0x40 DUP3 ADD SWAP1 POP SWAP2 SWAP1 POP JUMP JUMPDEST PUSH1 0x0 PUSH1 0x20 DUP3 ADD SWAP1 POP DUP2 DUP2 SUB PUSH1 0x0 DUP4 ADD MSTORE PUSH2 0x435E DUP2 PUSH2 0x4322 JUMP JUMPDEST SWAP1 POP SWAP2 SWAP1 POP JUMP JUMPDEST PUSH1 0x0 PUSH1 0xA0 DUP3 ADD SWAP1 POP PUSH2 0x437A PUSH1 0x0 DUP4 ADD DUP9 PUSH2 0x32DE JUMP JUMPDEST PUSH2 0x4387 PUSH1 0x20 DUP4 ADD DUP8 PUSH2 0x32DE JUMP JUMPDEST PUSH2 0x4394 PUSH1 0x40 DUP4 ADD DUP7 PUSH2 0x2980 JUMP JUMPDEST PUSH2 0x43A1 PUSH1 0x60 DUP4 ADD DUP6 PUSH2 0x2980 JUMP JUMPDEST DUP2 DUP2 SUB PUSH1 0x80 DUP4 ADD MSTORE PUSH2 0x43B3 DUP2 DUP5 PUSH2 0x409F JUMP JUMPDEST SWAP1 POP SWAP7 SWAP6 POP POP POP POP POP POP JUMP JUMPDEST PUSH32 0x455243313135353A206275726E20616D6F756E74206578636565647320746F74 PUSH1 0x0 DUP3 ADD MSTORE PUSH32 0x616C537570706C79000000000000000000000000000000000000000000000000 PUSH1 0x20 DUP3 ADD MSTORE POP JUMP JUMPDEST PUSH1 0x0 PUSH2 0x441B PUSH1 0x28 DUP4 PUSH2 0x2C2C JUMP JUMPDEST SWAP2 POP PUSH2 0x4426 DUP3 PUSH2 0x43BF JUMP JUMPDEST PUSH1 0x40 DUP3 ADD SWAP1 POP SWAP2 SWAP1 POP JUMP JUMPDEST PUSH1 0x0 PUSH1 0x20 DUP3 ADD SWAP1 POP DUP2 DUP2 SUB PUSH1 0x0 DUP4 ADD MSTORE PUSH2 0x444A DUP2 PUSH2 0x440E JUMP JUMPDEST SWAP1 POP SWAP2 SWAP1 POP JUMP INVALID LOG2 PUSH5 0x6970667358 0x22 SLT KECCAK256 DUP7 0xE3 PUSH28 0x715762C7540F1074A9596F1A2C86D0BF8130A95ABA15F98C71DBF89B PUSH13 0x64736F6C634300081200330000 "
		},
		"gasEstimates": {
			"creation": {
				"codeDepositCost": "3508600",
				"executionCost": "infinite",
				"totalCost": "infinite"
			},
			"external": {
				"BRONZE_BAR()": "418",
				"BRONZE_FULL_HELM()": "418",
				"BRONZE_LONGSWORD()": "461",
				"BRONZE_PICKAXE()": "396",
				"BRONZE_PLATEBODY()": "419",
				"BRONZE_PLATELEGS()": "463",
				"CANTO_ORE()": "374",
				"COPPER_ORE()": "440",
				"FISHING_ROD()": "440",
				"GOLD()": "441",
				"IRON_LONGSWORD()": "397",
				"IRON_ORE()": "375",
				"IRON_PICKAXE()": "397",
				"RAW_LOBSTER()": "462",
				"RAW_SHARK()": "463",
				"RAW_SHRIMP()": "375",
				"RUNE_LONGSWORD()": "440",
				"RUNE_ORE()": "396",
				"RUNE_PICKAXE()": "442",
				"TIN_ORE()": "374",
				"balanceOf(address,uint256)": "infinite",
				"balanceOfBatch(address[],uint256[])": "infinite",
				"burn(address,uint256,uint256)": "infinite",
				"burnBatch(address,uint256[],uint256[])": "infinite",
				"craftItems(uint256,uint256)": "infinite",
				"exists(uint256)": "2947",
				"isApprovedForAll(address,address)": "infinite",
				"mint(address,uint256,uint256,bytes)": "infinite",
				"mintBatch(address,uint256[],uint256[],bytes)": "infinite",
				"owner()": "2634",
				"renounceOwnership()": "30531",
				"safeBatchTransferFrom(address,address,uint256[],uint256[],bytes)": "infinite",
				"safeTransferFrom(address,address,uint256,uint256,bytes)": "infinite",
				"setApprovalForAll(address,bool)": "infinite",
				"setURI(string)": "infinite",
				"smithOre(uint256,uint256)": "infinite",
				"supportsInterface(bytes4)": "842",
				"totalSupply(uint256)": "infinite",
				"transferOwnership(address)": "30832",
				"uri(uint256)": "infinite"
			},
			"internal": {
				"_beforeTokenTransfer(address,address,address,uint256[] memory,uint256[] memory,bytes memory)": "infinite"
			}
		},
		"methodIdentifiers": {
			"BRONZE_BAR()": "de5f30ce",
			"BRONZE_FULL_HELM()": "a761112d",
			"BRONZE_LONGSWORD()": "fc289743",
			"BRONZE_PICKAXE()": "5e7e35f1",
			"BRONZE_PLATEBODY()": "83614c29",
			"BRONZE_PLATELEGS()": "4048dde6",
			"CANTO_ORE()": "d74552e3",
			"COPPER_ORE()": "b7d2cd80",
			"FISHING_ROD()": "6b5c0f0a",
			"GOLD()": "3e4bee38",
			"IRON_LONGSWORD()": "4d6826c1",
			"IRON_ORE()": "497e0708",
			"IRON_PICKAXE()": "7efd0484",
			"RAW_LOBSTER()": "e82d4b0c",
			"RAW_SHARK()": "55e4907f",
			"RAW_SHRIMP()": "10d03cd1",
			"RUNE_LONGSWORD()": "e251c98e",
			"RUNE_ORE()": "dd17b571",
			"RUNE_PICKAXE()": "086f273e",
			"TIN_ORE()": "5725c9a0",
			"balanceOf(address,uint256)": "00fdd58e",
			"balanceOfBatch(address[],uint256[])": "4e1273f4",
			"burn(address,uint256,uint256)": "f5298aca",
			"burnBatch(address,uint256[],uint256[])": "6b20c454",
			"craftItems(uint256,uint256)": "a550ac7d",
			"exists(uint256)": "4f558e79",
			"isApprovedForAll(address,address)": "e985e9c5",
			"mint(address,uint256,uint256,bytes)": "731133e9",
			"mintBatch(address,uint256[],uint256[],bytes)": "1f7fdffa",
			"owner()": "8da5cb5b",
			"renounceOwnership()": "715018a6",
			"safeBatchTransferFrom(address,address,uint256[],uint256[],bytes)": "2eb2c2d6",
			"safeTransferFrom(address,address,uint256,uint256,bytes)": "f242432a",
			"setApprovalForAll(address,bool)": "a22cb465",
			"setURI(string)": "02fe5305",
			"smithOre(uint256,uint256)": "96c2918b",
			"supportsInterface(bytes4)": "01ffc9a7",
			"totalSupply(uint256)": "bd85b039",
			"transferOwnership(address)": "f2fde38b",
			"uri(uint256)": "0e89341c"
		}
	},
	"abi": [
		{
			"inputs": [],
			"stateMutability": "nonpayable",
			"type": "constructor"
		},
		{
			"anonymous": false,
			"inputs": [
				{
					"indexed": true,
					"internalType": "address",
					"name": "account",
					"type": "address"
				},
				{
					"indexed": true,
					"internalType": "address",
					"name": "operator",
					"type": "address"
				},
				{
					"indexed": false,
					"internalType": "bool",
					"name": "approved",
					"type": "bool"
				}
			],
			"name": "ApprovalForAll",
			"type": "event"
		},
		{
			"anonymous": false,
			"inputs": [
				{
					"indexed": true,
					"internalType": "address",
					"name": "previousOwner",
					"type": "address"
				},
				{
					"indexed": true,
					"internalType": "address",
					"name": "newOwner",
					"type": "address"
				}
			],
			"name": "OwnershipTransferred",
			"type": "event"
		},
		{
			"anonymous": false,
			"inputs": [
				{
					"indexed": true,
					"internalType": "address",
					"name": "operator",
					"type": "address"
				},
				{
					"indexed": true,
					"internalType": "address",
					"name": "from",
					"type": "address"
				},
				{
					"indexed": true,
					"internalType": "address",
					"name": "to",
					"type": "address"
				},
				{
					"indexed": false,
					"internalType": "uint256[]",
					"name": "ids",
					"type": "uint256[]"
				},
				{
					"indexed": false,
					"internalType": "uint256[]",
					"name": "values",
					"type": "uint256[]"
				}
			],
			"name": "TransferBatch",
			"type": "event"
		},
		{
			"anonymous": false,
			"inputs": [
				{
					"indexed": true,
					"internalType": "address",
					"name": "operator",
					"type": "address"
				},
				{
					"indexed": true,
					"internalType": "address",
					"name": "from",
					"type": "address"
				},
				{
					"indexed": true,
					"internalType": "address",
					"name": "to",
					"type": "address"
				},
				{
					"indexed": false,
					"internalType": "uint256",
					"name": "id",
					"type": "uint256"
				},
				{
					"indexed": false,
					"internalType": "uint256",
					"name": "value",
					"type": "uint256"
				}
			],
			"name": "TransferSingle",
			"type": "event"
		},
		{
			"anonymous": false,
			"inputs": [
				{
					"indexed": false,
					"internalType": "string",
					"name": "value",
					"type": "string"
				},
				{
					"indexed": true,
					"internalType": "uint256",
					"name": "id",
					"type": "uint256"
				}
			],
			"name": "URI",
			"type": "event"
		},
		{
			"inputs": [],
			"name": "BRONZE_BAR",
			"outputs": [
				{
					"internalType": "uint256",
					"name": "",
					"type": "uint256"
				}
			],
			"stateMutability": "view",
			"type": "function"
		},
		{
			"inputs": [],
			"name": "BRONZE_FULL_HELM",
			"outputs": [
				{
					"internalType": "uint256",
					"name": "",
					"type": "uint256"
				}
			],
			"stateMutability": "view",
			"type": "function"
		},
		{
			"inputs": [],
			"name": "BRONZE_LONGSWORD",
			"outputs": [
				{
					"internalType": "uint256",
					"name": "",
					"type": "uint256"
				}
			],
			"stateMutability": "view",
			"type": "function"
		},
		{
			"inputs": [],
			"name": "BRONZE_PICKAXE",
			"outputs": [
				{
					"internalType": "uint256",
					"name": "",
					"type": "uint256"
				}
			],
			"stateMutability": "view",
			"type": "function"
		},
		{
			"inputs": [],
			"name": "BRONZE_PLATEBODY",
			"outputs": [
				{
					"internalType": "uint256",
					"name": "",
					"type": "uint256"
				}
			],
			"stateMutability": "view",
			"type": "function"
		},
		{
			"inputs": [],
			"name": "BRONZE_PLATELEGS",
			"outputs": [
				{
					"internalType": "uint256",
					"name": "",
					"type": "uint256"
				}
			],
			"stateMutability": "view",
			"type": "function"
		},
		{
			"inputs": [],
			"name": "CANTO_ORE",
			"outputs": [
				{
					"internalType": "uint256",
					"name": "",
					"type": "uint256"
				}
			],
			"stateMutability": "view",
			"type": "function"
		},
		{
			"inputs": [],
			"name": "COPPER_ORE",
			"outputs": [
				{
					"internalType": "uint256",
					"name": "",
					"type": "uint256"
				}
			],
			"stateMutability": "view",
			"type": "function"
		},
		{
			"inputs": [],
			"name": "FISHING_ROD",
			"outputs": [
				{
					"internalType": "uint256",
					"name": "",
					"type": "uint256"
				}
			],
			"stateMutability": "view",
			"type": "function"
		},
		{
			"inputs": [],
			"name": "GOLD",
			"outputs": [
				{
					"internalType": "uint256",
					"name": "",
					"type": "uint256"
				}
			],
			"stateMutability": "view",
			"type": "function"
		},
		{
			"inputs": [],
			"name": "IRON_LONGSWORD",
			"outputs": [
				{
					"internalType": "uint256",
					"name": "",
					"type": "uint256"
				}
			],
			"stateMutability": "view",
			"type": "function"
		},
		{
			"inputs": [],
			"name": "IRON_ORE",
			"outputs": [
				{
					"internalType": "uint256",
					"name": "",
					"type": "uint256"
				}
			],
			"stateMutability": "view",
			"type": "function"
		},
		{
			"inputs": [],
			"name": "IRON_PICKAXE",
			"outputs": [
				{
					"internalType": "uint256",
					"name": "",
					"type": "uint256"
				}
			],
			"stateMutability": "view",
			"type": "function"
		},
		{
			"inputs": [],
			"name": "RAW_LOBSTER",
			"outputs": [
				{
					"internalType": "uint256",
					"name": "",
					"type": "uint256"
				}
			],
			"stateMutability": "view",
			"type": "function"
		},
		{
			"inputs": [],
			"name": "RAW_SHARK",
			"outputs": [
				{
					"internalType": "uint256",
					"name": "",
					"type": "uint256"
				}
			],
			"stateMutability": "view",
			"type": "function"
		},
		{
			"inputs": [],
			"name": "RAW_SHRIMP",
			"outputs": [
				{
					"internalType": "uint256",
					"name": "",
					"type": "uint256"
				}
			],
			"stateMutability": "view",
			"type": "function"
		},
		{
			"inputs": [],
			"name": "RUNE_LONGSWORD",
			"outputs": [
				{
					"internalType": "uint256",
					"name": "",
					"type": "uint256"
				}
			],
			"stateMutability": "view",
			"type": "function"
		},
		{
			"inputs": [],
			"name": "RUNE_ORE",
			"outputs": [
				{
					"internalType": "uint256",
					"name": "",
					"type": "uint256"
				}
			],
			"stateMutability": "view",
			"type": "function"
		},
		{
			"inputs": [],
			"name": "RUNE_PICKAXE",
			"outputs": [
				{
					"internalType": "uint256",
					"name": "",
					"type": "uint256"
				}
			],
			"stateMutability": "view",
			"type": "function"
		},
		{
			"inputs": [],
			"name": "TIN_ORE",
			"outputs": [
				{
					"internalType": "uint256",
					"name": "",
					"type": "uint256"
				}
			],
			"stateMutability": "view",
			"type": "function"
		},
		{
			"inputs": [
				{
					"internalType": "address",
					"name": "account",
					"type": "address"
				},
				{
					"internalType": "uint256",
					"name": "id",
					"type": "uint256"
				}
			],
			"name": "balanceOf",
			"outputs": [
				{
					"internalType": "uint256",
					"name": "",
					"type": "uint256"
				}
			],
			"stateMutability": "view",
			"type": "function"
		},
		{
			"inputs": [
				{
					"internalType": "address[]",
					"name": "accounts",
					"type": "address[]"
				},
				{
					"internalType": "uint256[]",
					"name": "ids",
					"type": "uint256[]"
				}
			],
			"name": "balanceOfBatch",
			"outputs": [
				{
					"internalType": "uint256[]",
					"name": "",
					"type": "uint256[]"
				}
			],
			"stateMutability": "view",
			"type": "function"
		},
		{
			"inputs": [
				{
					"internalType": "address",
					"name": "account",
					"type": "address"
				},
				{
					"internalType": "uint256",
					"name": "id",
					"type": "uint256"
				},
				{
					"internalType": "uint256",
					"name": "value",
					"type": "uint256"
				}
			],
			"name": "burn",
			"outputs": [],
			"stateMutability": "nonpayable",
			"type": "function"
		},
		{
			"inputs": [
				{
					"internalType": "address",
					"name": "account",
					"type": "address"
				},
				{
					"internalType": "uint256[]",
					"name": "ids",
					"type": "uint256[]"
				},
				{
					"internalType": "uint256[]",
					"name": "values",
					"type": "uint256[]"
				}
			],
			"name": "burnBatch",
			"outputs": [],
			"stateMutability": "nonpayable",
			"type": "function"
		},
		{
			"inputs": [
				{
					"internalType": "uint256",
					"name": "_itemId",
					"type": "uint256"
				},
				{
					"internalType": "uint256",
					"name": "_amount",
					"type": "uint256"
				}
			],
			"name": "craftItems",
			"outputs": [],
			"stateMutability": "nonpayable",
			"type": "function"
		},
		{
			"inputs": [
				{
					"internalType": "uint256",
					"name": "id",
					"type": "uint256"
				}
			],
			"name": "exists",
			"outputs": [
				{
					"internalType": "bool",
					"name": "",
					"type": "bool"
				}
			],
			"stateMutability": "view",
			"type": "function"
		},
		{
			"inputs": [
				{
					"internalType": "address",
					"name": "account",
					"type": "address"
				},
				{
					"internalType": "address",
					"name": "operator",
					"type": "address"
				}
			],
			"name": "isApprovedForAll",
			"outputs": [
				{
					"internalType": "bool",
					"name": "",
					"type": "bool"
				}
			],
			"stateMutability": "view",
			"type": "function"
		},
		{
			"inputs": [
				{
					"internalType": "address",
					"name": "account",
					"type": "address"
				},
				{
					"internalType": "uint256",
					"name": "id",
					"type": "uint256"
				},
				{
					"internalType": "uint256",
					"name": "amount",
					"type": "uint256"
				},
				{
					"internalType": "bytes",
					"name": "data",
					"type": "bytes"
				}
			],
			"name": "mint",
			"outputs": [],
			"stateMutability": "nonpayable",
			"type": "function"
		},
		{
			"inputs": [
				{
					"internalType": "address",
					"name": "to",
					"type": "address"
				},
				{
					"internalType": "uint256[]",
					"name": "ids",
					"type": "uint256[]"
				},
				{
					"internalType": "uint256[]",
					"name": "amounts",
					"type": "uint256[]"
				},
				{
					"internalType": "bytes",
					"name": "data",
					"type": "bytes"
				}
			],
			"name": "mintBatch",
			"outputs": [],
			"stateMutability": "nonpayable",
			"type": "function"
		},
		{
			"inputs": [],
			"name": "owner",
			"outputs": [
				{
					"internalType": "address",
					"name": "",
					"type": "address"
				}
			],
			"stateMutability": "view",
			"type": "function"
		},
		{
			"inputs": [],
			"name": "renounceOwnership",
			"outputs": [],
			"stateMutability": "nonpayable",
			"type": "function"
		},
		{
			"inputs": [
				{
					"internalType": "address",
					"name": "from",
					"type": "address"
				},
				{
					"internalType": "address",
					"name": "to",
					"type": "address"
				},
				{
					"internalType": "uint256[]",
					"name": "ids",
					"type": "uint256[]"
				},
				{
					"internalType": "uint256[]",
					"name": "amounts",
					"type": "uint256[]"
				},
				{
					"internalType": "bytes",
					"name": "data",
					"type": "bytes"
				}
			],
			"name": "safeBatchTransferFrom",
			"outputs": [],
			"stateMutability": "nonpayable",
			"type": "function"
		},
		{
			"inputs": [
				{
					"internalType": "address",
					"name": "from",
					"type": "address"
				},
				{
					"internalType": "address",
					"name": "to",
					"type": "address"
				},
				{
					"internalType": "uint256",
					"name": "id",
					"type": "uint256"
				},
				{
					"internalType": "uint256",
					"name": "amount",
					"type": "uint256"
				},
				{
					"internalType": "bytes",
					"name": "data",
					"type": "bytes"
				}
			],
			"name": "safeTransferFrom",
			"outputs": [],
			"stateMutability": "nonpayable",
			"type": "function"
		},
		{
			"inputs": [
				{
					"internalType": "address",
					"name": "operator",
					"type": "address"
				},
				{
					"internalType": "bool",
					"name": "approved",
					"type": "bool"
				}
			],
			"name": "setApprovalForAll",
			"outputs": [],
			"stateMutability": "nonpayable",
			"type": "function"
		},
		{
			"inputs": [
				{
					"internalType": "string",
					"name": "newuri",
					"type": "string"
				}
			],
			"name": "setURI",
			"outputs": [],
			"stateMutability": "nonpayable",
			"type": "function"
		},
		{
			"inputs": [
				{
					"internalType": "uint256",
					"name": "_itemId",
					"type": "uint256"
				},
				{
					"internalType": "uint256",
					"name": "_amount",
					"type": "uint256"
				}
			],
			"name": "smithOre",
			"outputs": [],
			"stateMutability": "nonpayable",
			"type": "function"
		},
		{
			"inputs": [
				{
					"internalType": "bytes4",
					"name": "interfaceId",
					"type": "bytes4"
				}
			],
			"name": "supportsInterface",
			"outputs": [
				{
					"internalType": "bool",
					"name": "",
					"type": "bool"
				}
			],
			"stateMutability": "view",
			"type": "function"
		},
		{
			"inputs": [
				{
					"internalType": "uint256",
					"name": "id",
					"type": "uint256"
				}
			],
			"name": "totalSupply",
			"outputs": [
				{
					"internalType": "uint256",
					"name": "",
					"type": "uint256"
				}
			],
			"stateMutability": "view",
			"type": "function"
		},
		{
			"inputs": [
				{
					"internalType": "address",
					"name": "newOwner",
					"type": "address"
				}
			],
			"name": "transferOwnership",
			"outputs": [],
			"stateMutability": "nonpayable",
			"type": "function"
		},
		{
			"inputs": [
				{
					"internalType": "uint256",
					"name": "",
					"type": "uint256"
				}
			],
			"name": "uri",
			"outputs": [
				{
					"internalType": "string",
					"name": "",
					"type": "string"
				}
			],
			"stateMutability": "view",
			"type": "function"
		}
	]
}